:10000000F8FF0020110400001B2D00001B2D000034
:100010001B2D00001B2D00001B2D00001B2D0000C0
:100020001B2D00001B2D00001B2D00001B2D0000B0
:100030001B2D00001B2D00001B2D00001B2D0000A0
:100040001B2D00001B2D00001B2D00001B2D000090
:10040000FFFFFFFFFFFFFFFFFFFFFFFFFEFFFFFFFD
:1004100062B608F031FAFEE738B5DFF80818086868
:100420000028FAD00D685FF0FF3008601D24280016
:10043000E040C00701D501F0BDFA31BD80B501F043
:10044000CBFA01BD70B5012001F020FC01F0CCF920
:10045000012001F057FCDFF8D04721684FF47A7291
:1004600091FBF2F1B0FBF1F0DFF8C0170860DFF8A4
:10047000C057DFF8C067300001F0F8FA28702A781A
:100480003100DFF8B40701F0DDFA012001F03AFC99
:1004900021684FF47A7291FBF2F1B0FBF1F0DFF8D2
:1004A0009C17086070BD00203C2817DA5021DFF847
:1004B000902742F820100021DFF8882742F820100A
:1004C0002821DFF884271154022190FBF1F1143127
:1004D000DFF8782742F82010401CE5E770472DE947
:1004E000F04100240025002600270020DFF86017D7
:1004F00008600020DFF85C1708600020DFF858175C
:1005000008605FF000082820DFF83C1781F83C0005
:100510000020DFF83017C1F8F0005020DFF8201776
:10052000C1F8F0003C20DFF82417C1F8F000FFF715
:10053000BAFF00F0F8F900F0ABFBBDE8F0812DE95F
:10054000F84F00208DF8030000208DF802000020F5
:100550008DF8010000208DF800000020002100220D
:100560005FF00009DFF8F43600241C60DFF8F04685
:1005700000252560DFF8EC5600262E60DFF8E866DF
:1005800000273760DFF8E4765FF0000CC7F800C0A2
:10059000DFF8DCC65FF0000ECCF800E0DFF8D4E650
:1005A0005FF00008CEF800805FF03B08B8F1030F61
:1005B000C0F2B7815FF05009DFF87CA609FB08FBA9
:1005C000D3449BF828B0BBF1FF0F0BD19DF802B0CC
:1005D000BBF1000F06D1DCF800B01BF1010BCCF829
:1005E00000B016E0B8F1020F13DB09FB08FBD3449F
:1005F0001BF828BCBBF1000F0BD109FB08FBD3444F
:100600001BF878BCBBF1000F03D15FF0010B8DF834
:1006100002B009FB08FBD3449BF814B0BBF1FF0FF9
:100620000BD19DF803B0BBF1000F06D1D7F800B095
:100630001BF1010BC7F800B016E0B8F1020F13DB95
:1006400009FB08FBD3441BF83CBCBBF1000F0BD1EA
:1006500009FB08FBD3441BF88CBCBBF1000F03D192
:100660005FF0010B8DF803B009FB08FBD3449BF846
:100670003CB0BBF1FF0F0BD19DF801B0BBF1000FF7
:1006800006D1DEF800B01BF1010BCEF800B016E089
:10069000B8F1020F13DB09FB08FBD3441BF814BCB1
:1006A000BBF1000F0BD109FB08FBD3441BF864BC62
:1006B000BBF1000F03D15FF0010B8DF801B009FB16
:1006C00008FBD3449BF81EB0BBF1FF0F0CD183464F
:1006D0005FFA8BFBBBF1000F06D1D4F800B01BF121
:1006E000010BC4F800B015E0B8F1020F12DB09FBF2
:1006F00008FBD3441BF832BCBBF1000F0AD109FB45
:1007000008FBD3441BF882BCBBF1000F02D15FF0A1
:10071000010B584609FB08FBD3449BF832B0BBF1F0
:10072000FF0F0BD19DF800B0BBF1000F06D1D3F83D
:1007300000B01BF1010BC3F800B016E0B8F1020FD6
:1007400013DB09FB08FBD3441BF81EBCBBF1000FF5
:100750000BD109FB08FBD3441BF86EBCBBF1000FA7
:1007600003D15FF0010B8DF800B009FB08FBD34407
:100770009BF80AB0BBF1FF0F0CD18B465FFA8BFBE5
:10078000BBF1000F06D1D5F800B01BF1010BC5F885
:1007900000B015E0B8F1020F12DB09FB08FBD344EF
:1007A0001BF846BCBBF1000F0AD109FB08FBD34480
:1007B0001BF896BCBBF1000F02D15FF0010B59464C
:1007C00009FB08FBD3449BF846B0BBF1FF0F0CD1EB
:1007D00093465FFA8BFBBBF1000F06D1D6F8009071
:1007E00019F10109C6F8009015E0B8F1020F12DB0B
:1007F00009FB08FBD3441BF80ABCBBF1000F0AD16C
:1008000009FB08F9D14419F85A9CB9F1000F02D13B
:100810005FF001094A46DCF80090D7F800A0D14506
:1008200006DAD7F80090DFF850A4CAF8009005E087
:10083000DCF80090DFF840A4CAF80090DFF83894A4
:10084000DEF800A0D9F800B0DA4504DAD9F800A043
:10085000C9F800A003E0DEF800A0C9F800A0D3F8B2
:1008600000A0D9F800B0DA4506DAD9F800A0DFF820
:100870000CB4CBF800A005E0D3F800A0DFF8FCB37F
:10088000CBF800A0D4F800A0D9F800B0DA4506DA19
:10089000D9F800A0DFF8E4B3CBF800A005E0D4F865
:1008A00000A0DFF8D8B3CBF800A0D5F800A0D9F8A5
:1008B00000B0DA4506DAD9F800A0DFF8C0B3CBF80B
:1008C00000A005E0D5F800A0DFF8B0B3CBF800A099
:1008D000D6F800A0D9F800B0DA4506DAD9F80090C9
:1008E000DFF898A3CAF8009005E0D6F80090DFF88A
:1008F0008CA3CAF80090DFF88493D9F800A0BAF16D
:100900003C0F03DB5FF03A0AC9F800A0D9F8009069
:10091000D9F13C09DFF868A3CAF80090B8F10108E2
:1009200044E6BDE8F18F30B4DFF858133B2008806F
:10093000B1F900003228C0F27281B1F900003B2801
:1009400006D1DFF844030068DFF84023108006E09A
:10095000BD48B1F9002010444078CC4A1080CB4A01
:10096000B2F90000032801DA02201080B2F9000079
:1009700002282FDB5023B04CB1F9000010FB03F02C
:100980002044B2F90050405DFF281FD1B1F90000AA
:1009900010FB03F02044B2F90050284410F8010C79
:1009A000002813D1B1F9000010FB03F02044B2F984
:1009B0000030184410F8020C002807D1B2F90000EA
:1009C000A04BB1F9004043F8240003E01088401E1A
:1009D0001080CBE7B1F900003B2803D1AA4800689A
:1009E000108005E09848B1F9003018444078108034
:1009F000B2F900004E2801DB4E201080B2F9000051
:100A00004F282DDA50238C4CB1F9000010FB03F075
:100A10002044B2F90050405DFF281DD1B1F900001B
:100A200010FB03F02044B2F900502844407800281D
:100A300012D1B1F9000010FB03F02044B2F90030EC
:100A400018448078002807D1B2F900007C4AB1F937
:100A5000003042F8230003E01088401C1080CDE7EE
:100A6000784AB1F9000052F82000002817D07448E5
:100A7000B1F9003050F82330502B10D0B1F90030CC
:100A800052F82320B1F9003050F8230082180220D8
:100A900092FBF0F06C4AB1F90030D054A6E0B1F905
:100AA000000052F8200000283ED0654BB1F900004C
:100AB00053F82000502837D166480468641C04604D
:100AC000B1F9000053F82040B1F9000052F82000BD
:100AD000241AB1F9000003EB80004368B1F900006B
:100AE00002EB800040681B1A08339C4209DB564821
:100AF000B1F9002002445278121DB1F90030C254FD
:100B000074E0B1F9000052F820205048B1F90030EB
:100B100050F82300022390FBF3F08218521D4A483C
:100B2000B1F90030C25461E0B1F9000052F8200080
:100B300000283AD1424BB1F9000053F82000502868
:100B400033D0B1F9000053F82040B1F9000052F859
:100B50002000241AB1F9000003EB80004568B1F9C8
:100B6000000002EB800040682D1A0835AC4209DB1A
:100B70003548B1F9002002445278121FB1F9003013
:100B8000C25433E0B1F9000053F820202F48B1F9E6
:100B9000003050F82300022390FBF3F0121A501F8C
:100BA000294AB1F90030D05420E0B1F9000052F8E0
:100BB000200000281AD12248B1F9002050F8220064
:100BC000502813D124480268521C0260B1F9000079
:100BD0003B2806D12C4800681B4AB1F90030D0549C
:100BE00004E02820184AB1F90030D054164890F893
:100BF0003B20462A03DB4620234A10600BE090F896
:100C00003B200B2A03DA0A201F4A106003E090F809
:100C10003B001D4A10600888401E088088E630BCF2
:100C200070470000A0900440404BFF1F540FFF1F6F
:100C3000E04CFF1F7C25FF1FBC12FF1F580FFF1F3A
:100C40005C0FFF1F5010FF1F7812FF1F4411FF1F82
:100C50004012FF1F4412FF1F4812FF1F5012FF1FB8
:100C60005412FF1F5812FF1F5C12FF1F6012FF1F5C
:100C70006412FF1F6812FF1F7012FF1F6C12FF1F0C
:100C80007412FF1FD84CFF1F1004FF1FDA4CFF1F08
:100C9000F8B5DFF8501A31200880B1F900000128BA
:100CA000C0F21F85DFF8402AB1F9000002EB800096
:100CB0004068002800F0CB80DFF8303AB1F900003E
:100CC00003EB80004068502800F0C180B1F90000BB
:100CD00002EB800040680A304E2804DB4E20DFF82B
:100CE000104A208008E0B1F9000002EB8000406863
:100CF0000A30DFF8FC492080B1F9000002EB8000E7
:100D00004068401F022804DA0120DFF8E84920701B
:100D100008E0B1F9000002EB80004068401FDFF8F6
:100D2000D4492070DFF8CC49DFF8C459B5F9000088
:100D3000267836B2B04230DBDFF8BC695027B1F913
:100D4000000010FB07F03044B5F900C010F80C00AB
:100D5000FF281ED1B1F9000010FB07F03044B5F9AF
:100D600000C0604410F8010C002812D1B1F9000055
:100D700010FB07F03044B5F90060304410F8020C65
:100D8000002806D1B5F90000B1F9006042F826004C
:100D900003E02888401E2880C4E7B1F9000003EB77
:100DA000800040680A38022802DA0120288006E024
:100DB000B1F9000003EB800040680A382880B1F9DF
:100DC000000003EB80004068401D4E2802DB4E20EF
:100DD000207006E0B1F9000003EB80004068401D80
:100DE00020702078B5F9006000B2B042C0F21982DC
:100DF000DFF804695027B1F9000010FB07F0304418
:100E0000B5F900C010F80C00FF281CD1B1F90000A2
:100E100010FB07F03044B5F900C06044407800286A
:100E200011D1B1F9000010FB07F03044B5F90060B2
:100E300030448078002806D1B5F90000B1F90040AF
:100E400043F82400EDE12888401C2880C9E7B1F967
:100E5000000002EB80004068002800F0B080DFF85E
:100E60008C38B1F9000003EB80004068502840F056
:100E7000A680B1F9000002EB800040680A304E28DD
:100E800004DB4E20DFF86848208008E0B1F900005C
:100E900002EB800040680A30DFF854482080B1F946
:100EA000000002EB80004068401F022804DA0120A5
:100EB000DFF84048207008E0B1F9000002EB800044
:100EC0004068401FDFF82C482070DFF82448B4F950
:100ED0000000DFF820582D782DB2A8422FDBDFF874
:100EE00018585026B1F9000010FB06F02844B4F958
:100EF0000070C05DFF281ED1B1F9000010FB06F0A4
:100F00002844B4F90070384410F8010C002812D1BC
:100F1000B1F9000010FB06F02844B4F90050284451
:100F200010F8020C002806D1B4F90000B1F9005005
:100F300042F8250003E02088401E2080C5E7DFF846
:100F4000BC07B1F90050284440782080B4F9000073
:100F50004E2801DB4E202080B4F900004F2880F29B
:100F60006081DFF894575026B1F9000010FB06F0BD
:100F70002844B4F90070C05DFF281CD1B1F900000D
:100F800010FB06F02844B4F900703844407800287B
:100F900011D1B1F9000010FB06F02844B4F900505B
:100FA00028448078002806D1B4F90000B1F9004047
:100FB00043F8240035E12088401C2080CCE7B1F9BB
:100FC000000002EB80004068002840F0B080DFF8AD
:100FD0001C37B1F9000003EB80004068502800F096
:100FE000A680B1F9000003EB800040680A380228AF
:100FF00004DA0120DFF8F846208008E0B1F90000AB
:1010000003EB800040680A38DFF8E4462080B1F93D
:10101000000003EB80004068401D4E2804DB4E209A
:10102000DFF8D046207008E0B1F9000003EB800043
:101030004068401DDFF8BC462070DFF8B446DFF89A
:10104000B4060078B4F9005000B2A8422DDBDFF8F6
:10105000A8565026B1F9000010FB06F02844B4F958
:101060000070C05DFF281CD1B1F9000010FB06F034
:101070002844B4F9007038444078002811D1B1F9FF
:10108000000010FB06F02844B4F900502844807892
:10109000002806D1B4F90000B1F9005043F825004A
:1010A00003E02088401C2080C7E7DFF85006B1F934
:1010B0000030184440782080B4F90000022801DA9A
:1010C00002202080B4F900000128C0F2AA80DFF8D5
:1010D00028365025B1F9000010FB05F01844B4F98A
:1010E0000060805DFF281ED1B1F9000010FB05F003
:1010F0001844B4F90060304410F8010C002812D1F3
:10110000B1F9000010FB05F01844B4F900301844A0
:1011100010F8020C002806D1B4F90000B1F9003033
:1011200042F823007DE02088401E2080CAE7B1F904
:10113000000002EB80004068002872D1DFF8AC3577
:10114000B1F9000003EB80004068502869D1DFF856
:10115000AC55DFF89C45B1F9000028444078208068
:10116000B4F90000012830DBDFF88C655027B1F9B5
:10117000000010FB07F03044B4F900C010F80C0078
:10118000FF281ED1B1F9000010FB07F03044B4F97C
:1011900000C0604410F8010C002812D1B1F9000021
:1011A00010FB07F03044B4F90060304410F8020C32
:1011B000002806D1B4F90000B1F9006042F8260019
:1011C00003E02088401E2080CAE7B1F900002844CF
:1011D00040782080B4F900004F2822DADFF81805A3
:1011E0005025B1F9006016FB05F60644B4F900700D
:1011F000F65DFF2E11D1B1F9006016FB05F528440C
:10120000B4F9005028444078002806D1B4F9000011
:10121000B1F9004043F8240003E02088401C2080FE
:10122000D8E7DFF8C834B1F9000053F82040B1F92D
:10123000000052F82000241AB1F9000003EB8000EE
:101240004568B1F9000002EB800040682D1AED1CE2
:10125000AC4209DBDFF8A404B1F90040044464782F
:10126000B1F900504455E5E1B1F9000052F8200011
:10127000002800F03E81B1F9000053F8200050280A
:1012800000F03781DFF87444B1F9000052F82050C3
:10129000B1F9000053F820004519022095FBF0F049
:1012A000401DB1F900506055B1F90000255CB1F95D
:1012B0000000204440782D1A092DC0F28680B1F933
:1012C000000052F82050B1F9000002EB80004068A5
:1012D0002D1A042D01DB012000E00020C0B20028FF
:1012E0000FD0B1F9000052F82050B1F9000002EB24
:1012F000800040682D1A042D01DB012012E000203F
:1013000010E0B1F9000052F82050B1F9000002EBF2
:10131000800040682D1A042D01DB012000E0002030
:10132000C0B24042002834D1B1F9000053F8205037
:10133000B1F9000003EB800040682D1A042D01DB99
:10134000012000E00020C0B200280FD0B1F9000059
:1013500053F82050B1F9000003EB800040682D1ACB
:10136000042D01DB012012E0002010E0B1F90000A3
:1013700053F82050B1F9000003EB800040682D1AAB
:10138000042D01DB012000E00020C0B24042002813
:101390001BD0B1F900001E2817DB0D882800C0B251
:1013A000205C401E2E00F6B2264470706D1C280092
:1013B000C0B2322809DA2800C0B2265C2800C0B2C8
:1013C00020444078361A022EE8DAB1F900002044B1
:1013D0004578B1F90000205C2D1A092DC0F22A8150
:1013E000B1F9000052F82050B1F9000002EB800082
:1013F00040682D1A042D01DB012000E00020C0B25E
:1014000000280FD0B1F9000052F82050B1F90000C7
:1014100002EB800040682D1A042D01DB012012E050
:10142000002010E0B1F9000052F82050B1F900009E
:1014300002EB800040682D1A042D01DB012000E042
:101440000020C0B24042002835D1B1F9000053F865
:101450002050B1F9000003EB800040682D1A042DE4
:1014600001DB012000E00020C0B200280FD0B1F95C
:10147000000053F82050B1F9000003EB80004068F1
:101480002D1A042D01DB012012E0002010E0B1F93B
:10149000000053F82050B1F9000003EB80004068D1
:1014A0002D1A042D01DB012000E00020C0B24042D3
:1014B000002800F0BF80B1F900001E28C0F2BA80F9
:1014C0000D882800C0B2205C401C2E00F6B22644D5
:1014D00070706D1C2800C0B2322809DA2800C0B232
:1014E000204446782800C0B2205C361A022EE8DA82
:1014F000A0E0B1F9000052F82000002838D0B1F97E
:10150000000053F82000502832D17D480468641C44
:101510000460B1F9000002EB80004068002814D09C
:10152000764CB1F9000020444578B1F9000052F83A
:1015300020004519B1F9000002EB800040682D1A27
:101540006D1DB1F90000255474E0B1F9000052F8A6
:1015500020406C48B1F9005050F82500022590FB5E
:10156000F5F00419641D6548B1F90050445561E077
:10157000B1F9000052F82000002838D1B1F900007C
:1015800053F82000502832D05F480468641C04607F
:10159000B1F9000003EB80004068502814D0574C8C
:1015A000B1F9000020444578B1F9000053F820005B
:1015B0004519B1F9000003EB800040682D1A681F3F
:1015C000B1F90050605535E0B1F9000053F8204002
:1015D0004C48B1F9005050F82500022590FBF5F079
:1015E000241A601F454CB1F90050605522E0B1F952
:1015F000000052F8200000281CD1B1F9000053F877
:101600002000502816D141480478641C0470404CD6
:1016100025686D1C25600078012803D1B1F9000010
:101620003C4C20603548B1F9004004446478B1F97D
:1016300000504455B1F90000002806D1364837491A
:1016400008600020364908604BE02C48B1F90040A2
:10165000045D200080B2052801DA05200400200086
:1016600080B24C2801DB4B200400B1F9000052F895
:101670002000002805D0B1F9000052F820004128D0
:101680001DDAB1F9000053F82000502805D0B1F957
:10169000000053F820000F2811DBB1F900000128E9
:1016A0001ADB1548B1F90020502312FB03F2104455
:1016B000220092B2104410F8500C00280CD1B1F95D
:1016C0000000174A1060B1F90000D0F13C0000F0B2
:1016D00053FB1249086004E00888401E0880FFF7A9
:1016E000DCBAF1BDD84CFF1F5010FF1F5C0FFF1F6D
:1016F000DA4CFF1FE14CFF1FBC12FF1F7812FF1FC7
:101700004412FF1F4411FF1F4012FF1FE24CFF1F36
:101710004812FF1F4C12FF1F000070423C12FF1FB7
:101720003812FF1F012210F01F018A40DFF8BC129F
:1017300003005BB25B0941F823207047012210F0DF
:101740001F018A40DFF8A81203005BB25B0941F871
:101750002320704710B4020052B2002A0AD50A01B1
:10176000DFF89032040064B214F00F04234403F84D
:10177000042C05E00A01DFF88032040064B21A5537
:1017800010BC704770B4DFF87442256801268640AB
:1017900035432560DFF868421D006D046D0C0600BE
:1017A00076B276012644F5821D006D046D0C0600AC
:1017B00076B276012644F58305006DB26D01615164
:1017C00005006DB26D012C4422618E4C256855F0E8
:1017D0000105256070BC704710B504008A4804609C
:1017E00000F06EF8012010BDF8B5884C2078002874
:1017F000FBD04FF49655864E834807682A00310087
:10180000380000F0CBFA00202070F1BDF8B50324B9
:10181000804D200040B255F82000007980061AD58E
:101820007D4E7E4F307807EB0001032000F02DFC49
:101830003078401C30703078012804D13878A528E1
:1018400001D0002030703078032804D1002030709F
:10185000012073490870200040B255F8200000793B
:10186000F1BD7CB50025280080B2082827DAA52024
:101870008DF800006846F12141706A4E290089B256
:1018800036F821100C00210089B2090A8170C47059
:1018900004226946032000F016FC614908780028FC
:1018A000FBD0002008705D484178807850EA012024
:1018B000290089B206EB810148806D1CD3E773BD16
:1018C0007FB54FF41651032000F0E4FA032000F036
:1018D0000DFC5549432000F040FC0A2000F06DFC4F
:1018E0004F4E002030700025280080B209281EDAF3
:1018F000A5208DF80C004D4803A92A0092B230F8BB
:1019000022204A702A0092B200EB82004088040034
:10191000200080B2000A8870CC70042203A9032042
:1019200000F0D1FB022000F048FC6D1CDCE73078B1
:101930000028FCD00020307038484178FF29FBD1C6
:101940008078FF28F8D1FFF78CFF012002904FF438
:1019500096500190002000901B232D4A344900200E
:1019600000F070FC33491B2000F062FD254E30680A
:101970004008400030602148016851F001010160D9
:101980000020FFF7CFFE306850F001003060572094
:10199000FFF7D4FE28491D2000F04AFD0121572001
:1019A000FFF7D8FE02210020FFF7D4FE5720FFF7F3
:1019B000B9FE7FBD80B55FF0005020490968C1F8CD
:1019C000A0004FF49653124A19490020FFF7DAFE9F
:1019D00000201B49088001BD01200C490870074800
:1019E000016851F0010101607047000000E100E072
:1019F00080E100E018ED00E000E400E02480004019
:101A0000009000400C800040104BFF1FE54CFF1F72
:101A10005038FF1FA00BFF1FE44CFF1F144BFF1F8C
:101A2000940DFF1FDC0BFF1F0D180000B80BFF1FEC
:101A300050F00F400201010002010A008C0BFF1F51
:101A4000DC4CFF1FF0B403000C000025B5F5965FD9
:101A50000ADA665D1700FFB2BE4201D3FF2600E03E
:101A600000265E556D1CF1E7F0BC70472DE9F14F83
:101A7000ADF5006D8EB05020ADF80A003C20ADF8F9
:101A80000C000DF587604FF4806100F02DFD0EA86D
:101A90004FF4806100F028FDBDF80A10BDF80C007D
:101AA00041430A9100208DF80800DDF838080990BC
:101AB0000021B1F5807F0ADA00200DF5876242F837
:101AC000210000200EAA42F82100491CF1E7002065
:101AD000BDF80C1088421CDA00210F00BDF80A1076
:101AE0008F4214DA0DF58761099ABDF80A3003FBBD
:101AF0000073D25C099BBDF80A4004FB00741B5DB7
:101B000051F823305B1C41F822307F1CE6E7401C73
:101B1000DEE7002108915FF0000ABAF5807F1CDA49
:101B20000EAC0DF5876050F82A0000F025F905008D
:101B30000A9800F021F90100280000F0D9FC44F8CF
:101B40002A00089854F82A1000F050FD02D254F8E8
:101B50002A0008901AF1010ADFE7002007905FF0E1
:101B60003C09B9F1510F80F28A8000200B9004905B
:101B7000059006900600804605000400002007003E
:101B8000B7F5807F2ADAB94513DB0DF1380A5AF828
:101B90002700210000F03CFD0400380000F0ECF8C4
:101BA0005AF8271000F0A6FD414600F031FD8046AE
:101BB00012E00DF1380A5AF82700290000F028FD3C
:101BC0000500380000F0D8F85AF8271000F092FD10
:101BD000310000F01DFD06007F1CD1E740462100CA
:101BE00000F086FC06903000290000F081FC059092
:101BF0004046310000F00CFD04900698049900F076
:101C0000E5FD00F023FE82468B460598049900F01E
:101C1000DDFD00F01BFECDE90C01200000F016FEFA
:101C2000CDE900015046594652465B4600F032FE6F
:101C3000DDE9002300F02EFECDE90001280000F0D0
:101C400005FE82468B46DDE90C23DDE90C0100F040
:101C500021FE52465B4600F01DFEDDE9002300F048
:101C6000EBFE00F0A7FF0100079800F0BFFC03D2D5
:101C7000079148468DF8080019F1010971E79DF8B0
:101C800008000DF5006D0FB0BDE8F08F37490A6808
:101C900052F400020A6036490A68920892000A600B
:101CA0003449020052B212010A44926852085200AA
:101CB00003005BB21B010B449A605FF0FF3203002C
:101CC0005BB21B01CA50020052B212010A44D26830
:101CD00052F0010203005BB21B010B44DA60020008
:101CE00052B212010A4492685208520003005BB2D9
:101CF0001B010B449A60012203005BB21B011944D3
:101D00008A60704710B401001A485FF0FF330A0080
:101D100052B21201024452689A1A0B005BB21B01C4
:101D20000344DB68DB071AD50B005BB21B010344DD
:101D3000DB6853F001030C0064B224010444E36047
:101D40000B005BB21B0103449B685B085B000C004B
:101D500064B22401204483605FF0FF3004E012F19C
:101D6000010F00D1521E100010BC70473C8004408F
:101D70000070034000710340C2175040801AB0FA4F
:101D800080F10AD08840D1F19D01D20742EAC151C9
:101D9000020672F1004241EB1020704762B38B07DC
:101DA00008D0521E11F8013B00F8013B00F02480DE
:101DB0008B07F6D1830740F0208000BF103A07D38D
:101DC00030B4B1E83810103AA0E83810F9D230BC7D
:101DD000530724BFB1E80810A0E8081044BF51F829
:101DE000043B40F8043BD20724BF31F8022B20F813
:101DF000022B44BF0B7803707047121F17D35B0090
:101E000009D151F8043B20F8023B1B0C121F20F8AB
:101E1000023BF6D20BE051F8043B00F8013B1B0AF1
:101E200020F8023B1B0C121F00F8013BF3D238BF15
:101E3000121D521E24BF11F8013B00F8013BF8D8D7
:101E4000704730B4002513E050F8042BD30744BF8B
:101E5000A9F101039A18091F042942F8045BFAD278
:101E600013468C0744BF15809B1CC90748BF1D70D3
:101E700050F8041B0029E7D130BC7047012210F054
:101E80001F018A40DFF8941203005BB25B0941F83E
:101E9000232070472DE9F84304000D00200040B2D4
:101EA000002808D0022828D016D3042847D035D3DC
:101EB000052855D065E0DFF86802016851F48061BB
:101EC00001604FF44071662000F0B2FA4FF44071A7
:101ED000672000F0ADFA54E0DFF84402016851F4E5
:101EE000006101604FF44071432000F0A1FA4FF40B
:101EF0004071442000F09CFA43E0DFF824020168BE
:101F000051F4805101604FF44071632000F090FA69
:101F10004FF44071622000F08BFA32E0DFF80002EB
:101F2000016851F4005101604FF44071502000F0FD
:101F30007FFA4FF44071512000F07AFA21E0DFF887
:101F4000E401016851F4806101604FF440714E205A
:101F500000F06EFA4FF440714F2000F069FA10E083
:101F6000DFF8C001016851F4006101604FF4407175
:101F7000892000F05DFA4FF44071882000F058FA93
:101F8000FFE7DFF8A461200040B256F82000C078D7
:101F900010F0F300210049B256F82110C87020005B
:101FA00040B256F820008078210049B256F821103E
:101FB0008870200040B2002803D0200040B20128E1
:101FC00006D1DFF8680107684FF47A70474305E0EF
:101FD000DFF85C0107684FF47A7047432801B7FBCC
:101FE000F0F8404680B2B0F5005F02DB41F6FF70CA
:101FF0008046B7FBF5F9404680B2B9EB0019484678
:1020000080B2202803DBDC214A4800F01BFE2000C0
:1020100040B256F82000007810F0E000C8F3042128
:102020000143220052B256F822201170210049B219
:1020300056F8211081F80180210049B256F821108C
:10204000897A11F0E00119F01F020A4323005BB204
:1020500056F823309A72220052B256F82220127C8F
:1020600052F0880223005BB256F823301A74220023
:1020700052B256F82220D27852F00C0223005BB202
:1020800056F82330DA70BDE8F183274A03005BB2CB
:1020900052F823301B799B06F7D503005BB252F848
:1020A000232092F907200A7070471F4A03005BB291
:1020B00052F823301B791B06F7D503005BB252F8A8
:1020C0002320D171704770B504000D001600300058
:1020D000461E002809D095F90000010049B22000F1
:1020E00040B2FFF7E2FF6D1CF1E770BD10B50400D0
:1020F0000D48210049B250F82110C97851F0200153
:10210000220052B250F82200C170200040B24000BC
:102110002D3040B2FFF7B2FE10BD000000E100E03C
:102120003480044028800440A00BFF1F384BFF1F61
:10213000404BFF1F708C000010B504004FF400707E
:1021400094FBF0F100FB1140002803D01E210B4846
:1021500000F078FD0A48046010BD70B504000D0061
:10216000084E07480068B04203D03021034800F011
:1021700069FD200040B246F8205070BDA48C0000DC
:1021800008ED00E00000FF1F10B50400002C13D084
:10219000B4F1807F03D329210E4800F053FD0E488F
:1021A000002101600D490C6000210D4A11600521DC
:1021B00001600168C903FCD510BD10B50400200002
:1021C000441E002804D007480068FFF7DDFFF6E74B
:1021D00010BD00009C8B000010E000E014E000E067
:1021E00018E000E0384BFF1F2DE9F84304000D0014
:1021F0002000800910F00700C0B24601200010380E
:1022000010F03F00C0B2C70017EB0608EDB218EBA4
:10221000C500B0F1010948464146C0B2C9B2884282
:102220000ED3002200214046C0B200F09FFD4FF4C3
:1022300081714046C0B200F0FBF818F10108EAE7EE
:10224000BDE8F1832DE9F84F04000D0016001F00D2
:102250009DF92880DDF82C90DDF830A0404640B292
:10226000002802D15FF0010B0FE0404640B2012888
:1022700002D15FF0020B08E0404640B2022802D1D2
:102280005FF0040B01E05FF0100B404640B2002805
:1022900005D15A48854202D35948A8421FD2404628
:1022A00040B2012809D15548854206D35548A84275
:1022B00003D315F00300032811D1404640B2022891
:1022C00009D14E48854206D34F48A84203D315F0A2
:1022D0000300002803D061214C4800F0B3FCB9F59D
:1022E000004F03D36321494800F0ACFC4848016823
:1022F00051F0020101604748016851F0020101609C
:102300004548210049B249014550210049B24901DF
:1023100001440E610021220052B252010244918018
:102320005946C9B2220052B252010244918241463A
:1023300049B2090211F4E061424652B212F00702BA
:102340001143220052B252010244D180494649044D
:10235000490C220052B252010244D182494649043A
:10236000490C220052B252010244D1832B490A681F
:1023700032F080020A605946C9B2220052B25201BC
:10238000024491600021220052B252010244D16005
:102390005FEACA7102D4D9F1000100E000212200F5
:1023A00052B25201024491614CF20A01220052B22F
:1023B0005201104481833800C0B24009313050F0DE
:1023C00080001749220052B2885416493800C0B222
:1023D00000F02EF85946C9B22800FFF705FF124950
:1023E00001220B6812FA04F083430B600F48016866
:1023F000A2400A430260BDE8F18F000010F00F40D8
:1024000013F10F4012F10F4010F10F40D48B000078
:10241000408004403C800440009000400080004028
:1024200000100240000101000C80004024800040A8
:1024300030B42B4B1C684FF400750200D2B2520925
:1024400095402C431C60274B0200D2B2521153F826
:102450002240012510F01F029540C4F8A050020050
:10246000D2B2521153F822200300DBB213F01F0343
:1024700042F8231030BC704730B4194B1C684FF43D
:1024800000750200D2B2520995402C431C60154BD6
:102490000200D2B2521153F82240012510F01F025F
:1024A0009540C4F8A05031F4E0610200D2B252115C
:1024B00053F822200400E4B214F01F0452F8242040
:1024C00012F4E06211430200D2B2521153F82220FA
:1024D0000300DBB213F01F0342F8231030BC704737
:1024E000388004408C0BFF1F002200F0DBBC000092
:1024F00010B5FF2313EAD0541DBF13EAD1529C42FA
:102500009A4239E0A41ADA0780EA0103134042EA4A
:10251000012142EA0020421A3CBF641E01EB420244
:10252000090AB2FBF1FE01FB1E221202B2FBF1F01E
:1025300001FB10226EF30F201202B2FBF1FE4EEAF5
:1025400000207F3406DDFE2C24DA53EA500050EBE5
:10255000C45010BDD4F1020401FB1E2240F0807172
:10256000192C1DDC21FA04F0C4F12004A140114310
:1025700071F10042584110BD9C421ABF03EAD1528A
:102580009A420FE080EA010E0EF00043400004D0B2
:10259000490016D143F0FF4010BD490008BFD343A6
:1025A000180010BD9C4205D1D21AF7D001F00041AD
:1025B000484010BD4A0212BF0846484000F00040A3
:1025C00010BD4AB90902B1FA81F2914044B1A41890
:1025D000C00140F000409EE7C90141F00041524275
:1025E0000002B0FA80F4A040141B94E74FF0807C06
:1025F0001CEB400F94BF1CEB410F05E040EA010CBF
:102600001CEB0C0F01D28842704718BF8142704703
:1026100090EA010F40F1E08081F00041431A4FF051
:1026200000423EBF5340C01AC91800BFD3095FEA39
:10263000D05C13EB400F34BFB3EB410F40E07CEBB9
:10264000D1530CD342EA012122D8D1EB402009D347
:10265000400A28BF5FEA500140EBCC507047401A57
:1026600015D04002B0FA80F2521C9040400A4FEA66
:102670003C23B3EB026384BF00EB730007E040F43C
:1026800000001A16DB07C2F10102D0401843704760
:10269000182BFCDC31FA03F202FA03F3591A38BFA3
:1026A00042F00102D2EB40203CBF4000ACF1010CF3
:1026B0005FEACC5CC20572F100414CEB50207047E0
:1026C00013EB400F0FD2C94209D0ACEBD153022B10
:1026D00003DB4902172BDDDD70479143401AC042EE
:1026E000D5D10020704713EB410FD0D36FF000001D
:1026F00070470000FF2212EAD05C1DBF12EAD153DE
:10270000944593422BE09C44D30780EA01021A408F
:1027100043EA002043EA0121A1FB0030C04238BF58
:1027200040007CF17F010BDBFE294ADA5B0842EABC
:10273000C15153EA006373F1004C51EB1020704714
:10274000D1F1080CDCF120012FDB5B0810FA01F15C
:102750000B4320FA0CF073F100415041704794454F
:102760001CBF02EAD153934280EA010202F0004208
:102770001DD0400019D0490017D05BB9634514D073
:102780000902B1FA81F39940BCEB030CC00140F09F
:102790000040C1E70002B0FA80FC10FA0CF0B3EB85
:1027A0000C0CC90141F00041B6E710007047400031
:1027B0000AD0490008D010F1807F94BF11F1807FCA
:1027C00002E042F0FF407047D043704790EA010FAB
:1027D0007FF524AF81F00041421A3CBF801A89186E
:1027E0004FF0004CC0F3C752FF2A24D0C1F3C753A7
:1027F00013B3D21AD2F1190327DD4CEA01214CFAA6
:1028000003F321EA0303D140C20D4CEA0020401833
:1028100034BF20EA0C004CEA5000D20553EA0063B2
:1028200073EB0C0C52EB1020420012F1807F38BF8A
:102830007047C00DC0057047490212BF9A4200EBB5
:102840005120F8E7D2F11703D9D57047C0F3C7512B
:1028500081B1FF2906D0C110400721F0E04101F10C
:102860006051704741020CBF40F4E0016FF000413D
:102870000020704700F0004100020AD0B0FA80FC4E
:1028800000FA0CF001F16051A1EB0C5101EBD021E9
:1028900040057047B0B581EA030C0CF0004C40F2E3
:1028A000FF7515EA11541DBF15EA1357AC42AF422C
:1028B00039E0E41923EA455343F48013C90241F097
:1028C000004141EA505EC7021100A7FB0202002846
:1028D0004FF00000EEFB01204FF00001E3FB072169
:1028E00018BF42F00102401800214941E3FB0E01EC
:1028F000A4F580640F0302D252004041494154F1D3
:1029000001046CDD470872F1004250F1000051EB08
:102910000451A1F580115CBF41EA0C01B0BD4CEA45
:1029200005510020B0BD05EA1357AC4214BFAF42B9
:1029300041E050EA410E1CBF52EA430E02E06146FC
:102940000020B0BD24423C441BD15FEA070EF6D004
:10295000090302BF01460020AEF1140EB1FA81F75F
:10296000AEEB070401FA07FE0C37C7F1200100FAAD
:1029700007F7C8404EEA000E23EA455343F480139C
:10298000A2E733F00043B3FA83F704BFB2FA82FE42
:1029900077440B3FE41BB7F1200E2FBF02FA0EF372
:1029A000BB40C7F1200E22FA0EFE38BF43EA0E03E9
:1029B000BA40641C82E750EA410E14BF52EA430E4B
:1029C0006FF000014FF4001717EB430F8ABF194651
:1029D00017EB410FB5E74CEA05510020B0BDD4F12B
:1029E0000104B4F120070FDAC4F12007520828BF10
:1029F00042F0010210FA07F501FA07F7E1BF2A4396
:102A0000E0403843E1400FE0352C98DCC7F120046A
:102A100052EA400220FA07F218BF42F0010231FAEE
:102A200007F0A1400A43002172F1004250F100007A
:102A300051EB0C01B0BD000070B44FF0004591EABD
:102A4000030F40F151826B40841A71EB030604D2EC
:102A50006E40001BB141121973414FF4001C1CEB76
:102A6000410F34BF7CEB430683E00C0DA4EB1356FF
:102A7000362E00F37C80012E45EAC32341DC43EA75
:102A8000525312BFD20292025B08240545EAC121CB
:102A900041EA5051D2EBC020994125D407D1B0FA78
:102AA00080F610FA06F162D00020203608E0B1FA74
:102AB00081F6B140C6F1200220FA02F21143B04083
:102AC0004FEAF474B4EB465434F001064FEA740450
:102AD0000AD8D6F50016760D04F00044F04061FAED
:102AE00006F25040F1404840C00A40EA415021F00F
:102AF000004128BF5FEA500550F1000044EBD121AE
:102B000035E0DB0A45EAC121C90AB6F120050EDD30
:102B100042EA0242120CC5F1200603FA06F6EB4027
:102B200042EA06056D42984161F100010DE062FA4A
:102B300006F5F240554063FA06FC82EA0C02F340C7
:102B40005A406D42904161EB030111F4801F05D1A1
:102B5000641E620502D06D004041494121F480119C
:102B6000430875F1004350F1000041EB045170BC83
:102B700070471CEB410F15D223F0004352EA430685
:102B80000BD04FEA4C0CBCEB410F04D80C0D661E69
:102B9000342EB7DDEBE7801A994150EA410608BFB1
:102BA0000021E4E708BF1CEB430F28BF6FF00001D2
:102BB000DDE7000001F000428B1AA3F16051B1F58E
:102BC000801F0ADBB1F17F6F1FD242EAC102C10050
:102BD00071F1004142EB507070470B15C3F10903CE
:102BE000212B10D2890241EA9051800201284941EB
:102BF00041F0004121FA03F0C3F12003994071F143
:102C0000004150417047100070476FF0000013EB17
:102C1000103F5CBF000E42EAC0507047DFF800F082
:102C2000C50DFF1FDFF800F0EF0DFF1FBFF34F8F43
:102C300046490A6812F4E062454802430A60BFF35D
:102C40004F8FFEE738B504000D00002000F0B6F904
:102C50002A0021003F4800F0F1F9002000F0CEF9F1
:102C60004FF47A70FFF7A9FAF2E738B504000D00C7
:102C7000210049B20420FFF718FA200032BD10B538
:102C80000024042000F0EEF9042000F025FA0028CA
:102C900042D1002000F092F9042000F01DFA012832
:102CA00001D101200400002000F0A8F92A4800F01A
:102CB000C5F94FF4FA70FFF780FA2000C0B201287E
:102CC000EAD1042000F008FA0028E5D1042000F041
:102CD00003FA002806D1002000F090F96420FFF7E5
:102CE0006CFAF3E7042000F0F7F9012806D1002080
:102CF00000F084F93220FFF760FAF3E7174800F09C
:102D00009DF9FFF78BFF6420FFF757FA0020FFF7CC
:102D100089FFFFF78BFFBFE710BD10B510480468AF
:102D2000012000F04BF9012000F068F90D49220064
:102D3000D2B20F2042430A442100C9B20A4800F02F
:102D40007DF94FF47A70FFF738FAECE70CED00E00C
:102D50000400FA05FC8C0000A48D0000308D0000FA
:102D600004ED00E01C04FF1FEC8A0000F8B504002D
:102D70000D0016004FF480712000C0B2FFF758FB21
:102D8000280040B2002812D144482100C9B249119C
:102D900050F821102200D2B2521150F8220042699C
:102DA000012314F01F0083409A434A6138E0012157
:102DB0003A4A2000C0B2401152F820002300DBB292
:102DC0005B1152F823305B6914F01F0711FA07F703
:102DD0003B4343613000C0B2002811D12000C0B293
:102DE000401152F82000036814F01F00814033EABC
:102DF00001012000C0B2401152F8200001600FE034
:102E00002000C0B2401152F82000036814F01F00E7
:102E1000814019432000C0B2401152F820000160E7
:102E2000F1BD38B504001D4D2000C0B2401155F869
:102E30002000406914F01F01C840C00703D47B2163
:102E40001748FFF7FFFE2000C0B2401155F82010D0
:102E5000012214F01F008240CA6031BD38B5040061
:102E60000E4D2000C0B2401155F82000406914F00A
:102E70001F01C840C00703D58C210948FFF7E2FEB7
:102E80002000C0B2401155F82000006914F01F0462
:102E9000E04010F0010032BD00000000300BFF1FC9
:102EA0003C8C000000B500BF1300964694461039D4
:102EB00028BFA0E80C50FAD85FEA417C28BF0CC0BC
:102EC00048BF40F8042BC90728BF20F8022B48BF91
:102ED00000F8012B00BD000070B44FF0004591EAEE
:102EE000030F7FF5B1AD6B40841A71EB030603D27B
:102EF000001BB141121973414FF4001C1CEB410F30
:102F000034BF7CEB430442E00C0DA4EB1356352E8A
:102F10004FDC45EAC323DB0A45EAC121C912B6F1F9
:102F200020050DDD63FA05F6EB4086EA0305124243
:102F300018BF45F00105C01851F100010CD213E093
:102F400062FA06F5F2405540F3415A40B340F3406F
:102F50005A408018594107D349085FEA30005FEAB8
:102F6000350528BF45F0010501F58011420875F1CE
:102F7000004250F1000041EB04514E0016F5001FD5
:102F800070BC38BF70470020090D090570471CEB65
:102F9000410F10D252EA43060BD0BCEB410F05D8CB
:102FA0000C0DAB43661E342EB6DD02E0AB43801839
:102FB000594170BC704770BC7047000010B50400E8
:102FC000200040B2042808DA012201211A48230017
:102FD0005BB2C05CFFF7CAFE0FE0042004002000D3
:102FE000441E40B2002808D00122012112482300CB
:102FF0005BB2C05CFFF7BAFEF1E710BD10B504008C
:10300000200040B2042806DA0B48210049B2405C97
:10301000FFF707FF0DE0042004002000441E40B22B
:10302000002806D00448210049B2405CFFF7F9FEB1
:10303000F3E710BD000000000C0DFF1F0EB4C0B57B
:10304000024603A800210190009101AB0121044830
:1030500078440C3000F058F806BC5DF810FB00BF57
:10306000235D000038B50400200040B208280EDAC5
:10307000244D00220021200040B2285CFFF776FE9C
:103080000321200040B2285CFFF7F6F915E0082084
:1030900004002000441E40B200280ED0194D00222A
:1030A0000021200040B2285CFFF760FE03212000D1
:1030B00040B2285CFFF7E0F9EBE731BD10B5040042
:1030C0001048210049B2405CFFF7C8FE002801D13A
:1030D000002000E0012010BD10B50400200040B227
:1030E000FFF7ECFF00280AD10A20FFF766F820005E
:1030F00040B2FFF7E3FF002801D1002000E00120EB
:1031000010BD0000040DFF1F2DE9F0439FB00FF626
:10311000A836269CDFF804898DF83B4002910024F4
:103120000B944FF0FF37044691461D460AE019F80C
:10313000011B0298A0470028029000F0A1800B9884
:10314000401C0B9099F8000050B12528EFD10021C8
:103150000022059106920791089209910A9203E0D4
:103160000B98A0E041F0010119F8010F2028F9D0D7
:1031700023280CD02B2804D02D2805D0302809D0A6
:1031800080E041F00201EFE741F00401ECE741F09B
:103190000801E9E741F01001E6E70D920AE00D9819
:1031A000404505DA00EB800002EB4002303A0D9218
:1031B00009F1010999F80020A2F130000A28EED3A4
:1031C00099F800002E2818BF0C9726D119F8010F86
:1031D0002A2808D12868286009F1010950F8042B31
:1031E00028600C9219E02D280CBF09F1010900207C
:1031F00000220C920BE040B90C9A424505DA02EB32
:10320000820203EB4203303B0C9309F1010999F868
:103210000030A3F130020A2AEDD3ADF83810304661
:1032200099F8001000F07CFD08B119F8010B8DF839
:103230003A009DF83A00682805D199F800006828FE
:103240000CD1622106E06C2804BF99F800006C28BC
:1032500004D171218DF83A1009F1010910A80490E8
:103260002A4619F8013B6946204600F05CF838B957
:1032700010AA6946204600F086F900287FF562AF63
:10328000384610E02A2888D12A682A6052F8040BB0
:103290002A6000280D9003D540420D9041F00401B2
:1032A00009F101098CE71FB0BDE8F083622820D046
:1032B000682811D06A2803D06C2827D0712825D11E
:1032C0000868C01D20F007000860D0E9002308301E
:1032D0000860194610467047002A0A680A6010689C
:1032E00003D0121D0A6000B217E0121D0A6080B2FE
:1032F00017E0002A0A680A60106803D0121D0A60ED
:1033000040B20AE0121D0A60C0B20AE0002A0A6850
:103310000A60106803D0121D0A60C1177047121DA1
:103320000A600021704770B51C460D46B4F12500B7
:103330002E69114600F015812038022863D9133810
:1033400040D00B3816D0401E1ED0401E02285AD93D
:10335000001F19D0401F00F08180401E32D0401E57
:1033600000F0CB80C01E00F0DA80801E2AD0C01E84
:1033700028D0FCE06869421C6A610A680A6052F859
:10338000043B0A603354FCE095F83A000122FFF751
:103390008DFFC5E90001002904D56869411C6961F8
:1033A0002D220DE0288F810704D56869411C6961D1
:1033B0002B2205E0C00721D56869411C69612022E4
:1033C00032541BE095F83A000022FFF76FFFC5E981
:1033D000000195F83800010710D5D5E90023002B2E
:1033E00008BF002A0AD044F02000782806D1686976
:1033F00030213154401C421C6A61345421466869B2
:103400003044E86087E00868C01D20F007000860CD
:10341000D0E9002308300860C5E90023D5E90001A0
:10342000C80F04D06869411C69612D220DE0288F06
:10343000810704D56869411C69612B2205E0C0073A
:1034400004D56869411C696120223254686930449E
:10345000E8602146284600F0C4F992E005F13A02FE
:10346000507820B14FF0FF340FF6540062E010782E
:10347000622808D0682824D06A2812D06C282ED060
:1034800071280ED02BE00A680A6052F8040B0A601B
:1034900020B94FF0FF340FF640004BE0E96A0170AD
:1034A0006FE00A680A6052F8040B0A6020B94FF016
:1034B000FF340FF624003DE0EA6AD317C0E9002389
:1034C0005FE00A680A6052F8040B0A6020B94FF006
:1034D000FF340FF604002DE0E96A018051E00A682C
:1034E0000A6052F8040B0A6020B94FF0FF340FF263
:1034F000E8701FE0E96A016043E00A680A6052F878
:10350000040B0A60002120F0000221F0FF33C5E91E
:103510000023EE607821284600F0BBF831E008680F
:10352000086050F8044B0860EC603CB94FF0FF3481
:103530000FF2BC7000F000FC201A70BD2E6B002E44
:1035400004D5204600F018FC044608E0324600216D
:10355000204600F02DFC002814BF041B3446AC614B
:103560000FE06869411C69612522325409E06969EC
:10357000481C686125227254210002D0431C6B61F3
:103580003454002070BD2DE9FC410F46064690469C
:103590007A6B7869396ABC6A121AB869521A796A00
:1035A000121AF869521A121A97F83800141B4107B8
:1035B0000FD42020002C8DF800000ADD25460123C1
:1035C0006A463946304600F05FFB00285DD16D1E2B
:1035D000F5D17B6942463946304600F055FB00285C
:1035E00053D130208DF800003D6A002D09DD012304
:1035F0006A463946304600F047FB002845D16D1E2B
:10360000F5D1BB69FA683946304600F03DFB002829
:103610003BD130208DF800007D6A002D08DD0123AC
:103620006A463946304600F02FFB70BB6D1EF6D15E
:10363000F868B969FB6942183946304600F024FB46
:1036400018BB30208DF80000BD6A002D08DD012375
:103650006A463946304600F017FBB0B96D1EF6D108
:1036600097F8380041070DD52020002C8DF8000078
:1036700008DD01236A463946304600F005FB20B9D3
:10368000641EF6D10020BDE8F6814FF0FF30BDE8A2
:10369000F6812DE9FC4307466F293E6908BF0824DF
:1036A00005D041F02000782814BF0A2410243C25BE
:1036B000D7E90023642918BF69299046994605D1A6
:1036C000002B03D5D8F1000869EB4909B9F1000FC7
:1036D00008BFB8F1000F1FD1386BE8B9082C4CD1E6
:1036E00097F83800010748D530203B2586F83B0085
:1036F00043E000280ED597F8380000F01400102899
:1037000008D17B6B7969386A5B1A1B1A9A1A002AEE
:10371000C8BF3A62BDE8F3838DF8001040464946C1
:103720002246E31700F070FB3032D0B26D1E3A280B
:10373000019504DB9DF80000A0F151018A18725533
:10374000404649462246E31700F05EFB80465FEAAA
:10375000010908BFB8F1000F03D0F8687119884259
:10376000DCD3082C09D197F83800010705D5705D26
:10377000302802D06D1E30207055C5F13C02BA6170
:103780007119F960386B8242B3DA821A3A624FF6E5
:10379000EF70398F01403987BDE8F3832DE9D043BD
:1037A00006460F4614464FF00008DFF8749212E008
:1037B000E00707D542464B4630463946FFF76AF8E0
:1037C00006460F464046494642464B46FFF762F8DA
:1037D000641080468946002CEAD130463946BDE85F
:1037E000D0832DE9F047064689468EB0D6E9000120
:1037F000CDE9020104AC306B002802D5062030630D
:1038000005E001BF49F02000672801213163D6E9B6
:10381000002358004015401C0DD119030BD0A9F10D
:10382000610103201A29B06102D20FF2E04110E0D9
:103830000FF2DC410DE059004915491C0ED1180367
:103840000CD1A9F1610103201A29B06116D30FF23E
:10385000C841F0680322FEF7A1FADBE023F000473D
:10386000B7F5801F1046194622F000050DD2002240
:10387000002F08BF002D019203D116E00FF29441F2
:10388000E7E701AA00F0D8FB08E06648664900EBCC
:10389000175001906548034010461943019B644D41
:1038A00047F29752534393FBF5F2C6E9000120F02B
:1038B000000331F0004104BF002B002300F0A28080
:1038C000DDE90240019220F00045D2F1070204DD5B
:1038D00020462946FFF762FF0AE052420020554980
:1038E000FFF75CFF02460B462046294600F0DCFB52
:1038F000044649F0200ABAF1660F306B06BF019DFD
:103900000A3506252D18142DC8BF142530208846E9
:103910008DF810000DF11107002D33DD20464146D2
:1039200000F0E6FC01460A4607F1080304200A27D6
:10393000B2FBF7F707EB870EA2EB4E02303203F82B
:10394000012C0A22B7FBF2F202EB820EA7EB4E0724
:103950003037401E03F8027DE9D1083D002D03F108
:103960000807D9DD084600F0D7FC02460B46204682
:103970004146FFF7B1FA00222F4BFEF78BFF0446BA
:103980008846CBE70DF111003F1A0DF1110404E058
:103990000198401E7F1E0190641C20783028F7D0CB
:1039A000BAF1660F02D10198401C04E0BAF1650F2C
:1039B0000CBF01200020336BC3189F42B8BF7B1E91
:1039C000002B1ED4BB4204DAE05C3528A8BF3920A6
:1039D00000DA30201946621E02EB010800E05B1E8F
:1039E00018F80179491E8742F9D0392802D1605C64
:1039F000401C6054002904D50198401C14465B1CEF
:103A00000190019800B200901BB222464946304610
:103A100000F014F80EB0BDE8F0870000CBCCCC0C61
:103A20000000244002FCFFFF0000E03FFFFF0F808A
:103A3000A08601000000F03F84D797412DE9F847A8
:103A400083B005468A469146984600F073FCB8F16B
:103A5000000F406A2F6B067803DC4FF001080FF26D
:103A6000BC294AF02000BDF93040662808BF641C1C
:103A700013D0672840F08F8014F1040F7ADBBC422A
:103A800078DA95F83800641C010702D4B845B8BF4D
:103A9000474620B23F1A48BF00270FFA84FAE86869
:103AA000A969BAF1000F23DC4A1C30234354002FCC
:103AB00003DC95F83800010702D5E8688654521CEB
:103AC00017EB0A0FB8BF7C4224B2E71960424745A2
:103AD000B8BFB846AA6168620FFA88F4EC61E8687A
:103AE000AB69224649461844FEF758F93F1B18E0D7
:103AF00022B29045084416DA42464946FEF74EF98E
:103B0000A8694044A861AAEB0801002F696203DCA0
:103B100095F838100A0704D5E9680E54E869401C86
:103B2000E861AF6299E04946FEF738F9A869002FCD
:103B30005044A8EB040803DC95F838100A0702D5B6
:103B4000E9680E54401CA8610FFA88F08742EB68C0
:103B5000A869B8BFB8460FFA88F209EB0A01184401
:103B6000FEF71CF9A9690FFA88F00144A961381A17
:103B7000686272E0B84504DA95F838100A0758BF51
:103B800047467F1E48BF0027BAF1670F0CBF4FF0B2
:103B9000650A4FF0450AA969EB68481CA861002F27
:103BA00019F8012B5A5403DC95F838100A0719D577
:103BB000E968431CAB610E54002F13DDA8F1010628
:103BC00030B28742D5F80CC0B8BF3E4632B2494643
:103BD0000CEB0300FEF7E2F8A86936B23018BF1B01
:103BE000A8616F62E868A9690844002C80F800A009
:103BF00003D42B224270811C03E02D2141706442CA
:103C0000811C00206A460AE023460A2493FBF4F450
:103C100004EB8406A3EB460302F8013B401C24B2EC
:103C2000002CF1DC012806DC4AF02002652A04BFE2
:103C3000302201F8012B48B9302001F8010B07E0D0
:103C4000401E1DF80030303301F8013B0028F7DC3E
:103C5000EA68A8691044091AE96195F8380000F08B
:103C6000140010280DD16A69A969686A8A18E9697F
:103C70008218A86A8A188218686B8242BCBF821AAE
:103C80002A6204B0BDE8F087F8B505460E4617462F
:103C90001C46002074B117F8011BB068A847B0603B
:103CA00030B1F06A401CF0620020641EF3D1F2BD16
:103CB0004FF0FF30F2BD0000686A6C747A4C00006F
:103CC0007072696E74665F733A20256E2064697342
:103CD000616C6C6F776564007072696E74663A200F
:103CE00062616420256E20617267756D656E740077
:103CF0007072696E74665F733A2062616420257326
:103D000020617267756D656E740000006E616E00F3
:103D10004E414E00696E6600494E4600300000007C
:103D2000C9B202788A421AB11CBF10F8012FF9E714
:103D300018BF00207047000080B500B906A00549F3
:103D40000B681BB122220021984701E000F0F6FA2F
:103D5000222002BD844CFF1F636F6E737472616911
:103D60006E742068616E646C65723A2062616420D2
:103D70006D6573736167650000F10103810704D00D
:103D800010F8011B820781B1FAD10268A2F101315A
:103D9000914311F0803104BF50F8042FF6E709BABF
:103DA000B1FA81F100EBD100401CC01A704700004D
:103DB000C9B2830706D0521E22D310F8013B9942A4
:103DC000F7D11FE0083A13D302F1040241EA0121BE
:103DD00041EA014150F8043B121F21BF4B40A3F1BF
:103DE000013C2CEA030C1CF0803FF3D0C9B2001F49
:103DF000083210F8013B521E28BF91EA030FF8D891
:103E000018BF0120401E7047BBBBE1B1B2F5803F37
:103E100080F07E80022A1ED98C46B1FBF2F102FBB3
:103E200011C31B0443EA1043B3FBF2FC02FB1C3337
:103E300080B240EA0343B3FBF2F002FB103240EAE7
:103E40000C4000237047022A05D98446B0FBF2F0EB
:103E500002FB10C270474AB105D100F001024908C7
:103E60005FEA3000704700220023704700F06ABA12
:103E70000B000200002100207047904271EB030C00
:103E8000F6D3B3F5803F2FD2F0B5B3FA83F7B1FA8A
:103E900081F4A7F10F0E3D1B5340CEF1200602FA2C
:103EA0000EF2F3415340B5F10F0746D80F3C2C44B6
:103EB0004140C4F12006A040F1414140B1FBF3F67E
:103EC00003FB1611A2FB0645001BA94102D2761E78
:103ED0008018594180EA010221FA0EF362FA0EF2CB
:103EE00000215A403046F0BD30B4B1FBF3FC03FB77
:103EF0001C11A2FB0C45001BA94103D2ACF1010C23
:103F00008018594130BC02460B466046002170477C
:103F1000B2F1807F65D3F0B5B2FA82F7B1FA81F4DD
:103F2000C7F10F063D1B22FA06F307F1110EF2410D
:103F300020355A40B5F10F07B8D94140C4F12006E9
:103F4000A040F1414140B1FBF3FC03FB1C11A2FB7B
:103F50000C45001BA94103D2BCF1010C801859414A
:103F60000F2F12D30F3FC90341EA5041B1FBF3F6C3
:103F700003FB1611A2FB0645D4EBC030A94102D2C7
:103F8000761E8018594146EACC3C07B34140C7F140
:103F90002006B840F1414140B1FBF3F603FB161196
:103FA000A2FB0645001BA94102D2761E801859418A
:103FB00080EA010221FA0EF3C7F1200462FA0EF240
:103FC0000CFA07F05A402CFA04F13043F0BD80EAB5
:103FD000010221FA0EF3002162FA0EF260465A4005
:103FE000F0BD8C46B1FBF2F102FB11C31B0243EAA8
:103FF0001063B3FBF2FC02FB1C331B024CEA0020F3
:1040000043EA1063B3FBF2FC02FB1C331B024CEAD5
:10401000002043EA1063B3FBF2FC02FB1C331B02DB
:104020004CEA002043EA1063B3FBF2FC02FB1C32B3
:104030004CEA00200023704710B5144600F002F847
:10404000226010BDC1F30A5343B14A0012F5001FAC
:1040500028D2A3F2FE32A1EB0251704750EA410C84
:1040600020D001F0004C31EA0C01B1FA81F204BF1A
:10407000B0FA80F3D2180B3AB2F120032CBF00FA49
:1040800003F1914041EA0C013EBFC2F1200C20FA3D
:104090000CF319439040524240F2FD33D21A01EB27
:1040A0000351704700227047F0B540F2FF7581EA76
:1040B000030C0CF0004C15EA11541DBF15EA135700
:1040C000AC42AF42E5E0BC41C1F31301C3F31303BB
:1040D000801A994143F4801304D2641E4000494180
:1040E00080185941C90241EA5051B1FBF3F603FB74
:1040F0001611A2FB0675D7EBC020A94102D2761E8D
:1041000080185941C90241EA5051B1FBF3FE03FB4B
:104110001E11A2FB0E75D7EBC020A94103D2AEF150
:10412000010E80185941890241EA9051760546EA0C
:104130008E2EB1FBF3F603FB1611A2FB0675D7EB2F
:104140008020A94102D2761E80185941C90241EA55
:1041500050514EEA060EB1FBF3F603FB1611A2FB1B
:104160000675D7EBC020A94102D2761E80185941AE
:10417000C90241EA5051B1FBF3F703FB1711A2FB4F
:104180000735D3EBC020A94167F100070CBF0042FF
:1041900047F0010766F3D5274FEA1E31B80814F53A
:1041A000806412DDBD0775F1004250EB0E5051EBFB
:1041B000045111F5801F5CBF41EA0C01F0BD4CF0C9
:1041C0007F6141F0E0410020F0BDBD076D0840EA8D
:1041D0000E5041F48011D4F10104B4F120060ADA42
:1041E000C4F120060200E04001FA06F3E140184362
:1041F000B24015430EE0342C13DCC6F1200445EA2E
:1042000040056D0820FA06F2154321FA06F0A14098
:104210000D43002175F1004250F1000051EB0C01FB
:10422000F0BD00205FEA0C01F0BDCFB992185B41F0
:10423000B3FA83F704BFB2FA82F6BF190B3FB7F1A6
:1042400020062FBF02FA06F3BB40C7F1200622FA70
:1042500006F638BF3343BA401CB1E419641E33E795
:104260007F4231F00041B1FA81F404BFB0FA80F628
:10427000A4190B3CB4F120062FBF00FA06F1A140AF
:10428000C4F1200620FA06F638BF3143A0403C1B9B
:104290001AE7AC421ABF05EA1357AF4212E050EAE0
:1042A00041061CBF52EA4306BFE750EA41073046C9
:1042B00061461CBF41EA0551F0BD52EA430C08BFFC
:1042C000C143F0BD00204FF4001616EB410F98BF1C
:1042D00016EB430F08BF16EB410F24BFC14305E0A7
:1042E00016EB430F0CBF61464CEA0551F0BD0000D0
:1042F000400D491840EA81200CD2490DA1F580619A
:10430000491C40F0004005DBD1F11F0154BFC840FB
:10431000C017704700207047014648B1B0FA80F1DD
:104320008840C91CC1F58461090501EBD021400515
:104330007047000000487047100DFF1F012000F07B
:1043400003B800007047000020210903263118201F
:10435000ABBEF9E72DE9F84300242000C0B20828DD
:1043600008DA0022012114F14000C0B2FEF7FEFC81
:10437000641CF2E7002201214920FEF7F7FC01222C
:1043800001214A20FEF7F2FC012201214B20FEF719
:10439000EDFC002201214C20FEF7E8FC0022012167
:1043A0004D20FEF7E3FC4FF4A0714920FEF740F8E2
:1043B0004FF4A0714A20FEF73BF84FF4A0714B2058
:1043C000FEF736F84FF4A0714C20FEF731F8DFF815
:1043D000000A00210160012101604FF4FA70FDF72D
:1043E000ECFEDFF8D85901202860DFF8D4690020FE
:1043F0003060DFF8D07900203860DFF8CC891120F8
:1044000088F80000DFF8C4990020C9F800000120F6
:10441000C9F80000012038607820FDF7CEFE0120A9
:1044200028600020306000203860B12088F800004B
:104430000020C9F800000120C9F800000120386000
:10444000012028600120306000203860052088F8B5
:1044500000000020C9F800000120C9F80000012078
:1044600038600120286001203060002038603A2048
:1044700088F800000020C9F800000120C9F80000F9
:104480000120386001202860012030600020386061
:104490003A2088F800000020C9F800000120C9F87F
:1044A00000000120386001202860002030600020DA
:1044B0003860B22088F800000020C9F80000012010
:1044C000C9F8000001203860012028600120306018
:1044D00000203860052088F800000020C9F800009E
:1044E0000120C9F800000120386001202860012067
:1044F0003060002038603A2088F800000020C9F8B9
:1045000000000120C9F80000012038600120286067
:1045100001203060002038603A2088F80000002038
:10452000C9F800000120C9F800000120386001200E
:1045300028600020306000203860B32088F8000038
:104540000020C9F800000120C9F8000001203860EF
:10455000012028600120306000203860052088F8A4
:1045600000000020C9F800000120C9F80000012067
:1045700038600120286001203060002038603A2037
:1045800088F800000020C9F800000120C9F80000E8
:104590000120386001202860012030600020386050
:1045A0003A2088F800000020C9F800000120C9F86E
:1045B00000000120386001202860012030600020C8
:1045C0003860052088F800000020C9F800000120AC
:1045D000C9F8000001203860012028600120306007
:1045E000002038603A2088F800000020C9F8000058
:1045F0000120C9F800000120386001202860012056
:104600003060002038603A2088F800000020C9F8A7
:1046100000000120C9F80000012038600120286056
:104620000020306000203860B42088F800000020AE
:10463000C9F800000120C9F80000012038600120FD
:1046400028600120306000203860072088F80000D2
:104650000020C9F800000120C9F8000001203860DE
:10466000012028600020306000203860C02088F8D9
:1046700000000020C9F800000120C9F80000012056
:104680003860012028600120306000203860282038
:1046900088F800000020C9F800000120C9F80000D7
:1046A000012038600120286001203060002038603F
:1046B000082088F800000020C9F800000120C9F88F
:1046C00000000120386001202860012030600020B7
:1046D0003860842088F800000020C9F8000001201C
:1046E000C9F80000012038600120286000203060F7
:1046F00000203860C12088F800000020C9F80000C0
:104700000120C9F800000120386001202860012044
:10471000306000203860C02088F800000020C9F810
:1047200000000120C9F80000012038600120286045
:104730000020306000203860C22088F8000000208F
:10474000C9F800000120C9F80000012038600120EC
:10475000286001203060002038600C2088F80000BC
:104760000020C9F800000120C9F8000001203860CD
:10477000012028600120306000203860002088F887
:1047800000000020C9F800000120C9F80000012045
:104790003860012028600020306000203860C3208D
:1047A00088F800000020C9F800000120C9F80000C6
:1047B000012038600120286001203060002038602E
:1047C0008C2088F800000020C9F800000120C9F8FA
:1047D00000000120386001202860012030600020A6
:1047E00038602A2088F800000020C9F80000012065
:1047F000C9F80000012038600120286000203060E6
:1048000000203860C42088F800000020C9F80000AB
:104810000120C9F800000120386001202860012033
:104820003060002038608A2088F800000020C9F835
:1048300000000120C9F80000012038600120286034
:104840000120306000203860EE2088F80000002051
:10485000C9F800000120C9F80000012038600120DB
:1048600028600020306000203860C52088F80000F3
:104870000020C9F800000120C9F8000001203860BC
:104880000120286001203060002038600C2088F86A
:1048900000000020C9F800000120C9F80000012034
:1048A0003860012028600020306000203860E0205F
:1048B00088F800000020C9F800000120C9F80000B5
:1048C000012038600120286001203060002038601D
:1048D000052088F800000020C9F800000120C9F870
:1048E0000000012038600120286001203060002095
:1048F00038601A2088F800000020C9F80000012064
:10490000C9F80000012038600120286001203060D3
:10491000002038600C2088F800000020C9F8000052
:104920000120C9F800000120386001202860012022
:104930003060002038600E2088F800000020C9F8A0
:1049400000000120C9F80000012038600120286023
:1049500001203060002038603A2088F800000020F4
:10496000C9F800000120C9F80000012038600120CA
:1049700028600120306000203860342088F8000072
:104980000020C9F800000120C9F8000001203860AB
:104990000120286001203060002038602D2088F838
:1049A00000000020C9F800000120C9F80000012023
:1049B00038600120286001203060002038602F20FE
:1049C00088F800000020C9F800000120C9F80000A4
:1049D000012038600120286001203060002038600C
:1049E0002D2088F800000020C9F800000120C9F837
:1049F0000000012038600120286001203060002084
:104A000038602A2088F800000020C9F80000012042
:104A1000C9F80000012038600120286001203060C2
:104A2000002038602F2088F800000020C9F800001E
:104A30000120C9F800000120386001202860012011
:104A40003060002038603C2088F800000020C9F861
:104A500000000120C9F80000012038600120286012
:104A60000120306000203860002088F8000000201D
:104A7000C9F800000120C9F80000012038600120B9
:104A800028600120306000203860012088F8000094
:104A90000020C9F800000120C9F80000012038609A
:104AA000012028600120306000203860022088F852
:104AB00000000020C9F800000120C9F80000012012
:104AC000386001202860012030600020386010200C
:104AD00088F800000020C9F800000120C9F8000093
:104AE00001203860012028600020306000203860FC
:104AF000E12088F800000020C9F800000120C9F872
:104B00000000012038600120286001203060002072
:104B10003860042088F800000020C9F80000012057
:104B2000C9F80000012038600120286001203060B1
:104B3000002038601B2088F800000020C9F8000021
:104B40000120C9F800000120386001202860012000
:104B50003060002038600D2088F800000020C9F87F
:104B600000000120C9F80000012038600120286001
:104B700001203060002038600E2088F800000020FE
:104B8000C9F800000120C9F80000012038600120A8
:104B9000286001203060002038602D2088F8000057
:104BA0000020C9F800000120C9F800000120386089
:104BB000012028600120306000203860292088F81A
:104BC00000000020C9F800000120C9F80000012001
:104BD00038600120286001203060002038602420E7
:104BE00088F800000020C9F800000120C9F8000082
:104BF00001203860012028600120306000203860EA
:104C0000292088F800000020C9F800000120C9F818
:104C10000000012038600120286001203060002061
:104C20003860282088F800000020C9F80000012022
:104C3000C9F80000012038600120286001203060A0
:104C400000203860262088F800000020C9F8000005
:104C50000120C9F8000001203860012028600120EF
:104C6000306000203860312088F800000020C9F84A
:104C700000000120C9F800000120386001202860F0
:104C800001203060002038603B2088F800000020C0
:104C9000C9F800000120C9F8000001203860012097
:104CA00028600120306000203860002088F8000073
:104CB0000020C9F800000120C9F800000120386078
:104CC000012028600120306000203860002088F832
:104CD00000000020C9F800000120C9F800000120F0
:104CE00038600120286001203060002038600320F7
:104CF00088F800000020C9F800000120C9F8000071
:104D000001203860012028600120306000203860D8
:104D1000122088F800000020C9F800000120C9F81E
:104D20000000012038600120286000203060002051
:104D300038603A2088F800000020C9F800000120FF
:104D4000C9F800000120386001202860012030608F
:104D500000203860052088F800000020C9F8000015
:104D60000120C9F8000001203860012028600020DF
:104D7000306000203860292088F800000020C9F841
:104D800000000120C9F800000120386001202860DF
:104D900000203060002038602C2088F800000020BF
:104DA000C9F800000120C9F8000001203860DFF8D0
:104DB000C807007800F00EF8BDE8F1832810FE4324
:104DC0003010FE432C10FE4380F00F402410FE43B1
:104DD0003410FE4370B504002000C0B2042804DB88
:104DE000C821DFF89807FDF72DFFDFF88C07047066
:104DF0002000C0B2002808D0022800F07C81C0F05A
:104E0000BF80032800F03082E2E2DFF8740701215E
:104E10000160DFF8701700220A60DFF86C270023BA
:104E20001360DFF8683736251D70DFF864570026F9
:104E30002E6001262E6001261660012606600126DE
:104E40000E6000261660C8261E7000262E60012601
:104E50002E60012616600126066000260E600026E0
:104E600016602A261E7000262E6001262E6001265E
:104E700016600126066001260E60002616600026D8
:104E80001E7000262E6001262E6001261660012667
:104E9000066001260E600026166002261E7000269F
:104EA0002E6001262E60012616600126066001266E
:104EB0000E600026166000261E7000262E60012659
:104EC0002E60012616600126066001260E6000266F
:104ED000166081261E7000262E6001262E60012697
:104EE00016600126066000260E60002616602B263E
:104EF0001E7000262E6001262E60012616600126F7
:104F0000066001260E600026166000261E70002630
:104F10002E6001262E6001261660012606600126FD
:104F20000E600026166003261E7000262E600126E5
:104F30002E60012616600126066001260E600026FE
:104F4000166000261E7000262E6001262E600126A7
:104F50001660012606600120086000201060822093
:104F60001870002028600120286001201060802037
:104F7000DFF8201608808020DFF81C16088027E262
:104F8000DFF8FC0501210160DFF8F81500220A6056
:104F9000DFF8F42500231360DFF8F03536251D70A7
:104FA000DFF8EC5500262E6001262E6001261660E3
:104FB0000126066001260E6000261660A8261E70D7
:104FC00000262E6001262E6001261660012606604E
:104FD00000260E60002616602A261E7000262E600F
:104FE00001262E60012616600126066001260E604D
:104FF0000026166000261E7000262E6001262E60F8
:10500000012616600126066001260E600026166045
:1050100003261E7000262E6001262E6001261660D3
:105020000126066001260E600026166000261E700E
:1050300000262E6001262E600126166001260660DD
:1050400001260E600026166082261E7000262E6045
:1050500001262E60012616600126066000260E60DD
:10506000002616602B261E7000262E6001262E605C
:10507000012616600126066001260E6000261660D5
:1050800000261E7000262E6001262E600126166066
:105090000126066001260E600026166002261E709C
:1050A00000262E6001262E6001261660012606606D
:1050B00001260E600026166000261E7000262E6057
:1050C00001262E6001261660012606600120086078
:1050D00000201060812018700020286001202860C6
:1050E000012010608020DFF8AC1408808020DFF8F9
:1050F000A81408806CE1DFF8880401210160DFF862
:10510000841400220A60DFF8802400231360DFF893
:105110007C3436251D70DFF8785400262E60012679
:105120002E60012616600126066001260E6000260C
:10513000166008261E7000262E6001262E600126AD
:1051400016600126066000260E60002616602A26DC
:105150001E7000262E6001262E6001261660012694
:10516000066001260E600026166000261E700026CE
:105170002E6001262E60012616600126066001269B
:105180000E600026166002261E7000262E60012684
:105190002E60012616600126066001260E6000269C
:1051A000166000261E7000262E6001262E60012645
:1051B00016600126066001260E6000261660812614
:1051C0001E7000262E6001262E6001261660012624
:1051D000066000260E60002616602B261E70002634
:1051E0002E6001262E60012616600126066001262B
:1051F0000E600026166000261E7000262E60012616
:105200002E60012616600126066001260E6000262B
:10521000166003261E7000262E6001262E600126D1
:1052200016600126066001260E6000261660002624
:105230001E7000262E6001262E60012616600126B3
:105240000660012008600020106082201870002095
:10525000286001202860012010608020CD4908804E
:105260008020CD490880B3E0C54801210160C549CF
:1052700000220A60C44A00231360C44B36251D7007
:10528000C34D00262E6001262E60012616600126E1
:10529000066001260E600026166068261E70002635
:1052A0002E6001262E60012616600126066000266B
:1052B0000E60002616602A261E7000262E6001262B
:1052C0002E60012616600126066001260E6000266B
:1052D000166000261E7000262E6001262E60012614
:1052E00016600126066001260E6000261660032661
:1052F0001E7000262E6001262E60012616600126F3
:10530000066001260E600026166000261E7000262C
:105310002E6001262E6001261660012606600126F9
:105320000E600026166082261E7000262E60012662
:105330002E60012616600126066000260E600026FB
:1053400016602B261E7000262E6001262E60012678
:1053500016600126066001260E60002616600026F3
:105360001E7000262E6001262E6001261660012682
:10537000066001260E600026166002261E700026BA
:105380002E6001262E600126166001260660012689
:105390000E600026166000261E7000262E60012674
:1053A0002E6001261660012606600120086000209C
:1053B00010608120187000202860012028600120E2
:1053C0001060802073490880802073490880FFE7BF
:1053D00070BD73B468480078C0070AD5BDF80000F6
:1053E000C01CADF80000BDF80200801CADF8020042
:1053F00009E0BDF80000801CADF80000BDF8020017
:10540000C01CADF802005E49012008605D4A002022
:1054100010605D4B002018605C4C2A2020705C4DB1
:105420000020286001202860012018600120086009
:105430000120106000201860BDF8000080B2000A52
:1054400020700020286001202860012018600120C1
:1054500008600120106000201860BDF80000207076
:1054600000202860012028600120186001200860C9
:105470000120106000201860BDF80000BDF8046035
:1054800016FA80F0401E00122070002028600120D3
:1054900028600120186001200860012010600020B1
:1054A0001860BDF80060BDF804008619701E2070F9
:1054B0000020286001202860012018600120086079
:1054C00000201060002018602B2020700020286031
:1054D0000120286001201860012008600120106070
:1054E00000201860BDF8020080B2000A2070002081
:1054F0002860012028600120186001200860012038
:10550000106000201860BDF80200207000202860A4
:10551000012028600120186001200860012010602F
:1055200000201860BDF80200BDF8066016FA80F091
:10553000401E0012207000202860012028600120F9
:105540001860012008600120106000201860BDF87C
:105550000210BDF806004118481E20700020286087
:10556000012028600120186073BC7047094800883A
:105570007047094800887047EC4CFF1F288B0000DB
:105580002810FE433010FE432C10FE4380F00F40E5
:105590002410FE43900DFF1F920DFF1F70B4C170C9
:1055A0000271002303700023437000238370C478CA
:1055B00003799C42C0F28A80DFF8505955F82430B4
:1055C000502B46D005EB840353F8043C502B40D0BD
:1055D00005EB84035B68502B3BD005EB840353F849
:1055E000083C502B35D055F824300B2B31DB05EB24
:1055F000840353F8043C0B2B2BDB05EB84035B6823
:105600000B2B26DB05EB840353F8083C0B2B20DB2C
:1056100055F8246005EB84035B68F61A012E53DA13
:1056200005EB840353F8046C55F82430F61A012E68
:105630004ADB05EB840353F8086C55F82430F61A5E
:10564000022E41DB047055F824304370012383702F
:105650003CE055F82430502B36D105EB840353F849
:10566000043C502B30D005EB84035B68502B2BD0CF
:1056700005EB840353F8083C502B25D005EB84033D
:105680009B68502B20D055F824300B2B1CDB05EBEE
:10569000840353F8043C0B2B16DB05EB84035B6897
:1056A0000B2B11DB05EB840353F8083C0B2B0BDBB6
:1056B00005EB84039B680B2B06DB047055F8243044
:1056C00043700123837001E0641E71E770BC704772
:1056D00070B40300D9701A7100201870002058703F
:1056E00000209870DC781879A04280F28B80DFF877
:1056F000285B55F82400002847D005EB840050F8BB
:10570000040C002841D005EB8400406800283CD000
:1057100005EB840050F8080C002836D055F824001A
:10572000462832DA05EB840050F8040C46282CDABF
:1057300005EB84004068462827DA05EB840050F822
:10574000080C462821DA55F8246005EB84004068EF
:10575000361A002E54D405EB840050F8046C55F82A
:105760002400361A002E4BD505EB840050F8086C47
:1057700055F82400361A16F1010F41DA1C7055F85D
:1057800024005870012098703CE055F8240000284F
:1057900036D105EB840050F8040C002830D005EB1E
:1057A0008400406800282BD005EB840050F8080CDA
:1057B000002825D005EB84008068002820D055F80B
:1057C000240046281CDA05EB840050F8040C462817
:1057D00016DA05EB84004068462811DA05EB8400F0
:1057E00050F8080C46280BDA05EB84008068462840
:1057F00006DA1C7055F8240058700120987001E0FA
:10580000641E70E770BC70472DE9F8430400002067
:1058100020700020A070002060700020E070DFF891
:10582000FC89192239214046FFF7B8FEDFF8F099CC
:10583000192239214846FFF74BFFDFF8E819C878ED
:10584000002840F05C814878002840F05881DFF85B
:10585000D8090068072807DBDFF8D0090068192895
:1058600002DA012020704AE198F80200002800F0D6
:10587000A18099F80200002840F09C8098F8000070
:10588000352880F29780DFF8A809DFF8A8190A68A0
:1058900003689A4206DADFF8A029126803689A4280
:1058A000C0F2888000221600502E05DA0022DFF8B0
:1058B0008C399A55761CF7E7DFF87C290368D2F813
:1058C00000C0634507DB0368D1F800C0634502DB15
:1058D0002820050016E00368D2F800C0634507DA07
:1058E0000B68D2F800C0634502DA1E20050009E00B
:1058F00000680B68984205DA10680968884201DA86
:105900001420050098F801108D422BDA98F8000059
:105910000600DFF82C090068B04221DADFF82429FC
:10592000502303FB06F01044405CFF2816D103FB14
:1059300006F01044084410F8500C00280ED103FB68
:1059400006F302EB0300084410F8A00C002805D170
:105950003000401EDFF8E428505401E0761ED8E7FE
:10596000491ED1E798F80170BD4280F2C880DFF887
:10597000CC18C85D00281BD001EB070010F8010C03
:10598000002815D001EB07004078002810D0CA5D30
:1059900001EB07004078121A002A09D4CA5D01EB16
:1059A000070010F8010C121A002A01D50120A0707E
:1059B0007F1ED9E798F80200002840F0A08099F8EF
:1059C0000200002800F09B8099F80000352880F242
:1059D0009680DFF87408DFF8581802680B689A425E
:1059E00006DADFF8682812680B689A42C0F28780EE
:1059F00000221600502E05DA0022DFF824399A55CD
:105A0000761CF7E7DFF844280B68D2F800C063453E
:105A100007DB0B68D0F800C0634502DB28200500D7
:105A200016E00B68D2F800C0634507DA0368D2F8C5
:105A300000C0634502DA3220050009E00968036806
:105A4000994205DA11680068814201DA3C200500BC
:105A500099F80110A9422BDA99F800000600DFF846
:105A6000E0070068B04221DADFF8D827502303FBB3
:105A700006F01044405CFF2816D103FB06F01044EA
:105A8000084410F8500C00280ED103FB06F302EB7B
:105A90000300084410F8A00C002805D13000401E77
:105AA000DFF87C28505401E0761ED8E7491CD1E786
:105AB00099F80170AF4222DADFF86418C85D002857
:105AC0001BD001EB070010F8010C002815D001EBEA
:105AD00007004078002810D0CA5D01EB070040782D
:105AE000121A012A09DACA5D01EB070010F8010C4D
:105AF000121A012A01DB012060707F1CDAE7BDE881
:105B0000F18370B4DFF81C4800202070DFF81838EB
:105B100000201870DFF81428002010700020DFF833
:105B200010582870DFF80C58287800286ED0DFF85D
:105B3000E866D6F8E80000280BD0D6F8E400002884
:105B400007D0D6F8E000002803D0D6F8DC00002803
:105B500011D1DFF8B803D0F8E860502E54D0D0F857
:105B6000E460502E50D0D0F8E060502E4CD0D0F8E9
:105B7000DC00502848D0DFF8A856A878002807D0C5
:105B8000DFF898068078002802D1012020703DE0DF
:105B9000A878002807D1DFF884068078002802D092
:105BA0000120187032E0A878002807D0DFF86C06D2
:105BB0008078002802D00120107027E039200100F1
:105BC000DFF868060068884220DADFF80C28535CAA
:105BD00002EB010010F8010C1B1A012B06DB535CD1
:105BE00002EB010010F8010C181A05E002EB0100AD
:105BF00010F8013C505C181A032803DB02EB01008B
:105C000040785054491EDBE70120E87070BC7047B3
:105C1000F0B40100DFF808369878002873D0DFF878
:105C2000FC45A07800286ED0DFF8FC050068042849
:105C300069DADFF8A8070078002864D11D78207899
:105C40002D1A012D03DB1D782078281A02E0257813
:105C50001878281A082851DADFF8DC56DFF8B8651A
:105C6000187806EB800050F8047C207805EB800063
:105C700050F8040C3F1A012F0BDB187806EB80005C
:105C800050F8040C277805EB870757F8047CC71BEE
:105C90000AE0207805EB800050F8040C1F7806EB32
:105CA000870757F8047CC71B187856F820C020785F
:105CB00055F82000BCEB000CBCF1010F07DB187895
:105CC00056F82030207855F82000181A06E0207881
:105CD00055F82040187856F82000201A87420DDB2E
:105CE000DFF8FC0603785B1C03700378022BC0F21C
:105CF0000B8101230B700023037005E10020DFF806
:105D0000E036187000E1987800287DD0DFF80C05A7
:105D10008078002878D1DFF810050068022873DA4F
:105D2000DFF8C006006803286EDADFF8BC060068FA
:105D3000052869DBDFF80006D0F8E040502C63D07E
:105D4000D0F8DC40502C5FD0D0F8D840502C5BD03D
:105D5000D0F8D400502857D01878C01E0200DFF8C1
:105D6000CC040068904280F2CF80DFF8AC4454F855
:105D70002200002846D004EB820050F8040C0028D2
:105D800040D004EB8200406800283BD004EB820046
:105D900050F8080C002835D054F822005D78A8424D
:105DA00030DA04EB820050F8040C5D78A84229DA5E
:105DB00004EB820040685D78A84223DA04EB82009D
:105DC00050F8080C5D78A8421CDA54F8225004EB15
:105DD000820040682D1A012D14DA04EB820050F87D
:105DE000045C54F822002D1A012D0BDB04EB820019
:105DF00050F8085C54F822002D1A022D02DB012015
:105E0000487081E0521EAAE7987800287CD1DFF81C
:105E10000C349878002877D0DFF80C04006802284A
:105E200072DADFF8C405006803286DDADFF8B4051C
:105E30000068052868DBDFF8E043D4F8E0000028BC
:105E400062D0D4F8DC0000285ED0D4F8D800002856
:105E50005AD0D4F8D400002856D01878C01E0200BA
:105E6000DFF8C803006890424EDADFF8CC4454F8FB
:105E70002200502846D004EB820050F8040C502831
:105E800040D004EB8200406850283BD004EB8200F5
