:10000000F8FF002011040000AF190000AF19000034
:10001000AF190000AF190000AF190000AF190000C0
:10002000AF190000AF190000AF190000AF190000B0
:10003000AF190000AF190000AF190000AF190000A0
:10004000AF190000AF190000AF190000AF19000090
:10040000FFFFFFFFFFFFFFFFFFFFFFFFFEFFFFFFFD
:1004100062B606F085FEFEE72DE9F84300242000D1
:10042000C0B2082808DA0022012114F14000C0B24D
:1004300001F016F9641CF2E700220121492001F0C5
:100440000FF9012201214A2001F00AF901220121BC
:100450004B2001F005F9002201214C2001F000F9A8
:10046000002201214D2001F0FBF84FF4A07149203A
:1004700001F092F94FF4A0714A2001F08DF94FF488
:10048000A0714B2001F088F94FF4A0714C2001F0CD
:1004900083F9DFF8000A00210160012101604FF4B7
:1004A000FA7001F0EEF9DFF8D85901202860DFF882
:1004B000D46900203060DFF8D07900203860DFF8A0
:1004C000CC89112088F80000DFF8C4990020C9F811
:1004D00000000120C9F8000001203860782001F0F8
:1004E000D0F9012028600020306000203860B12061
:1004F00088F800000020C9F800000120C9F80000B9
:100500000120386001202860012030600020386020
:10051000052088F800000020C9F800000120C9F873
:100520000000012038600120286001203060002098
:1005300038603A2088F800000020C9F80000012047
:10054000C9F80000012038600120286001203060D7
:10055000002038603A2088F800000020C9F8000028
:100560000120C9F800000120386001202860002027
:10057000306000203860B22088F800000020C9F800
:1005800000000120C9F80000012038600120286027
:100590000120306000203860052088F8000000202D
:1005A000C9F800000120C9F80000012038600120CE
:1005B000286001203060002038603A2088F8000070
:1005C0000020C9F800000120C9F8000001203860AF
:1005D0000120286001203060002038603A2088F82F
:1005E00000000020C9F800000120C9F80000012027
:1005F0003860012028600020306000203860B3207F
:1006000088F800000020C9F800000120C9F80000A7
:10061000012038600120286001203060002038600F
:10062000052088F800000020C9F800000120C9F862
:100630000000012038600120286001203060002087
:1006400038603A2088F800000020C9F80000012036
:10065000C9F80000012038600120286001203060C6
:10066000002038603A2088F800000020C9F8000017
:100670000120C9F800000120386001202860012015
:10068000306000203860052088F800000020C9F89C
:1006900000000120C9F80000012038600120286016
:1006A00001203060002038603A2088F800000020E7
:1006B000C9F800000120C9F80000012038600120BD
:1006C000286001203060002038603A2088F800005F
:1006D0000020C9F800000120C9F80000012038609E
:1006E000012028600020306000203860B42088F8A5
:1006F00000000020C9F800000120C9F80000012016
:100700003860012028600120306000203860072018
:1007100088F800000020C9F800000120C9F8000096
:1007200001203860012028600020306000203860FF
:10073000C02088F800000020C9F800000120C9F896
:100740000000012038600120286001203060002076
:100750003860282088F800000020C9F80000012037
:10076000C9F80000012038600120286001203060B5
:1007700000203860082088F800000020C9F8000038
:100780000120C9F800000120386001202860012004
:10079000306000203860842088F800000020C9F80C
:1007A00000000120C9F80000012038600120286005
:1007B0000020306000203860C12088F80000002050
:1007C000C9F800000120C9F80000012038600120AC
:1007D00028600120306000203860C02088F80000C8
:1007E0000020C9F800000120C9F80000012038608D
:1007F000012028600020306000203860C22088F886
:1008000000000020C9F800000120C9F80000012004
:1008100038600120286001203060002038600C2002
:1008200088F800000020C9F800000120C9F8000085
:1008300001203860012028600120306000203860ED
:10084000002088F800000020C9F800000120C9F845
:100850000000012038600120286000203060002066
:100860003860C32088F800000020C9F8000001208B
:10087000C9F80000012038600120286001203060A4
:10088000002038608C2088F800000020C9F80000A3
:100890000120C9F8000001203860012028600120F3
:1008A0003060002038602A2088F800000020C9F855
:1008B00000000120C9F800000120386001202860F4
:1008C0000020306000203860C42088F8000000203C
:1008D000C9F800000120C9F800000120386001209B
:1008E000286001203060002038608A2088F80000ED
:1008F0000020C9F800000120C9F80000012038607C
:10090000012028600120306000203860EE2088F847
:1009100000000020C9F800000120C9F800000120F3
:100920003860012028600020306000203860C52039
:1009300088F800000020C9F800000120C9F8000074
:1009400001203860012028600120306000203860DC
:100950000C2088F800000020C9F800000120C9F828
:100960000000012038600120286000203060002055
:100970003860E02088F800000020C9F8000001205D
:10098000C9F8000001203860012028600120306093
:1009900000203860052088F800000020C9F8000019
:1009A0000120C9F8000001203860012028600120E2
:1009B0003060002038601A2088F800000020C9F854
:1009C00000000120C9F800000120386001202860E3
:1009D00001203060002038600C2088F800000020E2
:1009E000C9F800000120C9F800000120386001208A
:1009F000286001203060002038600E2088F8000058
:100A00000020C9F800000120C9F80000012038606A
:100A10000120286001203060002038603A2088F8EA
:100A200000000020C9F800000120C9F800000120E2
:100A300038600120286001203060002038603420B8
:100A400088F800000020C9F800000120C9F8000063
:100A500001203860012028600120306000203860CB
:100A60002D2088F800000020C9F800000120C9F8F6
:100A70000000012038600120286001203060002043
:100A800038602F2088F800000020C9F800000120FD
:100A9000C9F8000001203860012028600120306082
:100AA000002038602D2088F800000020C9F80000E0
:100AB0000120C9F8000001203860012028600120D1
:100AC0003060002038602A2088F800000020C9F833
:100AD00000000120C9F800000120386001202860D2
:100AE00001203060002038602F2088F800000020AE
:100AF000C9F800000120C9F8000001203860012079
:100B0000286001203060002038603C2088F8000018
:100B10000020C9F800000120C9F800000120386059
:100B2000012028600120306000203860002088F813
:100B300000000020C9F800000120C9F800000120D1
:100B400038600120286001203060002038600120DA
:100B500088F800000020C9F800000120C9F8000052
:100B600001203860012028600120306000203860BA
:100B7000022088F800000020C9F800000120C9F810
:100B80000000012038600120286001203060002032
:100B90003860102088F800000020C9F8000001200B
:100BA000C9F8000001203860012028600020306072
:100BB00000203860E12088F800000020C9F800001B
:100BC0000120C9F8000001203860012028600120C0
:100BD000306000203860042088F800000020C9F848
:100BE00000000120C9F800000120386001202860C1
:100BF00001203060002038601B2088F800000020B1
:100C0000C9F800000120C9F8000001203860012067
:100C1000286001203060002038600D2088F8000036
:100C20000020C9F800000120C9F800000120386048
:100C30000120286001203060002038600E2088F8F4
:100C400000000020C9F800000120C9F800000120C0
:100C500038600120286001203060002038602D209D
:100C600088F800000020C9F800000120C9F8000041
:100C700001203860012028600120306000203860A9
:100C8000292088F800000020C9F800000120C9F8D8
:100C90000000012038600120286001203060002021
:100CA0003860242088F800000020C9F800000120E6
:100CB000C9F8000001203860012028600120306060
:100CC00000203860292088F800000020C9F80000C2
:100CD0000120C9F8000001203860012028600120AF
:100CE000306000203860282088F800000020C9F813
:100CF00000000120C9F800000120386001202860B0
:100D00000120306000203860262088F80000002094
:100D1000C9F800000120C9F8000001203860012056
:100D200028600120306000203860312088F8000001
:100D30000020C9F800000120C9F800000120386037
:100D40000120286001203060002038603B2088F8B6
:100D500000000020C9F800000120C9F800000120AF
:100D600038600120286001203060002038600020B9
:100D700088F800000020C9F800000120C9F8000030
:100D80000120386001202860012030600020386098
:100D9000002088F800000020C9F800000120C9F8F0
:100DA0000000012038600120286001203060002010
:100DB0003860032088F800000020C9F800000120F6
:100DC000C9F800000120386001202860012030604F
:100DD00000203860122088F800000020C9F80000C8
:100DE0000120C9F80000012038600120286000209F
:100DF0003060002038603A2088F800000020C9F8F0
:100E000000000120C9F8000001203860012028609E
:100E10000120306000203860052088F800000020A4
:100E2000C9F800000120C9F8000001203860012045
:100E300028600020306000203860292088F80000F9
:100E40000020C9F800000120C9F800000120386026
:100E50000120286000203060002038602C2088F8B5
:100E600000000020C9F800000120C9F8000001209E
:100E70003860DFF8C807007800F00EF8BDE8F183AD
:100E80002810FE433010FE432C10FE4380F00F402C
:100E90002410FE433410FE4370B504002000C0B29D
:100EA000042804DBC821DFF8980700F015FDDFF8FF
:100EB0008C0704702000C0B2002808D0022800F07F
:100EC0007C81C0F0BF80032800F03082E2E2DFF8CE
:100ED000740701210160DFF8701700220A60DFF853
:100EE0006C2700231360DFF8683736251D70DFF8A4
:100EF000645700262E6001262E600126166001260A
:100F0000066001260E6000261660C8261E700026A8
:100F10002E6001262E60012616600126066000263E
:100F20000E60002616602A261E7000262E600126FE
:100F30002E60012616600126066001260E6000263E
:100F4000166000261E7000262E6001262E600126E7
:100F500016600126066001260E6000261660022635
:100F60001E7000262E6001262E60012616600126C6
:100F7000066001260E600026166000261E70002600
:100F80002E6001262E6001261660012606600126CD
:100F90000E600026166081261E7000262E60012637
:100FA0002E60012616600126066000260E600026CF
:100FB00016602B261E7000262E6001262E6001264C
:100FC00016600126066001260E60002616600026C7
:100FD0001E7000262E6001262E6001261660012656
:100FE000066001260E600026166003261E7000268D
:100FF0002E6001262E60012616600126066001265D
:101000000E600026166000261E7000262E60012647
:101010002E6001261660012606600120086000206F
:1010200010608220187000202860012028600120B4
:1010300010608020DFF8201608808020DFF81C1662
:10104000088027E2DFF8FC0501210160DFF8F815D0
:1010500000220A60DFF8F42500231360DFF8F03582
:1010600036251D70DFF8EC5500262E6001262E6017
:10107000012616600126066001260E600026166015
:10108000A8261E7000262E6001262E6001261660FE
:101090000126066000260E60002616602A261E70B5
:1010A00000262E6001262E600126166001260660AD
:1010B00001260E600026166000261E7000262E6097
:1010C00001262E60012616600126066001260E60AC
:1010D0000026166003261E7000262E6001262E6054
:1010E000012616600126066001260E6000261660A5
:1010F00000261E7000262E6001262E600126166036
:101100000126066001260E600026166082261E70EB
:1011100000262E6001262E6001261660012606603C
:1011200000260E60002616602B261E7000262E60FC
:1011300001262E60012616600126066001260E603B
:101140000026166000261E7000262E6001262E60E6
:10115000012616600126066001260E600026166034
:1011600002261E7000262E6001262E6001261660C3
:101170000126066001260E600026166000261E70FD
:1011800000262E6001262E600126166001260660CC
:101190000120086000201060812018700020286065
:1011A00001202860012010608020DFF8AC14088046
:1011B0008020DFF8A81408806CE1DFF888040121A2
:1011C0000160DFF8841400220A60DFF88024002325
:1011D0001360DFF87C3436251D70DFF87854002664
:1011E0002E6001262E60012616600126066001266B
:1011F0000E600026166008261E7000262E6001264E
:101200002E60012616600126066000260E6000266C
:1012100016602A261E7000262E6001262E600126EA
:1012200016600126066001260E6000261660002664
:101230001E7000262E6001262E60012616600126F3
:10124000066001260E600026166002261E7000262B
:101250002E6001262E6001261660012606600126FA
:101260000E600026166000261E7000262E600126E5
:101270002E60012616600126066001260E600026FB
:10128000166081261E7000262E6001262E60012623
:1012900016600126066000260E60002616602B26CA
:1012A0001E7000262E6001262E6001261660012683
:1012B000066001260E600026166000261E700026BD
:1012C0002E6001262E60012616600126066001268A
:1012D0000E600026166003261E7000262E60012672
:1012E0002E60012616600126066001260E6000268B
:1012F000166000261E7000262E6001262E60012634
:10130000166001260660012008600020106082201F
:1013100018700020286001202860012010608020C3
:10132000CD4908808020CD490880B3E0C54801211F
:101330000160C54900220A60C44A00231360C44BFF
:1013400036251D70C34D00262E6001262E60012615
:1013500016600126066001260E60002616606826CB
:101360001E7000262E6001262E60012616600126C2
:10137000066000260E60002616602A261E700026D3
:101380002E6001262E6001261660012606600126C9
:101390000E600026166000261E7000262E600126B4
:1013A0002E60012616600126066001260E600026CA
:1013B000166003261E7000262E6001262E60012670
:1013C00016600126066001260E60002616600026C3
:1013D0001E7000262E6001262E6001261660012652
:1013E000066001260E600026166082261E7000260A
:1013F0002E6001262E60012616600126066000265A
:101400000E60002616602B261E7000262E60012618
:101410002E60012616600126066001260E60002659
:10142000166000261E7000262E6001262E60012602
:1014300016600126066001260E6000261660022650
:101440001E7000262E6001262E60012616600126E1
:10145000066001260E600026166000261E7000261B
:101460002E6001262E6001261660012606600120EE
:101470000860002010608120187000202860012082
:101480002860012010608020734908808020734903
:101490000880FFE770BD73B468480078C0070AD5BC
:1014A000BDF80000C01CADF80000BDF80200801CB3
:1014B000ADF8020009E0BDF80000801CADF80000A6
:1014C000BDF80200C01CADF802005E4901200860B2
:1014D0005D4A002010605D4B002018605C4C2A20A3
:1014E00020705C4D002028600120286001201860D9
:1014F000012008600120106000201860BDF8000085
:1015000080B2000A2070002028600120286001209D
:101510001860012008600120106000201860BDF8EC
:101520000000207000202860012028600120186041
:10153000012008600120106000201860BDF8000044
:10154000BDF8046016FA80F0401E001220700020E2
:101550002860012028600120186001200860012017
:10156000106000201860BDF80060BDF80400861906
:10157000701E207000202860012028600120186063
:101580000120086000201060002018602B202070CF
:1015900000202860012028600120186001200860D8
:1015A0000120106000201860BDF8020080B2000A1F
:1015B0002070002028600120286001201860012090
:1015C00008600120106000201860BDF80200207043
:1015D0000020286001202860012018600120086098
:1015E0000120106000201860BDF80200BDF8066000
:1015F00016FA80F0401E00122070002028600120A2
:10160000286001201860012008600120106000207F
:101610001860BDF80210BDF806004118481E207081
:1016200000202860012028600120186073BC7047EA
:10163000094800887047094800887047754AFF1FAD
:10164000387400002810FE433010FE432C10FE4377
:1016500080F00F402410FE438C0CFF1F8E0CFF1FE8
:10166000F8B504000D0016004FF480712000C0B2E0
:1016700000F092F8280040B2002812D1444821001E
:10168000C9B2491150F821102200D2B2521150F8BB
:1016900022004269012314F01F0083409A434A61EB
:1016A00038E001213A4A2000C0B2401152F820002F
:1016B0002300DBB25B1152F823305B6914F01F0783
:1016C00011FA07F73B4343613000C0B2002811D143
:1016D0002000C0B2401152F82000036814F01F002F
:1016E000814033EA01012000C0B2401152F82000CD
:1016F00001600FE02000C0B2401152F820000368E2
:1017000014F01F00814019432000C0B2401152F86C
:1017100020000160F1BD38B504001D4D2000C0B2AD
:10172000401155F82000406914F01F01C840C0075F
:1017300003D47B21174800F0CFF82000C0B240113D
:1017400055F82010012214F01F008240CA6031BDFC
:1017500038B504000E4D2000C0B2401155F82000ED
:10176000406914F01F01C840C00703D58C21094807
:1017700000F0B2F82000C0B2401155F82000006916
:1017800014F01F04E04010F0010032BD0000000022
:10179000300BFF1F4C75000030B42B4B1C684FF40E
:1017A00000750200D2B2520995402C431C60274BB1
:1017B0000200D2B2521153F82240012510F01F024C
:1017C0009540C4F8A0500200D2B2521153F8222022
:1017D0000300DBB213F01F0342F8231030BC704744
:1017E00030B4194B1C684FF400750200D2B2520994
:1017F00095402C431C60154B0200D2B2521153F895
:101800002240012510F01F029540C4F8A05031F489
:10181000E0610200D2B2521153F822200400E4B277
:1018200014F01F0452F8242012F4E0621143020065
:10183000D2B2521153F822200300DBB213F01F037F
:1018400042F8231030BC7047388004408C0BFF1FD7
:1018500010B50400002C13D0B4F1807F03D32921EC
:101860000E4800F039F80E48002101600D490C6067
:1018700000210D4A1160052101600168C903FCD5F2
:1018800010BD10B504002000441E002804D00748F5
:101890000068FFF7DDFFF6E710BD0000AC74000044
:1018A00010E000E014E000E018E000E0104AFF1F44
:1018B000DFF800F0C10CFF1FDFF800F0EB0CFF1F9A
:1018C000BFF34F8F46490A6812F4E062454802436D
:1018D0000A60BFF34F8FFEE738B504000D0000200B
:1018E00000F08EF82A0021003F4800F0C9F80020DF
:1018F00000F0A6F84FF47A70FFF7C3FFF2E738B5AF
:1019000004000D00210049B2042000F0E4F9200099
:1019100032BD10B50024042000F024FA042000F0A9
:101920005BFA002842D1002000F06AF8042000F0A1
:1019300053FA012801D101200400002000F080F8B2
:101940002A4800F09DF84FF4FA70FFF79AFF200044
:10195000C0B20128EAD1042000F03EFA0028E5D107
:10196000042000F039FA002806D1002000F068F8C1
:101970006420FFF786FFF3E7042000F02DFA01282A
:1019800006D1002000F05CF83220FFF77AFFF3E781
:10199000174800F075F8FFF78BFF6420FFF771FF21
:1019A0000020FFF789FFFFF78BFFBFE710BD10B5E1
:1019B00010480468012000F023F8012000F040F8EE
:1019C0000D492200D2B20F2042430A442100C9B27D
:1019D0000A4800F055F84FF47A70FFF752FFECE731
:1019E0000CED00E00400FA050C760000B47600006F
:1019F0004076000004ED00E01C04FF1FFC730000B3
:101A000010B50400200040B2042808DA01220121A8
:101A10001A4823005BB2C05CFFF722FE0FE00420EF
:101A200004002000441E40B2002808D001220121F9
:101A3000124823005BB2C05CFFF712FEF1E710BD55
:101A400010B50400200040B2042806DA0B4821003B
:101A500049B2405CFFF75FFE0DE004200400200067
:101A6000441E40B2002806D00448210049B2405C20
:101A7000FFF751FEF3E710BD00000000080CFF1F48
:101A80000EB4C0B5024603A800210190009101AB3D
:101A90000121044878440C3000F0B6F906BC5DF82A
:101AA00010FB00BFEF5B0000012210F01F018A4015
:101AB000DFF8941203005BB25B0941F82320704702
:101AC0002DE9F84304000D00200040B2002808D0A2
:101AD000022828D016D3042847D035D3052855D05E
:101AE00065E0DFF86802016851F4806101604FF43D
:101AF00040716620FFF750FE4FF440716720FFF7FA
:101B00004BFE54E0DFF84402016851F400610160CB
:101B10004FF440714320FFF73FFE4FF440714420E3
:101B2000FFF73AFE43E0DFF82402016851F48051E8
:101B300001604FF440716320FFF72EFE4FF44071B7
:101B40006220FFF729FE32E0DFF80002016851F45D
:101B5000005101604FF440715020FFF71DFE4FF41B
:101B600040715120FFF718FE21E0DFF8E401016821
:101B700051F4806101604FF440714E20FFF70CFE7C
:101B80004FF440714F20FFF707FE10E0DFF8C0016F
:101B9000016851F4006101604FF440718920FFF742
:101BA000FBFD4FF440718820FFF7F6FDFFE7DFF8FB
:101BB000A461200040B256F82000C07810F0F30075
:101BC000210049B256F82110C870200040B256F8E2
:101BD00020008078210049B256F82110887020003A
:101BE00040B2002803D0200040B2012806D1DFF81F
:101BF000680107684FF47A70474305E0DFF85C013D
:101C000007684FF47A7047432801B7FBF0F8404665
:101C100080B2B0F5005F02DB41F6FF708046B7FB93
:101C2000F5F9404680B2B9EB0019484680B2202849
:101C300003DBDC214A48FFF74FFE200040B256F894
:101C40002000007810F0E000C8F3042101432200D6
:101C500052B256F822201170210049B256F82110D4
:101C600081F80180210049B256F82110897A11F0DB
:101C7000E00119F01F020A4323005BB256F823303B
:101C80009A72220052B256F82220127C52F0880238
:101C900023005BB256F823301A74220052B256F871
:101CA0002220D27852F00C0223005BB256F8233087
:101CB000DA70BDE8F183274A03005BB252F82330A3
:101CC0001B799B06F7D503005BB252F8232092F9EB
:101CD00007200A7070471F4A03005BB252F8233096
:101CE0001B791B06F7D503005BB252F82320D17194
:101CF000704770B504000D0016003000461E002825
:101D000009D095F90000010049B2200040B2FFF768
:101D1000E2FF6D1CF1E770BD10B504000D48210015
:101D200049B250F82110C97851F02001220052B276
:101D300050F82200C170200040B240002D3040B267
:101D4000FFF7B2FE10BD000000E100E03480044067
:101D500028800440A00BFF1F104AFF1F184AFF1FD6
:101D60008075000038B50400200040B208280EDA63
:101D7000244D00220021200040B2285CFFF770FCB7
:101D80000321200040B2285CFFF72AFD15E008205F
:101D900004002000441E40B200280ED0194D00223D
:101DA0000021200040B2285CFFF75AFC03212000EC
:101DB00040B2285CFFF714FDEBE731BD10B504001D
:101DC0001048210049B2405CFFF7C2FC002801D155
:101DD000002000E0012010BD10B50400200040B23A
:101DE000FFF7ECFF00280AD10A20FFF74AFD200088
:101DF00040B2FFF7E3FF002801D1002000E00120FE
:101E000010BD0000000CFF1F2DE9F0439FB00FF63E
:101E1000A836269CDFF804898DF83B400291002407
:101E20000B944FF0FF37044691461D460AE019F81F
:101E3000011B0298A0470028029000F0A1800B9897
:101E4000401C0B9099F8000050B12528EFD10021DB
:101E50000022059106920791089209910A9203E0E7
:101E60000B98A0E041F0010119F8010F2028F9D0EA
:101E700023280CD02B2804D02D2805D0302809D0B9
:101E800080E041F00201EFE741F00401ECE741F0AE
:101E90000801E9E741F01001E6E70D920AE00D982C
:101EA000404505DA00EB800002EB4002303A0D922B
:101EB00009F1010999F80020A2F130000A28EED3B7
:101EC00099F800002E2818BF0C9726D119F8010F99
:101ED0002A2808D12868286009F1010950F8042B44
:101EE00028600C9219E02D280CBF09F1010900208F
:101EF00000220C920BE040B90C9A424505DA02EB45
:101F0000820203EB4203303B0C9309F1010999F87B
:101F10000030A3F130020A2AEDD3ADF83810304674
:101F200099F8001000F098FD08B119F8010B8DF830
:101F30003A009DF83A00682805D199F80000682811
:101F40000CD1622106E06C2804BF99F800006C28CF
:101F500004D171218DF83A1009F1010910A80490FB
:101F60002A4619F8013B6946204600F05CF838B96A
:101F700010AA6946204600F086F900287FF562AF76
:101F8000384610E02A2888D12A682A6052F8040BC3
:101F90002A6000280D9003D540420D9041F00401C5
:101FA00009F101098CE71FB0BDE8F083622820D059
:101FB000682811D06A2803D06C2827D0712825D131
:101FC0000868C01D20F007000860D0E90023083031
:101FD0000860194610467047002A0A680A601068AF
:101FE00003D0121D0A6000B217E0121D0A6080B211
:101FF00017E0002A0A680A60106803D0121D0A6000
:1020000040B20AE0121D0A60C0B20AE0002A0A6863
:102010000A60106803D0121D0A60C1177047121DB4
:102020000A600021704770B51C460D46B4F12500CA
:102030002E69114600F015812038022863D9133823
:1020400040D00B3816D0401E1ED0401E02285AD950
:10205000001F19D0401F00F08180401E32D0401E6A
:1020600000F0CB80C01E00F0DA80801E2AD0C01E97
:1020700028D0FCE06869421C6A610A680A6052F86C
:10208000043B0A603354FCE095F83A000122FFF764
:102090008DFFC5E90001002904D56869411C69610B
:1020A0002D220DE0288F810704D56869411C6961E4
:1020B0002B2205E0C00721D56869411C69612022F7
:1020C00032541BE095F83A000022FFF76FFFC5E994
:1020D000000195F83800010710D5D5E90023002B41
:1020E00008BF002A0AD044F02000782806D1686989
:1020F00030213154401C421C6A61345421466869C5
:102100003044E86087E00868C01D20F007000860E0
:10211000D0E9002308300860C5E90023D5E90001B3
:10212000C80F04D06869411C69612D220DE0288F19
:10213000810704D56869411C69612B2205E0C0074D
:1021400004D56869411C69612022325468693044B1
:10215000E8602146284600F0C4F992E005F13A0211
:10216000507820B14FF0FF340FF6540062E0107841
:10217000622808D0682824D06A2812D06C282ED073
:1021800071280ED02BE00A680A6052F8040B0A602E
:1021900020B94FF0FF340FF640004BE0E96A0170C0
:1021A0006FE00A680A6052F8040B0A6020B94FF029
:1021B000FF340FF624003DE0EA6AD317C0E900239C
:1021C0005FE00A680A6052F8040B0A6020B94FF019
:1021D000FF340FF604002DE0E96A018051E00A683F
:1021E0000A6052F8040B0A6020B94FF0FF340FF276
:1021F000E8701FE0E96A016043E00A680A6052F88B
:10220000040B0A60002120F0000221F0FF33C5E931
:102210000023EE607821284600F0BBF831E0086822
:10222000086050F8044B0860EC603CB94FF0FF3494
:102230000FF2BC7000F01CFC201A70BD2E6B002E3B
:1022400004D5204600F034FC044608E03246002164
:10225000204600F049FC002814BF041B3446AC6142
:102260000FE06869411C69612522325409E06969FF
:10227000481C686125227254210002D0431C6B6106
:102280003454002070BD2DE9FC410F4606469046AF
:102290007A6B7869396ABC6A121AB869521A796A13
:1022A000121AF869521A121A97F83800141B4107CB
:1022B0000FD42020002C8DF800000ADD25460123D4
:1022C0006A463946304600F05FFB00285DD16D1E3E
:1022D000F5D17B6942463946304600F055FB00286F
:1022E00053D130208DF800003D6A002D09DD012317
:1022F0006A463946304600F047FB002845D16D1E3E
:10230000F5D1BB69FA683946304600F03DFB00283C
:102310003BD130208DF800007D6A002D08DD0123BF
:102320006A463946304600F02FFB70BB6D1EF6D171
:10233000F868B969FB6942183946304600F024FB59
:1023400018BB30208DF80000BD6A002D08DD012388
:102350006A463946304600F017FBB0B96D1EF6D11B
:1023600097F8380041070DD52020002C8DF800008B
:1023700008DD01236A463946304600F005FB20B9E6
:10238000641EF6D10020BDE8F6814FF0FF30BDE8B5
:10239000F6812DE9FC4307466F293E6908BF0824F2
:1023A00005D041F02000782814BF0A2410243C25D1
:1023B000D7E90023642918BF69299046994605D1B9
:1023C000002B03D5D8F1000869EB4909B9F1000FDA
:1023D00008BFB8F1000F1FD1386BE8B9082C4CD1F9
:1023E00097F83800010748D530203B2586F83B0098
:1023F00043E000280ED597F8380000F014001028AC
:1024000008D17B6B7969386A5B1A1B1A9A1A002A01
:10241000C8BF3A62BDE8F3838DF8001040464946D4
:102420002246E31700F08CFB3032D0B26D1E3A2802
:10243000019504DB9DF80000A0F151018A18725546
:10244000404649462246E31700F07AFB80465FEAA1
:10245000010908BFB8F1000F03D0F868711988426C
:10246000DCD3082C09D197F83800010705D5705D39
:10247000302802D06D1E30207055C5F13C02BA6183
:102480007119F960386B8242B3DA821A3A624FF6F8
:10249000EF70398F01403987BDE8F3832DE9D043D0
:1024A00006460F4614464FF00008DFF8749212E01B
:1024B000E00707D542464B463046394600F058FC07
:1024C00006460F464046494642464B4600F050FC01
:1024D000641080468946002CEAD130463946BDE872
:1024E000D0832DE9F047064689468EB0D6E9000133
:1024F000CDE9020104AC306B002802D50620306320
:1025000005E001BF49F02000672801213163D6E9C9
:10251000002358004015401C0DD119030BD0A9F120
:10252000610103201A29B06102D20FF2E04110E0EC
:102530000FF2DC410DE059004915491C0ED118037A
:102540000CD1A9F1610103201A29B06116D30FF251
:10255000C841F068032200F0DDFCDBE023F0004717
:10256000B7F5801F1046194622F000050DD2002253
:10257000002F08BF002D019203D116E00FF2944105
:10258000E7E701AA00F01AFD08E06648664900EB9B
:10259000175001906548034010461943019B644D54
:1025A00047F29752534393FBF5F2C6E9000120F03E
:1025B000000331F0004104BF002B002300F0A28093
:1025C000DDE90240019220F00045D2F1070204DD6E
:1025D00020462946FFF762FF0AE052420020554993
:1025E000FFF75CFF02460B462046294600F01EFD21
:1025F000044649F0200ABAF1660F306B06BF019D10
:102600000A3506252D18142DC8BF142530208846FC
:102610008DF810000DF11107002D33DD20464146E5
:1026200000F028FE01460A4607F1080304200A27A5
:10263000B2FBF7F707EB870EA2EB4E02303203F83E
:10264000012C0A22B7FBF2F202EB820EA7EB4E0737
:102650003037401E03F8027DE9D1083D002D03F11B
:102660000807D9DD084600F019FE02460B46204651
:10267000414600F021FE00222F4B00F079FB04467A
:102680008846CBE70DF111003F1A0DF1110404E06B
:102690000198401E7F1E0190641C20783028F7D0DE
:1026A000BAF1660F02D10198401C04E0BAF1650F3F
:1026B0000CBF01200020336BC3189F42B8BF7B1EA4
:1026C000002B1ED4BB4204DAE05C3528A8BF3920B9
:1026D00000DA30201946621E02EB010800E05B1EA2
:1026E00018F80179491E8742F9D0392802D1605C77
:1026F000401C6054002904D50198401C14465B1C02
:102700000190019800B200901BB222464946304623
:1027100000F014F80EB0BDE8F0870000CBCCCC0C74
:102720000000244002FCFFFF0000E03FFFFF0F809D
:10273000A08601000000F03F84D797412DE9F847BB
:1027400083B005468A469146984600F027FEB8F1C8
:10275000000F406A2F6B067803DC4FF001080FF280
:10276000BC294AF02000BDF93040662808BF641C2F
:1027700013D0672840F08F8014F1040F7ADBBC423D
:1027800078DA95F83800641C010702D4B845B8BF60
:10279000474620B23F1A48BF00270FFA84FAE8687C
:1027A000A969BAF1000F23DC4A1C30234354002FDF
:1027B00003DC95F83800010702D5E8688654521CFE
:1027C00017EB0A0FB8BF7C4224B2E71960424745B5
:1027D000B8BFB846AA6168620FFA88F4EC61E8688D
:1027E000AB6922464946184400F094FB3F1B18E0B1
:1027F00022B29045084416DA4246494600F08AFB68
:10280000A8694044A861AAEB0801002F696203DCB3
:1028100095F838100A0704D5E9680E54E869401C99
:10282000E861AF6299E0494600F074FBA869002FA7
:102830005044A8EB040803DC95F838100A0702D5C9
:10284000E9680E54401CA8610FFA88F08742EB68D3
:10285000A869B8BFB8460FFA88F209EB0A01184414
:1028600000F058FBA9690FFA88F00144A961381AF1
:10287000686272E0B84504DA95F838100A0758BF64
:1028800047467F1E48BF0027BAF1670F0CBF4FF0C5
:10289000650A4FF0450AA969EB68481CA861002F3A
:1028A00019F8012B5A5403DC95F838100A0719D58A
:1028B000E968431CAB610E54002F13DDA8F101063B
:1028C00030B28742D5F80CC0B8BF3E4632B2494656
:1028D0000CEB030000F01EFBA86936B23018BF1BDA
:1028E000A8616F62E868A9690844002C80F800A01C
:1028F00003D42B224270811C03E02D2141706442DD
:10290000811C00206A460AE023460A2493FBF4F463
:1029100004EB8406A3EB460302F8013B401C24B2FF
:10292000002CF1DC012806DC4AF02002652A04BFF5
:10293000302201F8012B48B9302001F8010B07E0E3
:10294000401E1DF80030303301F8013B0028F7DC51
:10295000EA68A8691044091AE96195F8380000F09E
:10296000140010280DD16A69A969686A8A18E96992
:102970008218A86A8A188218686B8242BCBF821AC1
:102980002A6204B0BDE8F087F8B505460E46174642
:102990001C46002074B117F8011BB068A847B0604E
:1029A00030B1F06A401CF0620020641EF3D1F2BD29
:1029B0004FF0FF30F2BD0000686A6C747A4C000082
:1029C0007072696E74665F733A20256E2064697355
:1029D000616C6C6F776564007072696E74663A2022
:1029E00062616420256E20617267756D656E74008A
:1029F0007072696E74665F733A2062616420257339
:102A000020617267756D656E740000006E616E0006
:102A10004E414E00696E6600494E4600300030B4AB
:102A2000002513E050F8042BD30744BFA9F101039C
:102A30009A18091F042942F8045BFAD213468C073E
:102A400044BF15809B1CC90748BF1D7050F8041B6C
:102A50000029E7D130BC7047C9B202788A421AB166
:102A60001CBF10F8012FF9E718BF002070470000C5
:102A700080B500B906A005490B681BB122220021D0
:102A8000984701E000F08EFC222002BD1C4AFF1F87
:102A9000636F6E73747261696E742068616E646CCA
:102AA00065723A20626164206D65737361676500C9
:102AB00000F10103810704D010F8011B820781B1E6
:102AC000FAD10268A2F10131914311F0803104BFC3
:102AD00050F8042FF6E709BAB1FA81F100EBD10002
:102AE000401CC01A70470000C9B2830706D0521EAE
:102AF00022D310F8013B9942F7D11FE0083A13D3D3
:102B000002F1040241EA012141EA014150F8043B8B
:102B1000121F21BF4B40A3F1013C2CEA030C1CF017
:102B2000803FF3D0C9B2001F083210F8013B521E9B
:102B300028BF91EA030FF8D818BF0120401E704744
:102B4000BBBBE1B1B2F5803F80F07E80022A1ED986
:102B50008C46B1FBF2F102FB11C31B0443EA1043A4
:102B6000B3FBF2FC02FB1C3380B240EA0343B3FB2D
:102B7000F2F002FB103240EA0C4000237047022AB8
:102B800005D98446B0FBF2F002FB10C270474AB18F
:102B900005D100F0010249085FEA300070470022C9
:102BA0000023704700F002BC0B000200002100204F
:102BB0007047904271EB030CF6D3B3F5803F2FD2F0
:102BC000F0B5B3FA83F7B1FA81F4A7F10F0E3D1B0C
:102BD0005340CEF1200602FA0EF2F3415340B5F114
:102BE0000F0746D80F3C2C444140C4F12006A040BA
:102BF000F1414140B1FBF3F603FB1611A2FB064580
:102C0000001BA94102D2761E8018594180EA0102B8
:102C100021FA0EF362FA0EF200215A403046F0BD5E
:102C200030B4B1FBF3FC03FB1C11A2FB0C45001BF1
:102C3000A94103D2ACF1010C8018594130BC0246C5
:102C40000B46604600217047B2F1807F65D3F0B536
:102C5000B2FA82F7B1FA81F4C7F10F063D1B22FAEE
:102C600006F307F1110EF24120355A40B5F10F0776
:102C7000B8D94140C4F12006A040F1414140B1FB28
:102C8000F3FC03FB1C11A2FB0C45001BA94103D262
:102C9000BCF1010C801859410F2F12D30F3FC9030B
:102CA00041EA5041B1FBF3F603FB1611A2FB0645C6
:102CB000D4EBC030A94102D2761E8018594146EAB1
:102CC000CC3C07B34140C7F12006B840F141414038
:102CD000B1FBF3F603FB1611A2FB0645001BA9414D
:102CE00002D2761E8018594180EA010221FA0EF3C1
:102CF000C7F1200462FA0EF20CFA07F05A402CFADF
:102D000004F13043F0BD80EA010221FA0EF3002104
:102D100062FA0EF260465A40F0BD8C46B1FBF2F109
:102D200002FB11C31B0243EA1063B3FBF2FC02FB7C
:102D30001C331B024CEA002043EA1063B3FBF2FC95
:102D400002FB1C331B024CEA002043EA1063B3FB76
:102D5000F2FC02FB1C331B024CEA002043EA106326
:102D6000B3FBF2FC02FB1C324CEA0020002370474C
:102D7000B0B581EA030C0CF0004C40F2FF7515EA87
:102D800011541DBF15EA1357AC42AF4239E0E419A4
:102D900023EA455343F48013C90241F0004141EA5C
:102DA000505EC7021100A7FB020200284FF000008E
:102DB000EEFB01204FF00001E3FB072118BF42F0BA
:102DC0000102401800214941E3FB0E01A4F5806493
:102DD0000F0302D252004041494154F101046CDD1D
:102DE000470872F1004250F1000051EB0451A1F587
:102DF00080115CBF41EA0C01B0BD4CEA05510020D6
:102E0000B0BD05EA1357AC4214BFAF4241E050EAEF
:102E1000410E1CBF52EA430E02E061460020B0BDE5
:102E200024423C441BD15FEA070EF6D0090302BFDF
:102E300001460020AEF1140EB1FA81F7AEEB0704A3
:102E400001FA07FE0C37C7F1200100FA07F7C84066
:102E50004EEA000E23EA455343F48013A2E733F011
:102E60000043B3FA83F704BFB2FA82FE77440B3F04
:102E7000E41BB7F1200E2FBF02FA0EF3BB40C7F1DF
:102E8000200E22FA0EFE38BF43EA0E03BA40641C3D
:102E900082E750EA410E14BF52EA430E6FF0000180
:102EA0004FF4001717EB430F8ABF194617EB410F7A
:102EB000B5E74CEA05510020B0BDD4F10104B4F1EE
:102EC00020070FDAC4F12007520828BF42F00102A0
:102ED00010FA07F501FA07F7E1BF2A43E04038434B
:102EE000E1400FE0352C98DCC7F1200452EA4002A3
:102EF00020FA07F218BF42F0010231FA07F0A140B0
:102F00000A43002172F1004250F1000051EB0C0124
:102F1000B0BD000062B38B0708D0521E11F8013B10
:102F200000F8013B00F024808B07F6D1830740F0C6
:102F3000208000BF103A07D330B4B1E83810103AFF
:102F4000A0E83810F9D230BC530724BFB1E808100C
:102F5000A0E8081044BF51F8043B40F8043BD207F6
:102F600024BF31F8022B20F8022B44BF0B780370EA
:102F70007047121F17D35B0009D151F8043B20F8AA
:102F8000023B1B0C121F20F8023BF6D20BE051F85B
:102F9000043B00F8013B1B0A20F8023B1B0C121FEC
:102FA00000F8013BF3D238BF121D521E24BF11F8A6
:102FB000013B00F8013BF8D87047000010B51446FB
:102FC00000F002F8226010BDC1F30A5343B14A0079
:102FD00012F5001F28D2A3F2FE32A1EB0251704776
:102FE00050EA410C20D001F0004C31EA0C01B1FA5A
:102FF00081F204BFB0FA80F3D2180B3AB2F1200389
:103000002CBF00FA03F1914041EA0C013EBFC2F12E
:10301000200C20FA0CF319439040524240F2FD3349
:10302000D21A01EB0351704700227047F0B540F20D
:10303000FF7581EA030C0CF0004C15EA11541DBF1A
:1030400015EA1357AC42AF42E5E0BC41C1F31301AE
:10305000C3F31303801A994143F4801304D2641E0E
:103060004000494180185941C90241EA5051B1FB21
:10307000F3F603FB1611A2FB0675D7EBC020A9419E
:1030800002D2761E80185941C90241EA5051B1FB63
:10309000F3FE03FB1E11A2FB0E75D7EBC020A94166
:1030A00003D2AEF1010E80185941890241EA9051D4
:1030B000760546EA8E2EB1FBF3F603FB1611A2FB52
:1030C0000675D7EB8020A94102D2761E801859419F
:1030D000C90241EA50514EEA060EB1FBF3F603FB7A
:1030E0001611A2FB0675D7EBC020A94102D2761EAD
:1030F00080185941C90241EA5051B1FBF3F703FB73
:103100001711A2FB0735D3EBC020A94167F10007D7
:103110000CBF004247F0010766F3D5274FEA1E3186
:10312000B80814F5806412DDBD0775F1004250EB5C
:103130000E5051EB045111F5801F5CBF41EA0C01A8
:10314000F0BD4CF07F6141F0E0410020F0BDBD07D3
:103150006D0840EA0E5041F48011D4F10104B4F13D
:1031600020060ADAC4F120060200E04001FA06F364
:10317000E1401843B24015430EE0342C13DCC6F195
:10318000200445EA40056D0820FA06F2154321FAAD
:1031900006F0A1400D43002175F1004250F10000FE
:1031A00051EB0C01F0BD00205FEA0C01F0BDCFB97E
:1031B00092185B41B3FA83F704BFB2FA82F6BF19E3
:1031C0000B3FB7F120062FBF02FA06F3BB40C7F151
:1031D000200622FA06F638BF3343BA401CB1E41980
:1031E000641E33E77F4231F00041B1FA81F404BF3D
:1031F000B0FA80F6A4190B3CB4F120062FBF00FAF8
:1032000006F1A140C4F1200620FA06F638BF31438A
:10321000A0403C1B1AE7AC421ABF05EA1357AF4265
:1032200012E050EA41061CBF52EA4306BFE750EAEB
:103230004107304661461CBF41EA0551F0BD52EAE4
:10324000430C08BFC143F0BD00204FF4001616EB3D
:10325000410F98BF16EB430F08BF16EB410F24BF79
:10326000C14305E016EB430F0CBF61464CEA055124
:10327000F0BD0000400D491840EA81200CD2490DF4
:10328000A1F58061491C40F0004005DBD1F11F0130
:1032900054BFC840C017704700207047014648B16E
:1032A000B0FA80F18840C91CC1F58461090501EBC1
:1032B000D02140057047000070B44FF0004591EAFE
:1032C000030F40F17D806B40841A71EB030603D23B
:1032D000001BB141121973414FF4001C1CEB410F4C
:1032E00034BF7CEB430442E00C0DA4EB1356352EA7
:1032F0004FDC45EAC323DB0A45EAC121C912B6F116
:1033000020050DDD63FA05F6EB4086EA030512425F
:1033100018BF45F00105C01851F100010CD213E0AF
:1033200062FA06F5F2405540F3415A40B340F3408B
:103330005A408018594107D349085FEA30005FEAD4
:10334000350528BF45F0010501F58011420875F1EA
:10335000004250F1000041EB04514E0016F5001FF1
:1033600070BC38BF70470020090D090570471CEB81
:10337000410F10D252EA43060BD0BCEB410F05D8E7
:103380000C0DAB43661E342EB6DD02E0AB43801855
:10339000594170BC704770BC7047000000487047CE
:1033A0000C0CFF1F012000F0C1B8000070470000A6
:1033B00070B44FF0004591EA030F7FF585AF6B4085
:1033C000841A71EB030604D26E40001BB14112193E
:1033D00073414FF4001C1CEB410F34BF7CEB4306E0
:1033E00083E00C0DA4EB1356362E00F37C80012EE7
:1033F00045EAC32341DC43EA525312BFD202920290
:103400005B08240545EAC12141EA5051D2EBC020B6
:10341000994125D407D1B0FA80F610FA06F162D0AE
:103420000020203608E0B1FA81F6B140C6F1200252
:1034300020FA02F21143B0404FEAF474B4EB465460
:1034400034F001064FEA74040AD8D6F50016760D5A
:1034500004F00044F04061FA06F25040F140484068
:10346000C00A40EA415021F0004128BF5FEA500500
:1034700050F1000044EBD12135E0DB0A45EAC121DF
:10348000C90AB6F120050EDD42EA0242120CC5F16E
:10349000200603FA06F6EB4042EA06056D42984123
:1034A00061F100010DE062FA06F5F240554063FA61
:1034B00006FC82EA0C02F3405A406D42904161EBF7
:1034C000030111F4801F05D1641E620502D06D0056
:1034D0004041494121F48011430875F1004350F106
:1034E000000041EB045170BC70471CEB410F15D23A
:1034F00023F0004352EA43060BD04FEA4C0CBCEBDE
:10350000410F04D80C0D661E342EB7DDEBE7801A90
:10351000994150EA410608BF0021E4E708BF1CEBCF
:10352000430F28BF6FF00001DDE7000020210903F1
:1035300026311820ABBEF9E738B52C4908680028B9
:10354000FBD00D685FF0FF3008601D242800E040CC
:10355000C00701D501F0EEF931BD80B501F0FCF9ED
:1035600001BD70B5012001F045FB01F0FDF801201F
:1035700001F07CFB1E4C21684FF47A7291FBF2F152
:10358000B0FBF1F01B4908601B4D1C4E300001F0F0
:103590002DFA28702A783100194801F013FA012019
:1035A00001F064FB21684FF47A7291FBF2F1B0FBF9
:1035B000F1F0DFF8E81C086070BD00203C2814DA48
:1035C0005021104A42F8201000210F4A42F82010E2
:1035D00028210E4A1154022190FBF1F11431DFF839
:1035E000C02C42F82010401CE8E77047A09004402F
:1035F000184AFF1F500EFF1F724AFF1F3824FF1F7B
:103600007811FF1F580EFF1F4C0FFF1FD049FF1FDF
:103610002DE9F84F0020ADF800005FF0000B5FF0DF
:10362000000A5FF000090020DFF8781C0860002025
:10363000DFF8741C08600020DFF8701C08600024AC
:10364000DFF86C5C282085F83C00DFF8686C00200F
:10365000C6F8F000DFF8607C5020C7F8F000DFF813
:10366000408C3C20C8F8F000FFF7A7FF3B21080082
:1036700000B23228C0F25B81080000B23B2803D1BF
:10368000DFF8380C026803E0080000B228444278F2
:10369000100000B2032801DA02200200100000B27C
:1036A00002282BDBDFF8183C5FF0500C11FB0CF00C
:1036B000184496460FFA8EFE10F80E00FF281BD114
:1036C00011FB0CF0184496460FFA8EFE704410F869
:1036D000010C002810D111FB0CF0184413001BB290
:1036E000184410F8020C002806D1100000B20B009C
:1036F0001BB246F8230001E0521ECFE7080000B2DB
:103700003B2804D1DFF8B40BD0F800B004E0080087
:1037100000B2284490F801B0584600B24E2801DBB0
:103720004E208346584600B24F2829DADFF8902B06
:10373000502311FB03F01044DC460FFA8CFC10F808
:103740000C00FF2819D111FB03F01044DC460FFADE
:103750008CFC6044407800280FD111FB03F010442A
:103760005A4612B210448078002806D1584600B25A
:103770000A0012B247F8220002E01BF1010BD1E768
:10378000080000B256F82000002815D0080000B24A
:1037900057F8200050280FD0080000B256F820201B
:1037A000080000B257F820008218022092FBF0F0C7
:1037B0000A0012B2A854A1E0080000B256F8200096
:1037C00000283BD0080000B257F82000502835D11F
:1037D000DFF8D40A0268521C0260080000B257F8F1
:1037E0002020080000B256F82000121A080000B28B
:1037F00007EB80004368080000B206EB80004068D9
:103800001B1A5B1D9A4208DB080000B2284440786E
:10381000801C0A0012B2A85470E0080000B256F8EA
:103820002020080000B258F82000022390FBF3F09B
:103830008218521D080000B22A545FE0080000B24E
:1038400056F82000002836D1080000B257F82000B2
:10385000502830D0080000B257F82020080000B2ED
:1038600056F82000121A080000B207EB80004368E7
:10387000080000B206EB800040681B1A5B1C9A42ED
:1038800008DB080000B228444078401E0A0012B24B
:10389000A85433E0080000B257F82020080000B216
:1038A00058F82000022390FBF3F0121A501F0A0070
:1038B00012B2A85422E0080000B256F820000028F6
:1038C0001CD1080000B257F82000502816D1DFF8AC
:1038D000DC090268521C0260080000B23B2806D1D5
:1038E000DFF8D80900680A0012B2A85406E0080000
:1038F00000B2284440780A0012B2A85495F83B0060
:10390000462804DB4620DFF8B42910600DE095F866
:103910003B000B2804DA0A20DFF8A029106004E03D
:1039200095F83B00DFF894291060491E9FE65FF090
:103930003109484600B20128C0F2AE84484600B2C0
:1039400006EB80004068002800F0AF80484600B2D7
:1039500007EB80004068502800F0A780484600B27E
:1039600006EB800040680A304E2801DB4E2105E05E
:10397000484600B206EB800041680A31484600B272
:1039800006EB80004068401F022801DA012205E0B2
:10399000484600B206EB80004068421F0800130052
:1039A000DBB200B21BB298422BDBDFF814395FF0B8
:1039B000500C19FB0CF018448E460FFA8EFE10F8CE
:1039C0000E00FF281BD119FB0CF018448E460FFA8D
:1039D0008EFE704410F8010C002810D119FB0CF079
:1039E00018440B001BB2184410F8020C002806D132
:1039F000080000B24B461BB246F8230001E0491E06
:103A0000CCE7484600B207EB800040680A3802283D
:103A100002DA5FF0010B06E0484600B207EB8000D7
:103A20004068B0F10A0B484600B207EB80004068DE
:103A3000401D4E2802DB5FF04E0A07E0484600B208
:103A400007EB8000D0F804A01AF1050A5046C0B276
:103A5000594600B209B28842C0F2C781DFF8601847
:103A6000502219FB02F008445B461BB2C05CFF28E1
:103A700018D119FB02F008445B461BB21844407889
:103A800000280FD119FB02F00844594609B2084436
:103A90008078002806D1584600B2494609B247F856
:103AA0002100A2E11BF1010BD0E7484600B206EB72
:103AB00080004068002800F09380484600B207EB81
:103AC00080004068502840F08B80484600B206EBEA
:103AD000800040680A304E2801DB4E2105E0484650
:103AE00000B206EB800041680A31484600B206EB9E
:103AF00080004068401F022802DA5FF0010A06E0F9
:103B0000484600B206EB80004068B0F1050A0800A4
:103B10005246D2B200B212B290422ADBDFF8A0279E
:103B2000502319FB03F010448C460FFA8CFC10F85C
:103B30000C00FF281BD119FB03F010448C460FFA30
:103B40008CFC604410F8010C002810D119FB03F024
:103B500010440A0012B2104410F8020C002806D1DA
:103B6000080000B24A4612B246F8220001E0491E9F
:103B7000CDE7484600B2284490F801B0584600B25C
:103B80004E2801DB4E208346584600B24F2880F273
:103B90002C81DFF82C17502219FB02F008445B46F9
:103BA0001BB2C05CFF2818D119FB02F008445B4629
:103BB0001BB21844407800280FD119FB02F00844CA
:103BC000594609B208448078002806D1584600B208
:103BD000494609B247F8210007E11BF1010BD3E781
:103BE000484600B206EB80004068002840F095800F
:103BF000484600B207EB80004068502800F08D80F6
:103C0000484600B207EB800040680A38022801DA13
:103C1000012106E0484600B207EB80004068B0F1A1
:103C20000A01484600B207EB80004068401D4E285C
:103C300002DB5FF04E0A07E0484600B207EB800067
:103C4000D0F804A01AF1050A5046C0B20A0000B22A
:103C500012B2904228DBDFF86826502319FB03F0EC
:103C600010448C460FFA8CFC10F80C00FF2819D178
:103C700019FB03F010448C460FFA8CFC604440782A
:103C800000280FD119FB03F010440A0012B21044AF
:103C90008078002806D1080000B24A4612B247F8E0
:103CA000220001E0491CCFE7484600B2284490F8C2
:103CB00001B0584600B2022801DA02208346584675
:103CC00000B20128C0F29180DFF8F415502219FBF0
:103CD00002F008445B461BB2C05CFF281AD119FBF6
:103CE00002F008445B461BB2184410F8010C00288F
:103CF00010D119FB02F00844594609B2084410F8E3
:103D0000020C002806D1584600B2494609B246F8CE
:103D100021006AE0BBF1010BD1E7484600B206EB97
:103D200080004068002860D1484600B207EB800060
:103D30004068502859D1484600B2284441780800CC
:103D400000B201282ADBDFF87825502319FB03F0A5
:103D500010448C460FFA8CFC10F80C00FF281BD185
:103D600019FB03F010448C460FFA8CFC604410F8E9
:103D7000010C002810D119FB03F010440A0012B204
:103D8000104410F8020C002806D1080000B24A4680
:103D900012B246F8220001E0491ED0E7484600B2C0
:103DA000284490F801B0584600B24F281DDADFF8D9
:103DB0001005502119FB01F202445B461BB2D25C94
:103DC000FF2A0FD119FB01F10844594609B20844F2
:103DD0004078002806D1584600B2494609B247F853
:103DE000210002E01BF1010BDDE7484600B257F865
:103DF0002010484600B256F82000091A484600B282
:103E000007EB80004268484600B206EB800040683D
:103E1000121AD21C914207DB484600B2284440786F
:103E2000494609B26854DBE1484600B256F8200022
:103E3000002800F03C81484600B257F82000502886
:103E400000F03581484600B256F82010484600B2CE
:103E500057F820004118022091FBF0F0401D494620
:103E600009B26854484600B2295C484600B228446A
:103E70004078091A0929C0F28680484600B256F8EF
:103E80002010484600B206EB80004068091A042959
:103E900001DB012000E00020C0B200280FD048461E
:103EA00000B256F82010484600B206EB8000406889
:103EB000091A042901DB012012E0002010E0484625
:103EC00000B256F82010484600B206EB8000406869
:103ED000091A042901DB012000E00020C0B24042A1
:103EE000002834D1484600B257F82010484600B2A6
:103EF00007EB80004068091A042901DB012000E07B
:103F00000020C0B200280FD0484600B257F8201059
:103F1000484600B207EB80004068091A042901DB1B
:103F2000012012E0002010E0484600B257F82010AF
:103F3000484600B207EB80004068091A042901DBFB
:103F4000012000E00020C0B2404200281BD04846BB
:103F500000B21E2817DB49460800C0B2285C401E8C
:103F60000A00D2B22A445070491C0800C0B232285C
:103F700009DA0800C0B22A5C0800C0B228444078C0
:103F8000121A022AE8DA484600B228444178484624
:103F900000B2285C091A0929C0F22281484600B201
:103FA00056F82010484600B206EB80004068091A17
:103FB000042901DB012000E00020C0B200280FD05E
:103FC000484600B256F82010484600B206EB800082
:103FD0004068091A042901DB012012E0002010E0EA
:103FE000484600B256F82010484600B206EB800062
:103FF0004068091A042901DB012000E00020C0B25A
:104000004042002835D1484600B257F820104846B3
:1040100000B207EB80004068091A042901DB012087
:1040200000E00020C0B200280FD0484600B257F888
:104030002010484600B207EB80004068091A0429A6
:1040400001DB012012E0002010E0484600B257F8E2
:104050002010484600B207EB80004068091A042986
:1040600001DB012000E00020C0B24042002800F047
:10407000B780484600B21E28C0F2B2804946080008
:10408000C0B2285C401C0A00D2B22A445070491CBD
:104090000800C0B2322809DA0800C0B228444278C9
:1040A0000800C0B2285C121A022AE8DA98E04846F2
:1040B00000B256F82000002835D0484600B257F824
:1040C000200050282FD178480168491C01604846DB
:1040D00000B206EB80004068002813D0484600B2CA
:1040E00028444178484600B256F820004118484616
:1040F00000B206EB80004068091A491D484600B22C
:1041000029546DE0484600B256F82010484600B2E7
:1041100058F82000022290FBF2F04118491D484651
:1041200000B229545CE0484600B256F8200000284E
:1041300035D1484600B257F8200050282FD05948B2
:104140000168491C0160484600B207EB80004068E6
:10415000502813D0484600B228444178484600B25F
:1041600057F820004118484600B207EB800040682D
:10417000091A481F494609B2685431E0484600B25E
:1041800057F82010484600B258F82000022290FB51
:10419000F2F0091A481F494609B2685420E048461F
:1041A00000B256F8200000281AD1484600B257F84D
:1041B0002000502814D1641C3C480168491C01604F
:1041C0002000C0B2012804D1484600B2DFF898149C
:1041D0000860484600B228444078494609B268540D
:1041E000484600B2002809D1DFF88004DFF88014C7
:1041F00008600020DFF87C1408604DE0484600B2FB
:10420000285CADF80000BDF80000052802DA0520A2
:10421000ADF80000BDF800004C2802DB4B20ADF8E3
:104220000000484600B256F82000002805D0484655
:1042300000B256F8200041281BDA484600B257F871
:104240002000502805D0484600B257F820000F281B
:104250000FDB484600B201281ADB1948502119FB30
:1042600001F10844BDF80010084410F8500C002873
:104270000ED1484600B2DFF8FC130860484600B291
:10428000D0F13C0000F02CFDDFF8E413086003E0FF
:10429000B9F10109FFF74DBBBDE8F18F540EFF1FC7
:1042A0004010FF1F3C11FF1F4011FF1F4411FF1F53
:1042B000D049FF1F4C0FFF1F580EFF1F1004FF1F98
:1042C0007811FF1F2DE9F84F00208DF80300002022
:1042D0008DF8020000208DF8010000208DF800000C
:1042E0000020002100225FF00009DFF88C33002459
:1042F0001C60DFF8884300252560DFF88453002622
:104300002E60DFF8806300273760DFF87C735FF092
:10431000000CC7F800C0DFF874C35FF0000ECCF8E3
:1043200000E0DFF86CE35FF00008CEF800805FF09B
:104330003B08B8F1030FC0F234815FF05009DFF899
:1043400054A309FB08FBD3449BF828B0BBF1FF0F33
:104350000BD19DF802B0BBF1000F06D1DCF800B024
:104360001BF1010BCCF800B016E0B8F1020F13DB23
:1043700009FB08FBD3441BF828BCBBF1000F0BD191
:1043800009FB08FBD3441BF878BCBBF1000F03D139
:104390005FF0010B8DF802B009FB08FBD3449BF8DA
:1043A00014B0BBF1FF0F0BD19DF803B0BBF1000FB0
:1043B00006D1D7F800B01BF1010BC7F800B016E02A
:1043C000B8F1020F13DB09FB08FBD3441BF83CBC1C
:1043D000BBF1000F0BD109FB08FBD3441BF88CBCCD
:1043E000BBF1000F03D15FF0010B8DF803B009FBA7
:1043F00008FBD3449BF83CB0BBF1FF0F0BD19DF8F9
:1044000001B0BBF1000F06D1DEF800B01BF1010BCB
:10441000CEF800B016E0B8F1020F13DB09FB08FB81
:10442000D3441BF814BCBBF1000F0BD109FB08FBF4
:10443000D3441BF864BCBBF1000F03D15FF0010B48
:104440008DF801B009FB08FBD3449BF81EB0BBF10B
:10445000FF0F0CD183465FFA8BFBBBF1000F06D137
:10446000D4F800B01BF1010BC4F800B015E0B8F1AE
:10447000020F12DB09FB08FBD3441BF832BCBBF173
:10448000000F0AD109FB08FBD3441BF882BCBBF127
:10449000000F02D15FF0010B584609FB08FBD34423
:1044A0009BF832B0BBF1FF0F0BD19DF800B0BBF110
:1044B000000F06D1D3F800B01BF1010BC3F800B018
:1044C00016E0B8F1020F13DB09FB08FBD3441BF81D
:1044D0001EBCBBF1000F0BD109FB08FBD3441BF83A
:1044E0006EBCBBF1000F03D15FF0010B8DF800B083
:1044F00009FB08FBD3449BF80AB0BBF1FF0F0CD1BA
:104500008B465FFA8BFBBBF1000F06D1D5F800B0EC
:104510001BF1010BC5F800B015E0B8F1020F12DB7A
:1045200009FB08FBD3441BF846BCBBF1000F0AD1C2
:1045300009FB08FBD3441BF896BCBBF1000F02D16A
:104540005FF0010B594609FB08FBD3449BF846B0CA
:10455000BBF1FF0F0CD193465FFA8BFBBBF1000F51
:1045600006D1D6F8009019F10109C6F8009015E0BF
:10457000B8F1020F12DB09FB08FBD3441BF80ABC9D
:10458000BBF1000F0AD109FB08F9D14419F85A9C74
:10459000B9F1000F02D15FF001094A46B8F10108F4
:1045A000C7E6DCF80090D7F800A0D14505DA3F68EF
:1045B000DFF8E4C0CCF8007005E0DCF80070DFF84C
:1045C000D8C0CCF80070344FDEF800C0D7F80090A7
:1045D000CC4504DAD7F800C0C7F800C003E0DEF825
:1045E00000C0C7F800C0D3F800C0D7F800E0F44519
:1045F00005DA3B68DFF8A4C0CCF8003004E01B68A3
:10460000DFF898C0CCF800302368D7F800C06345C5
:1046100003DA3B68214C236002E023681F4C2360CF
:104620002B683C68A34203DA3B681C4C236002E021
:104630002B681A4C236033683C68A34203DA3B685A
:10464000164C236002E03368144C2360134B1C6843
:104650003C2C01DB3A241C601B68D3F13C03104C5A
:104660002360BDE8F18F00004811FF1F0000704279
:104670003811FF1F3411FF1F4C11FF1F5011FF1F76
:104680005411FF1F5811FF1F5C11FF1F6011FF1F06
:104690006411FF1F7811FF1F6C11FF1F6811FF1FAE
:1046A0007011FF1F012210F01F018A40DFF8BC12B9
:1046B00003005BB25B0941F823207047012210F030
:1046C0001F018A40DFF8A81203005BB25B0941F8C2
:1046D0002320704710B4020052B2002A0AD50A0102
:1046E000DFF89032040064B214F00F04234403F89E
:1046F000042C05E00A01DFF88032040064B21A5588
:1047000010BC704770B4DFF87442256801268640FB
:1047100035432560DFF868421D006D046D0C06000E
:1047200076B276012644F5821D006D046D0C0600FC
:1047300076B276012644F58305006DB26D016151B4
:1047400005006DB26D012C4422618E4C256855F038
:104750000105256070BC704710B504008A480460EC
:1047600000F06EF8012010BDF8B5884C20780028C4
:10477000FBD04FF49655864E834807682A003100D7
:104780003800FEF7C7FB00202070F1BDF8B5032408
:10479000804D200040B255F82000007980061AD5DF
:1047A0007D4E7E4F307807EB00010320FDF783FA42
:1047B0003078401C30703078012804D13878A52832
:1047C00001D0002030703078032804D100203070F0
:1047D000012073490870200040B255F8200000798C
:1047E000F1BD7CB50025280080B2082827DAA52075
:1047F0008DF800006846F12141706A4E290089B2A7
:1048000036F821100C00210089B2090A8170C470A9
:10481000042269460320FDF76CFA614908780028F4
:10482000FBD0002008705D484178807850EA012074
:10483000290089B206EB810148806D1CD3E773BD66
:104840007FB54FF416510320FDF73AF90320FDF729
:1048500063FA5549432000F066FA0A20FDF711F883
:104860004F4E002030700025280080B209281EDA43
:10487000A5208DF80C004D4803A92A0092B230F80B
:1048800022204A702A0092B200EB82004088040085
:10489000200080B2000A8870CC70042203A9032093
:1048A000FDF727FA0220FCF7ECFF6D1CDCE73078FF
:1048B0000028FCD00020307038484178FF29FBD117
:1048C0008078FF28F8D1FFF78CFF012002904FF489
:1048D00096500190002000901B232D4A344900205F
:1048E00000F066FA33491B20FCF756FF254E30686E
:1048F0004008400030602148016851F0010101602A
:104900000020FFF7CFFE306850F0010030605720E4
:10491000FFF7D4FE28491D20FCF73EFF0121572058
:10492000FFF7D8FE02210020FFF7D4FE5720FFF743
:10493000B9FE7FBD80B55FF0005020490968C1F81D
:10494000A0004FF49653124A19490020FFF7DAFEEF
:1049500000201B49088001BD01200C490870074850
:10496000016851F0010101607047000000E100E0C2
:1049700080E100E018ED00E000E400E02480004069
:10498000009000400C800040C449FF1F744AFF1F84
:104990000437FF1FA00BFF1F734AFF1FC849FF1FEB
:1049A000900CFF1FDC0BFF1F8D470000B80BFF1F93
:1049B00050F00F400201010002010A008C0BFF1FA2
:1049C000704AFF1FF0B403000C000025B5F5965F98
:1049D0000ADA665D1700FFB2BE4201D3FF2600E08F
:1049E00000265E556D1CF1E7F0BC70472DE9F14FD4
:1049F000ADF5006D8EB05020ADF80A003C20ADF84A
:104A00000C000DF587604FF4806100F0C7FA0EA826
:104A10004FF4806100F0C2FABDF80A10BDF80C0036
:104A20004143022091FBF0F00A9000208DF808002D
:104A3000DDF8380809900120BDF80C1088421CDA16
:104A400001210F00BDF80A108F4214DA0DF58761BD
:104A5000099ABDF80A3003FB0073D25C099BBDF8CC
:104A60000A4004FB00741B5D51F823305B1C41F8C5
:104A70002230BF1CE6E7801CDEE7002108915FF0D2
:104A8000000ABAF5807F1CDA0EAC0DF5876050F88D
:104A90002A0000F025F905000A9800F021F901002C
:104AA000280000F07FFA44F82A00089854F82A10E9
:104AB00000F0F6FA02D254F82A0008901AF1010A1E
:104AC000DFE7002007905FF00009B9F5807F80F2F2
:104AD0008A8000200B900490059006900600804686
:104AE0000500040000200700B7F5807F2ADAB945E9
:104AF00013DB0DF1380A5AF82700210000F0E2FA22
:104B00000400380000F0ECF85AF8271000F04CFBD5
:104B1000414600F0D7FA804612E00DF1380A5AF803
:104B20002700290000F0CEFA0500380000F0D8F880
:104B30005AF8271000F038FB310000F0C3FA0600E5
:104B40007F1CD1E74046210000F02CFA069030008F
:104B5000290000F027FA05904046310000F0B2FA33
:104B600004900698049900F08BFB00F0C9FB824684
:104B70008B460598049900F083FB00F0C1FBCDE95A
:104B80000C01200000F0BCFBCDE900015046594665
:104B900052465B46FEF7ECF8DDE90023FEF7E8F845
:104BA000CDE90001280000F0ABFB82468B46DDE931
:104BB0000C23DDE90C01FEF7DBF852465B46FEF7FD
:104BC000D7F8DDE90023FEF7F3FB00F0BDFB0100A1
:104BD000079800F065FA03D2079148468DF808005F
:104BE00019F1010971E79DF808000DF5006D0FB08E
:104BF000BDE8F08F37490A6852F400020A6036496E
:104C00000A68920892000A603449020052B2120106
:104C10000A4492685208520003005BB21B010B4425
:104C20009A605FF0FF3203005BB21B01CA500200C2
:104C300052B212010A44D26852F0010203005BB280
:104C40001B010B44DA60020052B212010A4492685E
:104C50005208520003005BB21B010B449A60012210
:104C600003005BB21B0119448A60704710B4010055
:104C70001A485FF0FF330A0052B212010244526830
:104C80009A1A0B005BB21B010344DB68DB071AD5E1
:104C90000B005BB21B010344DB6853F001030C0003
:104CA00064B224010444E3600B005BB21B010344C3
:104CB0009B685B085B000C0064B2240120448360A5
:104CC0005FF0FF3004E012F1010F00D1521E10001E
:104CD00010BC70473C8004400070034000710340EA
:104CE000C2175040801AB0FA80F10AD08840D1F142
:104CF0009D01D20742EAC151020672F1004241EB26
:104D00001020704710B504004FF4007094FBF0F1D0
:104D100000FB1140002803D01E210B48FCF7DCFDEE
:104D20000A48046010BD70B504000D00084E074825
:104D30000068B04203D030210348FCF7CDFD2000CD
:104D400040B246F8205070BDB475000008ED00E098
:104D50000000FF1F2DE9F84304000D00200080092A
:104D600010F00700C0B246012000103810F03F00DC
:104D7000C0B2C70017EB0608EDB218EBC500B0F1E2
:104D8000010948464146C0B2C9B288420ED300224A
:104D900000214046C0B2FCF763FC4FF481714046ED
:104DA000C0B2FCF7F9FC18F10108EAE7BDE8F183AD
:104DB0002DE9F84F04000D0016001F009DF9288012
:104DC000DDF82C90DDF830A0404640B2002802D13A
:104DD0005FF0010B0FE0404640B2012802D15FF0C6
:104DE000020B08E0404640B2022802D15FF0040BFB
:104DF00001E05FF0100B404640B2002805D15A4850
:104E0000854202D35948A8421FD2404640B20128E9
:104E100009D15548854206D35548A84203D315F019
:104E20000300032811D1404640B2022809D14E4860
:104E3000854206D34F48A84203D315F0030000284B
:104E400003D061214C48FCF747FDB9F5004F03D36F
:104E500063214948FCF740FD4848016851F00201D0
:104E600001604748016851F0020101604548210096
:104E700049B249014550210049B2490101440E613E
:104E80000021220052B25201024491805946C9B217
:104E9000220052B2520102449182414649B20902B3
:104EA00011F4E061424652B212F0070211432200AF
:104EB00052B252010244D18049464904490C2200B1
:104EC00052B252010244D18249464904490C22009F
:104ED00052B252010244D1832B490A6832F0800257
:104EE0000A605946C9B2220052B25201024491608E
:104EF0000021220052B252010244D1605FEACA711D
:104F000002D4D9F1000100E00021220052B2520186
:104F1000024491614CF20A01220052B25201104443
:104F200081833800C0B24009313050F08000174909
:104F3000220052B2885416493800C0B2FCF72CFC4B
:104F40005946C9B22800FFF705FF124901220B6834
:104F500012FA04F083430B600F480168A2400A4331
:104F60000260BDE8F18F000010F00F4013F10F4018
:104F700012F10F4010F10F40E47400004080044033
:104F80003C8004400090004000800040001002403F
:104F9000000101000C80004024800040002200F04D
:104FA00007BA000010B5FF2313EAD0541DBF13EA5F
:104FB000D1529C429A4239E0A41ADA0780EA0103EE
:104FC000134042EA012142EA0020421A3CBF641E1B
:104FD00001EB4202090AB2FBF1FE01FB1E221202A2
:104FE000B2FBF1F001FB10226EF30F201202B2FBB4
:104FF000F1FE4EEA00207F3406DDFE2C24DA53EA6F
:10500000500050EBC45010BDD4F1020401FB1E222D
:1050100040F08071192C1DDC21FA04F0C4F1200449
:10502000A140114371F10042584110BD9C421ABF8A
:1050300003EAD1529A420FE080EA010E0EF00043DB
:10504000400004D0490016D143F0FF4010BD490094
:1050500008BFD343180010BD9C4205D1D21AF7D027
:1050600001F00041484010BD4A0212BF08464840C6
:1050700000F0004010BD4AB90902B1FA81F2914036
:1050800044B1A418C00140F000409EE7C90141F0BE
:10509000004152420002B0FA80F4A040141B94E791
:1050A0004FF0807C1CEB400F94BF1CEB410F05E0E0
:1050B00040EA010C1CEB0C0F01D28842704718BF6C
:1050C0008142704790EA010F40F1E08081F0004199
:1050D000431A4FF000423EBF5340C01AC91800BFE8
:1050E000D3095FEAD05C13EB400F34BFB3EB410F41
:1050F00040E07CEBD1530CD342EA012122D8D1EB22
:10510000402009D3400A28BF5FEA500140EBCC5051
:105110007047401A15D04002B0FA80F2521C9040FD
:10512000400A4FEA3C23B3EB026384BF00EB7300F9
:1051300007E040F400001A16DB07C2F10102D0407C
:1051400018437047182BFCDC31FA03F202FA03F320
:10515000591A38BF42F00102D2EB40203CBF400058
:10516000ACF1010C5FEACC5CC20572F100414CEB82
:105170005020704713EB400F0FD2C94209D0ACEB5F
:10518000D153022B03DB4902172BDDDD704791431E
:10519000401AC042D5D10020704713EB410FD0D345
:1051A0006FF0000070470000FF2212EAD05C1DBFC4
:1051B00012EAD153944593422BE09C44D30780EAF2
:1051C00001021A4043EA002043EA0121A1FB00301A
:1051D000C04238BF40007CF17F010BDBFE294ADA78
:1051E0005B0842EAC15153EA006373F1004C51EB92
:1051F00010207047D1F1080CDCF120012FDB5B0897
:1052000010FA01F10B4320FA0CF073F10041504108
:10521000704794451CBF02EAD153934280EA0102D1
:1052200002F000421DD0400019D0490017D05BB9F0
:10523000634514D00902B1FA81F39940BCEB030C29
:10524000C00140F00040C1E70002B0FA80FC10FA53
:105250000CF0B3EB0C0CC90141F00041B6E71000B3
:10526000704740000AD0490008D010F1807F94BFF9
:1052700011F1807F02E042F0FF407047D043704759
:1052800090EA010F7FF524AF81F00041421A3CBF44
:10529000801A89184FF0004CC0F3C752FF2A24D05F
:1052A000C1F3C75313B3D21AD2F1190327DD4CEA65
:1052B00001214CFA03F321EA0303D140C20D4CEA69
:1052C0000020401834BF20EA0C004CEA5000D20500
:1052D00053EA006373EB0C0C52EB1020420012F106
:1052E000807F38BF7047C00DC0057047490212BFAC
:1052F0009A4200EB5120F8E7D2F11703D9D5704755
:10530000C0F3C75181B1FF2906D0C110400721F079
:10531000E04101F16051704741020CBF40F4E001EF
:105320006FF000410020704700F0004100020AD0F9
:10533000B0FA80FC00FA0CF001F16051A1EB0C51C5
:1053400001EBD0214005704701F000428B1AA3F118
:105350006051B1F5801F0ADBB1F17F6F1FD242EAC5
:10536000C102C10071F1004142EB507070470B1552
:10537000C3F10903212B10D2890241EA9051800226
:105380000128494141F0004121FA03F0C3F1200313
:10539000994071F1004150417047100070476FF023
:1053A000000013EB103F5CBF000E42EAC050704794
:1053B00000B500BF130096469446103928BFA0E8F8
:1053C0000C50FAD85FEA417C28BF0CC048BF40F8B7
:1053D000042BC90728BF20F8022B48BF00F8012B77
:1053E00000BD00002800000050003C0050003C00C0
:1053F00000000000000000000000000000000000AD
:1054000000000000000000000000000000004E6FDF
:105410006E4D61736B61626C6500000000486172E3
:10542000644661756C740000000000004D656D4DB0
:10543000616E6167656D656E7400004275734661EB
:10544000756C7400000000000000557361676546CC
:1054500061756C7400000000000000000000000096
:10546000000000000000000000000000000000003C
:10547000000000000000000000000000000000002C
:10548000000000000000000000000000000000001C
:105490000000000000535643616C6C0000000000E7
:1054A0000000000044656275674D6F6E69746F722D
:1054B00000000000000000000000000000000000EC
:1054C000000050656E6453560000000000000000AC
:1054D000005379735469636B000000000000000002
:1054E000444D413000000000000000000000004476
:1054F0004D41310000000000000000000000444D5C
:1055000041320000000000000000000000444D4156
:10551000330000000000000000000000444D413452
:105520000000000000000000000000444D41350074
:1055300000000000000000000000444D4136000063
:10554000000000000000000000444D413700000052
:105550000000000000000000444D41380000000041
:1055600000000000000000444D4139000000000030
:10557000000000000000444D4131300000000000F8
:105580000000000000444D413131000000000000E7
:1055900000000000444D41313200000000000000D6
:1055A000000000444D4131330000000000000000C5
:1055B0000000444D413134000000000000000000B4
:1055C00000444D41313500000000000000000000A3
:1055D000444D415F4572726F720000000000004D43
:1055E000434D000000000000000000000000465491
:1055F000464C000000000000000000000052656101
:10560000645F436F6C6C6973696F6E004C56445FE6
:105610004C565700000000000000004C4C570000A2
:10562000000000000000000000005761746368641F
:105630006F6700000000000000524E4700000000AD
:10564000000000000000000049324330000000006C
:10565000000000000000004932433100000000005B
:10566000000000000000535049300000000000001E
:10567000000000000053504931000000000000000D
:1056800000000000535049320000000000000000FC
:1056900000000043414E305F4F525F4D425F6275E4
:1056A000660043414E305F4275735F4F666600008F
:1056B0000043414E305F4572726F7200000000007F
:1056C00043414E305F54785F5761726E696E674335
:1056D000414E305F52785F5761726E696E67434129
:1056E0004E305F57616B655F557000000052657307
:1056F000657276656435310000000000526573659F
:10570000727665643532000000000043414E315F1F
:105710004F525F4D425F6275660043414E315F42BA
:1057200075735F4F666600000043414E315F4572FE
:10573000726F72000000000043414E315F54785F89
:105740005761726E696E6743414E315F52785F57A1
:1057500061726E696E6743414E315F57616B655F81
:1057600055700000005265736572766564353900C6
:105770000000000052657365727665643630000083
:1057800000000055415254305F52585F5458000099
:10579000000055415254305F455252000000000055
:1057A0000055415254315F52585F54580000000078
:1057B00055415254315F45525200000000000055DF
:1057C000415254325F52585F545800000000554116
:1057D0005254325F455252000000000000554152C1
:1057E00054335F52585F54580000000055415254E2
:1057F000335F4552520000000000005541525434BE
:105800005F52585F54580000000055415254345FB5
:1058100045525200000000000055415254355F527D
:10582000585F54580000000055415254355F4552AE
:10583000520000000000004144433000000000001E
:10584000000000000000414443310000000000005F
:105850000000000000434D50300000000000000038
:1058600000000000434D5031000000000000000027
:10587000000000434D503200000000000000000016
:10588000000046544D300000000000000000000001
:105890000046544D310000000000000000000000F0
:1058A00046544D320000000000000000000000439C
:1058B0004D540000000000000000000000005254A1
:1058C000430000000000000000000000005265736B
:1058D000657276656438330000000000504954302A
:1058E000000000000000000000000050495431009A
:1058F0000000000000000000000050495432000089
:105900000000000000000000005049543300000077
:105910000000000000000000504442300000000081
:10592000000000000000005553423000000000005D
:1059300000000000000055534244434400000000B2
:105940000000000000454E45545F313538385F5443
:10595000696D6572454E45545F5472616E736D6931
:10596000740000454E45545F526563656976650075
:105970000000454E45545F4572726F720000000092
:105980000049325330000000000000000000000019
:1059900053444843000000000000000000000044A1
:1059A00041433000000000000000000000004441BE
:1059B0004331000000000000000000000054534983
:1059C0003000000000000000000000004D434700D0
:1059D00000000000000000000000004C5054696D01
:1059E0006572000000000000000052657365727669
:1059F000656431303200000000504F5254410000C5
:105A00000000000000000000504F5254420000000F
:105A100000000000000000504F52544300000000FE
:105A2000000000000000504F5254440000000000ED
:105A30000000000000504F525445000000000000DC
:105A4000000000005265736572766564313038007D
:105A5000000000526573657276656431303900006C
:105A60000000526573657276656431313000000064
:105A70000052657365727665643131310000000053
:105A800052657365727665643131320000000052F0
:105A900065736572766564313133000000005265CC
:105AA00073657276656431313400000000526573AD
:105AB00065727665643131350000000052657365AA
:105AC000727665643131360000000052657365728C
:105AD0007665643131370000000052657365727677
:105AE0006564313138000000005265736572766577
:105AF0006431313900000000008003400090034011
:105B000000800B4000F00F4040F00F4080F00F404D
:105B1000C0F00F4000F10F40F0000A1D30001800E7
:105B200032001801600018186400181A6E00181F5F
:105B3000780013187D00131A8200131C8C000E12BB
:105B400096000E15A0000E18AA000E1BB4000E1E23
:105B5000C8000C1CE1000B1EFA000A1F0001090816
:105B60000090044000A0044000B0044000C0044085
:105B700000D0044000A0064000B0064000C006402F
:105B800000D0064000A00E4000B00E400100000012
:105B900002002C01030096000400500005003C00A8
:105BA00006000000070000000800200000000000C0
:105BB00001000000020000000300000004000000DB
:105BC00005000000060000000700000008000000BB
:105BD000080000006A6E6B6C676D4E4F34353637C7
:105BE0000C7700000C7700000C7700000C770000A9
:105BF0000C7700000C7700000C770000FFFFFFFF20
:105C0000FFFFFFFF0E7700000C7700000C7700000D
:105C1000FFFFFFFFFFFF000002040101204AFF1FFA
:105C2000704AFF1F204AFF1F204AFF1F000000008C
:105C3000204AFF1F00000000880CFF1F740CFF1F8C
:105C40000000000000000000000000000000000054
:105C50000000000000000000000000000000000044
:105C60008000800001000000000000000000000033
:105C700000000000000000000000183C3C3C181828
:105C80001800181800000000006666662400000076
:105C900000000000000000000000006C6CFE6C6C56
:105CA0006CFE6C6C0000000018187CC6C2C07C063C
:105CB00086C67C181800000000000000C2C60C1840
:105CC0003060C686000000000000386C6C3876DC5E
:105CD000CCCCCC76000000000030303060000000FA
:105CE000000000000000000000000C1830303030D0
:105CF0003030180C00000000000030180C0C0C0CA8
:105D00000C0C1830000000000000000000663CFF92
:105D10003C66000000000000000000000018187E33
:105D20001818000000000000000000000000000043
:105D3000001818183000000000000000000000FEED
:105D40000000000000000000000000000000000053
:105D500000001818000000000000000002060C18E7
:105D60003060C0800000000000007CC6C6CED6D6E1
:105D7000E6C6C67C00000000000018387818181825
:105D80001818187E0000000000007CC6060C1830B1
:105D900060C0C6FE0000000000007CC606063C068F
:105DA0000606C67C0000000000000C1C3C6CCCFE0B
:105DB0000C0C0C1E000000000000FEC0C0C0FC0E59
:105DC0000606C67C0000000000003860C0C0FCC6AB
:105DD000C6C6C67C000000000000FEC606060C1801
:105DE000303030300000000000007CC6C6C67CC6E3
:105DF000C6C6C67C0000000000007CC6C6C67E0683
:105E000006060C78000000000000000018180000D2
:105E10000018180000000000000000001818000022
:105E20000018183000000000000000060C18306058
:105E300030180C0600000000000000000000FE000A
:105E400000FE0000000000000000006030180C069A
:105E50000C1830600000000000007CC6C60C18184A
:105E600018001818000000000000007CC6C6DEDE26
:105E7000DEDCC07C00000000000010386CC6C6FEEE
:105E8000C6C6C6C6000000000000FC6666667C66EA
