:10000000F8FF002011040000AF190000AF19000034
:10001000AF190000AF190000AF190000AF190000C0
:10002000AF190000AF190000AF190000AF190000B0
:10003000AF190000AF190000AF190000AF190000A0
:10004000AF190000AF190000AF190000AF19000090
:10040000FFFFFFFFFFFFFFFFFFFFFFFFFEFFFFFFFD
:1004100062B605F00DFDFEE72DE9F843002420004B
:10042000C0B2082808DA0022012114F14000C0B24D
:1004300001F016F9641CF2E700220121492001F0C5
:100440000FF9012201214A2001F00AF901220121BC
:100450004B2001F005F9002201214C2001F000F9A8
:10046000002201214D2001F0FBF84FF4A07149203A
:1004700001F092F94FF4A0714A2001F08DF94FF488
:10048000A0714B2001F088F94FF4A0714C2001F0CD
:1004900083F9DFF8000A00210160012101604FF4B7
:1004A000FA7001F0EEF9DFF8D85901202860DFF882
:1004B000D46900203060DFF8D07900203860DFF8A0
:1004C000CC89112088F80000DFF8C4990020C9F811
:1004D00000000120C9F8000001203860782001F0F8
:1004E000D0F9012028600020306000203860B12061
:1004F00088F800000020C9F800000120C9F80000B9
:100500000120386001202860012030600020386020
:10051000052088F800000020C9F800000120C9F873
:100520000000012038600120286001203060002098
:1005300038603A2088F800000020C9F80000012047
:10054000C9F80000012038600120286001203060D7
:10055000002038603A2088F800000020C9F8000028
:100560000120C9F800000120386001202860002027
:10057000306000203860B22088F800000020C9F800
:1005800000000120C9F80000012038600120286027
:100590000120306000203860052088F8000000202D
:1005A000C9F800000120C9F80000012038600120CE
:1005B000286001203060002038603A2088F8000070
:1005C0000020C9F800000120C9F8000001203860AF
:1005D0000120286001203060002038603A2088F82F
:1005E00000000020C9F800000120C9F80000012027
:1005F0003860012028600020306000203860B3207F
:1006000088F800000020C9F800000120C9F80000A7
:10061000012038600120286001203060002038600F
:10062000052088F800000020C9F800000120C9F862
:100630000000012038600120286001203060002087
:1006400038603A2088F800000020C9F80000012036
:10065000C9F80000012038600120286001203060C6
:10066000002038603A2088F800000020C9F8000017
:100670000120C9F800000120386001202860012015
:10068000306000203860052088F800000020C9F89C
:1006900000000120C9F80000012038600120286016
:1006A00001203060002038603A2088F800000020E7
:1006B000C9F800000120C9F80000012038600120BD
:1006C000286001203060002038603A2088F800005F
:1006D0000020C9F800000120C9F80000012038609E
:1006E000012028600020306000203860B42088F8A5
:1006F00000000020C9F800000120C9F80000012016
:100700003860012028600120306000203860072018
:1007100088F800000020C9F800000120C9F8000096
:1007200001203860012028600020306000203860FF
:10073000C02088F800000020C9F800000120C9F896
:100740000000012038600120286001203060002076
:100750003860282088F800000020C9F80000012037
:10076000C9F80000012038600120286001203060B5
:1007700000203860082088F800000020C9F8000038
:100780000120C9F800000120386001202860012004
:10079000306000203860842088F800000020C9F80C
:1007A00000000120C9F80000012038600120286005
:1007B0000020306000203860C12088F80000002050
:1007C000C9F800000120C9F80000012038600120AC
:1007D00028600120306000203860C02088F80000C8
:1007E0000020C9F800000120C9F80000012038608D
:1007F000012028600020306000203860C22088F886
:1008000000000020C9F800000120C9F80000012004
:1008100038600120286001203060002038600C2002
:1008200088F800000020C9F800000120C9F8000085
:1008300001203860012028600120306000203860ED
:10084000002088F800000020C9F800000120C9F845
:100850000000012038600120286000203060002066
:100860003860C32088F800000020C9F8000001208B
:10087000C9F80000012038600120286001203060A4
:10088000002038608C2088F800000020C9F80000A3
:100890000120C9F8000001203860012028600120F3
:1008A0003060002038602A2088F800000020C9F855
:1008B00000000120C9F800000120386001202860F4
:1008C0000020306000203860C42088F8000000203C
:1008D000C9F800000120C9F800000120386001209B
:1008E000286001203060002038608A2088F80000ED
:1008F0000020C9F800000120C9F80000012038607C
:10090000012028600120306000203860EE2088F847
:1009100000000020C9F800000120C9F800000120F3
:100920003860012028600020306000203860C52039
:1009300088F800000020C9F800000120C9F8000074
:1009400001203860012028600120306000203860DC
:100950000C2088F800000020C9F800000120C9F828
:100960000000012038600120286000203060002055
:100970003860E02088F800000020C9F8000001205D
:10098000C9F8000001203860012028600120306093
:1009900000203860052088F800000020C9F8000019
:1009A0000120C9F8000001203860012028600120E2
:1009B0003060002038601A2088F800000020C9F854
:1009C00000000120C9F800000120386001202860E3
:1009D00001203060002038600C2088F800000020E2
:1009E000C9F800000120C9F800000120386001208A
:1009F000286001203060002038600E2088F8000058
:100A00000020C9F800000120C9F80000012038606A
:100A10000120286001203060002038603A2088F8EA
:100A200000000020C9F800000120C9F800000120E2
:100A300038600120286001203060002038603420B8
:100A400088F800000020C9F800000120C9F8000063
:100A500001203860012028600120306000203860CB
:100A60002D2088F800000020C9F800000120C9F8F6
:100A70000000012038600120286001203060002043
:100A800038602F2088F800000020C9F800000120FD
:100A9000C9F8000001203860012028600120306082
:100AA000002038602D2088F800000020C9F80000E0
:100AB0000120C9F8000001203860012028600120D1
:100AC0003060002038602A2088F800000020C9F833
:100AD00000000120C9F800000120386001202860D2
:100AE00001203060002038602F2088F800000020AE
:100AF000C9F800000120C9F8000001203860012079
:100B0000286001203060002038603C2088F8000018
:100B10000020C9F800000120C9F800000120386059
:100B2000012028600120306000203860002088F813
:100B300000000020C9F800000120C9F800000120D1
:100B400038600120286001203060002038600120DA
:100B500088F800000020C9F800000120C9F8000052
:100B600001203860012028600120306000203860BA
:100B7000022088F800000020C9F800000120C9F810
:100B80000000012038600120286001203060002032
:100B90003860102088F800000020C9F8000001200B
:100BA000C9F8000001203860012028600020306072
:100BB00000203860E12088F800000020C9F800001B
:100BC0000120C9F8000001203860012028600120C0
:100BD000306000203860042088F800000020C9F848
:100BE00000000120C9F800000120386001202860C1
:100BF00001203060002038601B2088F800000020B1
:100C0000C9F800000120C9F8000001203860012067
:100C1000286001203060002038600D2088F8000036
:100C20000020C9F800000120C9F800000120386048
:100C30000120286001203060002038600E2088F8F4
:100C400000000020C9F800000120C9F800000120C0
:100C500038600120286001203060002038602D209D
:100C600088F800000020C9F800000120C9F8000041
:100C700001203860012028600120306000203860A9
:100C8000292088F800000020C9F800000120C9F8D8
:100C90000000012038600120286001203060002021
:100CA0003860242088F800000020C9F800000120E6
:100CB000C9F8000001203860012028600120306060
:100CC00000203860292088F800000020C9F80000C2
:100CD0000120C9F8000001203860012028600120AF
:100CE000306000203860282088F800000020C9F813
:100CF00000000120C9F800000120386001202860B0
:100D00000120306000203860262088F80000002094
:100D1000C9F800000120C9F8000001203860012056
:100D200028600120306000203860312088F8000001
:100D30000020C9F800000120C9F800000120386037
:100D40000120286001203060002038603B2088F8B6
:100D500000000020C9F800000120C9F800000120AF
:100D600038600120286001203060002038600020B9
:100D700088F800000020C9F800000120C9F8000030
:100D80000120386001202860012030600020386098
:100D9000002088F800000020C9F800000120C9F8F0
:100DA0000000012038600120286001203060002010
:100DB0003860032088F800000020C9F800000120F6
:100DC000C9F800000120386001202860012030604F
:100DD00000203860122088F800000020C9F80000C8
:100DE0000120C9F80000012038600120286000209F
:100DF0003060002038603A2088F800000020C9F8F0
:100E000000000120C9F8000001203860012028609E
:100E10000120306000203860052088F800000020A4
:100E2000C9F800000120C9F8000001203860012045
:100E300028600020306000203860292088F80000F9
:100E40000020C9F800000120C9F800000120386026
:100E50000120286000203060002038602C2088F8B5
:100E600000000020C9F800000120C9F8000001209E
:100E70003860DFF8C807007800F00EF8BDE8F183AD
:100E80002810FE433010FE432C10FE4380F00F402C
:100E90002410FE433410FE4370B504002000C0B29D
:100EA000042804DBC821DFF8980700F015FDDFF8FF
:100EB0008C0704702000C0B2002808D0022800F07F
:100EC0007C81C0F0BF80032800F03082E2E2DFF8CE
:100ED000740701210160DFF8701700220A60DFF853
:100EE0006C2700231360DFF8683736251D70DFF8A4
:100EF000645700262E6001262E600126166001260A
:100F0000066001260E6000261660C8261E700026A8
:100F10002E6001262E60012616600126066000263E
:100F20000E60002616602A261E7000262E600126FE
:100F30002E60012616600126066001260E6000263E
:100F4000166000261E7000262E6001262E600126E7
:100F500016600126066001260E6000261660022635
:100F60001E7000262E6001262E60012616600126C6
:100F7000066001260E600026166000261E70002600
:100F80002E6001262E6001261660012606600126CD
:100F90000E600026166081261E7000262E60012637
:100FA0002E60012616600126066000260E600026CF
:100FB00016602B261E7000262E6001262E6001264C
:100FC00016600126066001260E60002616600026C7
:100FD0001E7000262E6001262E6001261660012656
:100FE000066001260E600026166003261E7000268D
:100FF0002E6001262E60012616600126066001265D
:101000000E600026166000261E7000262E60012647
:101010002E6001261660012606600120086000206F
:1010200010608220187000202860012028600120B4
:1010300010608020DFF8201608808020DFF81C1662
:10104000088027E2DFF8FC0501210160DFF8F815D0
:1010500000220A60DFF8F42500231360DFF8F03582
:1010600036251D70DFF8EC5500262E6001262E6017
:10107000012616600126066001260E600026166015
:10108000A8261E7000262E6001262E6001261660FE
:101090000126066000260E60002616602A261E70B5
:1010A00000262E6001262E600126166001260660AD
:1010B00001260E600026166000261E7000262E6097
:1010C00001262E60012616600126066001260E60AC
:1010D0000026166003261E7000262E6001262E6054
:1010E000012616600126066001260E6000261660A5
:1010F00000261E7000262E6001262E600126166036
:101100000126066001260E600026166082261E70EB
:1011100000262E6001262E6001261660012606603C
:1011200000260E60002616602B261E7000262E60FC
:1011300001262E60012616600126066001260E603B
:101140000026166000261E7000262E6001262E60E6
:10115000012616600126066001260E600026166034
:1011600002261E7000262E6001262E6001261660C3
:101170000126066001260E600026166000261E70FD
:1011800000262E6001262E600126166001260660CC
:101190000120086000201060812018700020286065
:1011A00001202860012010608020DFF8AC14088046
:1011B0008020DFF8A81408806CE1DFF888040121A2
:1011C0000160DFF8841400220A60DFF88024002325
:1011D0001360DFF87C3436251D70DFF87854002664
:1011E0002E6001262E60012616600126066001266B
:1011F0000E600026166008261E7000262E6001264E
:101200002E60012616600126066000260E6000266C
:1012100016602A261E7000262E6001262E600126EA
:1012200016600126066001260E6000261660002664
:101230001E7000262E6001262E60012616600126F3
:10124000066001260E600026166002261E7000262B
:101250002E6001262E6001261660012606600126FA
:101260000E600026166000261E7000262E600126E5
:101270002E60012616600126066001260E600026FB
:10128000166081261E7000262E6001262E60012623
:1012900016600126066000260E60002616602B26CA
:1012A0001E7000262E6001262E6001261660012683
:1012B000066001260E600026166000261E700026BD
:1012C0002E6001262E60012616600126066001268A
:1012D0000E600026166003261E7000262E60012672
:1012E0002E60012616600126066001260E6000268B
:1012F000166000261E7000262E6001262E60012634
:10130000166001260660012008600020106082201F
:1013100018700020286001202860012010608020C3
:10132000CD4908808020CD490880B3E0C54801211F
:101330000160C54900220A60C44A00231360C44BFF
:1013400036251D70C34D00262E6001262E60012615
:1013500016600126066001260E60002616606826CB
:101360001E7000262E6001262E60012616600126C2
:10137000066000260E60002616602A261E700026D3
:101380002E6001262E6001261660012606600126C9
:101390000E600026166000261E7000262E600126B4
:1013A0002E60012616600126066001260E600026CA
:1013B000166003261E7000262E6001262E60012670
:1013C00016600126066001260E60002616600026C3
:1013D0001E7000262E6001262E6001261660012652
:1013E000066001260E600026166082261E7000260A
:1013F0002E6001262E60012616600126066000265A
:101400000E60002616602B261E7000262E60012618
:101410002E60012616600126066001260E60002659
:10142000166000261E7000262E6001262E60012602
:1014300016600126066001260E6000261660022650
:101440001E7000262E6001262E60012616600126E1
:10145000066001260E600026166000261E7000261B
:101460002E6001262E6001261660012606600120EE
:101470000860002010608120187000202860012082
:101480002860012010608020734908808020734903
:101490000880FFE770BD73B468480078C0070AD5BC
:1014A000BDF80000C01CADF80000BDF80200801CB3
:1014B000ADF8020009E0BDF80000801CADF80000A6
:1014C000BDF80200C01CADF802005E4901200860B2
:1014D0005D4A002010605D4B002018605C4C2A20A3
:1014E00020705C4D002028600120286001201860D9
:1014F000012008600120106000201860BDF8000085
:1015000080B2000A2070002028600120286001209D
:101510001860012008600120106000201860BDF8EC
:101520000000207000202860012028600120186041
:10153000012008600120106000201860BDF8000044
:10154000BDF8046016FA80F0401E001220700020E2
:101550002860012028600120186001200860012017
:10156000106000201860BDF80060BDF80400861906
:10157000701E207000202860012028600120186063
:101580000120086000201060002018602B202070CF
:1015900000202860012028600120186001200860D8
:1015A0000120106000201860BDF8020080B2000A1F
:1015B0002070002028600120286001201860012090
:1015C00008600120106000201860BDF80200207043
:1015D0000020286001202860012018600120086098
:1015E0000120106000201860BDF80200BDF8066000
:1015F00016FA80F0401E00122070002028600120A2
:10160000286001201860012008600120106000207F
:101610001860BDF80210BDF806004118481E207081
:1016200000202860012028600120186073BC7047EA
:101630000948008870470948008870475647FF1FCF
:101640008C6200002810FE433010FE432C10FE4335
:1016500080F00F402410FE43880CFF1F8A0CFF1FF0
:10166000F8B504000D0016004FF480712000C0B2E0
:1016700000F092F8280040B2002812D1444821001E
:10168000C9B2491150F821102200D2B2521150F8BB
:1016900022004269012314F01F0083409A434A61EB
:1016A00038E001213A4A2000C0B2401152F820002F
:1016B0002300DBB25B1152F823305B6914F01F0783
:1016C00011FA07F73B4343613000C0B2002811D143
:1016D0002000C0B2401152F82000036814F01F002F
:1016E000814033EA01012000C0B2401152F82000CD
:1016F00001600FE02000C0B2401152F820000368E2
:1017000014F01F00814019432000C0B2401152F86C
:1017100020000160F1BD38B504001D4D2000C0B2AD
:10172000401155F82000406914F01F01C840C0075F
:1017300003D47B21174800F0CFF82000C0B240113D
:1017400055F82010012214F01F008240CA6031BDFC
:1017500038B504000E4D2000C0B2401155F82000ED
:10176000406914F01F01C840C00703D58C21094807
:1017700000F0B2F82000C0B2401155F82000006916
:1017800014F01F04E04010F0010032BD0000000022
:101790002C0BFF1FA063000030B42B4B1C684FF4D0
:1017A00000750200D2B2520995402C431C60274BB1
:1017B0000200D2B2521153F82240012510F01F024C
:1017C0009540C4F8A0500200D2B2521153F8222022
:1017D0000300DBB213F01F0342F8231030BC704744
:1017E00030B4194B1C684FF400750200D2B2520994
:1017F00095402C431C60154B0200D2B2521153F895
:101800002240012510F01F029540C4F8A05031F489
:10181000E0610200D2B2521153F822200400E4B277
:1018200014F01F0452F8242012F4E0621143020065
:10183000D2B2521153F822200300DBB213F01F037F
:1018400042F8231030BC704738800440880BFF1FDB
:1018500010B50400002C13D0B4F1807F03D32921EC
:101860000E4800F039F80E48002101600D490C6067
:1018700000210D4A1160052101600168C903FCD5F2
:1018800010BD10B504002000441E002804D00748F5
:101890000068FFF7DDFFF6E710BD00000063000001
:1018A00010E000E014E000E018E000E0F046FF1F68
:1018B000DFF800F0BD0CFF1FDFF800F0E70CFF1FA2
:1018C000BFF34F8F46490A6812F4E062454802436D
:1018D0000A60BFF34F8FFEE738B504000D0000200B
:1018E00000F08EF82A0021003F4800F0C9F80020DF
:1018F00000F0A6F84FF47A70FFF7C3FFF2E738B5AF
:1019000004000D00210049B2042000F0E4F9200099
:1019100032BD10B50024042000F024FA042000F0A9
:101920005BFA002842D1002000F06AF8042000F0A1
:1019300053FA012801D101200400002000F080F8B2
:101940002A4800F09DF84FF4FA70FFF79AFF200044
:10195000C0B20128EAD1042000F03EFA0028E5D107
:10196000042000F039FA002806D1002000F068F8C1
:101970006420FFF786FFF3E7042000F02DFA01282A
:1019800006D1002000F05CF83220FFF77AFFF3E781
:10199000174800F075F8FFF78BFF6420FFF771FF21
:1019A0000020FFF789FFFFF78BFFBFE710BD10B5E1
:1019B00010480468012000F023F8012000F040F8EE
:1019C0000D492200D2B20F2042430A442100C9B27D
:1019D0000A4800F055F84FF47A70FFF752FFECE731
:1019E0000CED00E00400FA056064000008650000EA
:1019F0009464000004ED00E01804FF1F5062000032
:101A000010B50400200040B2042808DA01220121A8
:101A10001A4823005BB2C05CFFF722FE0FE00420EF
:101A200004002000441E40B2002808D001220121F9
:101A3000124823005BB2C05CFFF712FEF1E710BD55
:101A400010B50400200040B2042806DA0B4821003B
:101A500049B2405CFFF75FFE0DE004200400200067
:101A6000441E40B2002806D00448210049B2405C20
:101A7000FFF751FEF3E710BD00000000040CFF1F4C
:101A80000EB4C0B5024603A800210190009101AB3D
:101A90000121044878440C3000F0B6F906BC5DF82A
:101AA00010FB00BF434A0000012210F01F018A40D2
:101AB000DFF8941203005BB25B0941F82320704702
:101AC0002DE9F84304000D00200040B2002808D0A2
:101AD000022828D016D3042847D035D3052855D05E
:101AE00065E0DFF86802016851F4806101604FF43D
:101AF00040716620FFF750FE4FF440716720FFF7FA
:101B00004BFE54E0DFF84402016851F400610160CB
:101B10004FF440714320FFF73FFE4FF440714420E3
:101B2000FFF73AFE43E0DFF82402016851F48051E8
:101B300001604FF440716320FFF72EFE4FF44071B7
:101B40006220FFF729FE32E0DFF80002016851F45D
:101B5000005101604FF440715020FFF71DFE4FF41B
:101B600040715120FFF718FE21E0DFF8E401016821
:101B700051F4806101604FF440714E20FFF70CFE7C
:101B80004FF440714F20FFF707FE10E0DFF8C0016F
:101B9000016851F4006101604FF440718920FFF742
:101BA000FBFD4FF440718820FFF7F6FDFFE7DFF8FB
:101BB000A461200040B256F82000C07810F0F30075
:101BC000210049B256F82110C870200040B256F8E2
:101BD00020008078210049B256F82110887020003A
:101BE00040B2002803D0200040B2012806D1DFF81F
:101BF000680107684FF47A70474305E0DFF85C013D
:101C000007684FF47A7047432801B7FBF0F8404665
:101C100080B2B0F5005F02DB41F6FF708046B7FB93
:101C2000F5F9404680B2B9EB0019484680B2202849
:101C300003DBDC214A48FFF74FFE200040B256F894
:101C40002000007810F0E000C8F3042101432200D6
:101C500052B256F822201170210049B256F82110D4
:101C600081F80180210049B256F82110897A11F0DB
:101C7000E00119F01F020A4323005BB256F823303B
:101C80009A72220052B256F82220127C52F0880238
:101C900023005BB256F823301A74220052B256F871
:101CA0002220D27852F00C0223005BB256F8233087
:101CB000DA70BDE8F183274A03005BB252F82330A3
:101CC0001B799B06F7D503005BB252F8232092F9EB
:101CD00007200A7070471F4A03005BB252F8233096
:101CE0001B791B06F7D503005BB252F82320D17194
:101CF000704770B504000D0016003000461E002825
:101D000009D095F90000010049B2200040B2FFF768
:101D1000E2FF6D1CF1E770BD10B504000D48210015
:101D200049B250F82110C97851F02001220052B276
:101D300050F82200C170200040B240002D3040B267
:101D4000FFF7B2FE10BD000000E100E03480044067
:101D5000288004409C0BFF1FF046FF1FF846FF1F22
:101D6000D463000038B50400200040B208280EDA21
:101D7000244D00220021200040B2285CFFF770FCB7
:101D80000321200040B2285CFFF72AFD15E008205F
:101D900004002000441E40B200280ED0194D00223D
:101DA0000021200040B2285CFFF75AFC03212000EC
:101DB00040B2285CFFF714FDEBE731BD10B504001D
:101DC0001048210049B2405CFFF7C2FC002801D155
:101DD000002000E0012010BD10B50400200040B23A
:101DE000FFF7ECFF00280AD10A20FFF74AFD200088
:101DF00040B2FFF7E3FF002801D1002000E00120FE
:101E000010BD0000FC0BFF1F2DE9F0439FB00FF643
:101E1000A836269CDFF804898DF83B400291002407
:101E20000B944FF0FF37044691461D460AE019F81F
:101E3000011B0298A0470028029000F0A1800B9897
:101E4000401C0B9099F8000050B12528EFD10021DB
:101E50000022059106920791089209910A9203E0E7
:101E60000B98A0E041F0010119F8010F2028F9D0EA
:101E700023280CD02B2804D02D2805D0302809D0B9
:101E800080E041F00201EFE741F00401ECE741F0AE
:101E90000801E9E741F01001E6E70D920AE00D982C
:101EA000404505DA00EB800002EB4002303A0D922B
:101EB00009F1010999F80020A2F130000A28EED3B7
:101EC00099F800002E2818BF0C9726D119F8010F99
:101ED0002A2808D12868286009F1010950F8042B44
:101EE00028600C9219E02D280CBF09F1010900208F
:101EF00000220C920BE040B90C9A424505DA02EB45
:101F0000820203EB4203303B0C9309F1010999F87B
:101F10000030A3F130020A2AEDD3ADF83810304674
:101F200099F8001000F098FD08B119F8010B8DF830
:101F30003A009DF83A00682805D199F80000682811
:101F40000CD1622106E06C2804BF99F800006C28CF
:101F500004D171218DF83A1009F1010910A80490FB
:101F60002A4619F8013B6946204600F05CF838B96A
:101F700010AA6946204600F086F900287FF562AF76
:101F8000384610E02A2888D12A682A6052F8040BC3
:101F90002A6000280D9003D540420D9041F00401C5
:101FA00009F101098CE71FB0BDE8F083622820D059
:101FB000682811D06A2803D06C2827D0712825D131
:101FC0000868C01D20F007000860D0E90023083031
:101FD0000860194610467047002A0A680A601068AF
:101FE00003D0121D0A6000B217E0121D0A6080B211
:101FF00017E0002A0A680A60106803D0121D0A6000
:1020000040B20AE0121D0A60C0B20AE0002A0A6863
:102010000A60106803D0121D0A60C1177047121DB4
:102020000A600021704770B51C460D46B4F12500CA
:102030002E69114600F015812038022863D9133823
:1020400040D00B3816D0401E1ED0401E02285AD950
:10205000001F19D0401F00F08180401E32D0401E6A
:1020600000F0CB80C01E00F0DA80801E2AD0C01E97
:1020700028D0FCE06869421C6A610A680A6052F86C
:10208000043B0A603354FCE095F83A000122FFF764
:102090008DFFC5E90001002904D56869411C69610B
:1020A0002D220DE0288F810704D56869411C6961E4
:1020B0002B2205E0C00721D56869411C69612022F7
:1020C00032541BE095F83A000022FFF76FFFC5E994
:1020D000000195F83800010710D5D5E90023002B41
:1020E00008BF002A0AD044F02000782806D1686989
:1020F00030213154401C421C6A61345421466869C5
:102100003044E86087E00868C01D20F007000860E0
:10211000D0E9002308300860C5E90023D5E90001B3
:10212000C80F04D06869411C69612D220DE0288F19
:10213000810704D56869411C69612B2205E0C0074D
:1021400004D56869411C69612022325468693044B1
:10215000E8602146284600F0C4F992E005F13A0211
:10216000507820B14FF0FF340FF6540062E0107841
:10217000622808D0682824D06A2812D06C282ED073
:1021800071280ED02BE00A680A6052F8040B0A602E
:1021900020B94FF0FF340FF640004BE0E96A0170C0
:1021A0006FE00A680A6052F8040B0A6020B94FF029
:1021B000FF340FF624003DE0EA6AD317C0E900239C
:1021C0005FE00A680A6052F8040B0A6020B94FF019
:1021D000FF340FF604002DE0E96A018051E00A683F
:1021E0000A6052F8040B0A6020B94FF0FF340FF276
:1021F000E8701FE0E96A016043E00A680A6052F88B
:10220000040B0A60002120F0000221F0FF33C5E931
:102210000023EE607821284600F0BBF831E0086822
:10222000086050F8044B0860EC603CB94FF0FF3494
:102230000FF2BC7000F01CFC201A70BD2E6B002E3B
:1022400004D5204600F034FC044608E03246002164
:10225000204600F049FC002814BF041B3446AC6142
:102260000FE06869411C69612522325409E06969FF
:10227000481C686125227254210002D0431C6B6106
:102280003454002070BD2DE9FC410F4606469046AF
:102290007A6B7869396ABC6A121AB869521A796A13
:1022A000121AF869521A121A97F83800141B4107CB
:1022B0000FD42020002C8DF800000ADD25460123D4
:1022C0006A463946304600F05FFB00285DD16D1E3E
:1022D000F5D17B6942463946304600F055FB00286F
:1022E00053D130208DF800003D6A002D09DD012317
:1022F0006A463946304600F047FB002845D16D1E3E
:10230000F5D1BB69FA683946304600F03DFB00283C
:102310003BD130208DF800007D6A002D08DD0123BF
:102320006A463946304600F02FFB70BB6D1EF6D171
:10233000F868B969FB6942183946304600F024FB59
:1023400018BB30208DF80000BD6A002D08DD012388
:102350006A463946304600F017FBB0B96D1EF6D11B
:1023600097F8380041070DD52020002C8DF800008B
:1023700008DD01236A463946304600F005FB20B9E6
:10238000641EF6D10020BDE8F6814FF0FF30BDE8B5
:10239000F6812DE9FC4307466F293E6908BF0824F2
:1023A00005D041F02000782814BF0A2410243C25D1
:1023B000D7E90023642918BF69299046994605D1B9
:1023C000002B03D5D8F1000869EB4909B9F1000FDA
:1023D00008BFB8F1000F1FD1386BE8B9082C4CD1F9
:1023E00097F83800010748D530203B2586F83B0098
:1023F00043E000280ED597F8380000F014001028AC
:1024000008D17B6B7969386A5B1A1B1A9A1A002A01
:10241000C8BF3A62BDE8F3838DF8001040464946D4
:102420002246E31700F08CFB3032D0B26D1E3A2802
:10243000019504DB9DF80000A0F151018A18725546
:10244000404649462246E31700F07AFB80465FEAA1
:10245000010908BFB8F1000F03D0F868711988426C
:10246000DCD3082C09D197F83800010705D5705D39
:10247000302802D06D1E30207055C5F13C02BA6183
:102480007119F960386B8242B3DA821A3A624FF6F8
:10249000EF70398F01403987BDE8F3832DE9D043D0
:1024A00006460F4614464FF00008DFF8749212E01B
:1024B000E00707D542464B463046394600F058FC07
:1024C00006460F464046494642464B4600F050FC01
:1024D000641080468946002CEAD130463946BDE872
:1024E000D0832DE9F047064689468EB0D6E9000133
:1024F000CDE9020104AC306B002802D50620306320
:1025000005E001BF49F02000672801213163D6E9C9
:10251000002358004015401C0DD119030BD0A9F120
:10252000610103201A29B06102D20FF2E04110E0EC
:102530000FF2DC410DE059004915491C0ED118037A
:102540000CD1A9F1610103201A29B06116D30FF251
:10255000C841F068032200F0DDFCDBE023F0004717
:10256000B7F5801F1046194622F000050DD2002253
:10257000002F08BF002D019203D116E00FF2944105
:10258000E7E701AA00F01AFD08E06648664900EB9B
:10259000175001906548034010461943019B644D54
:1025A00047F29752534393FBF5F2C6E9000120F03E
:1025B000000331F0004104BF002B002300F0A28093
:1025C000DDE90240019220F00045D2F1070204DD6E
:1025D00020462946FFF762FF0AE052420020554993
:1025E000FFF75CFF02460B462046294600F01EFD21
:1025F000044649F0200ABAF1660F306B06BF019D10
:102600000A3506252D18142DC8BF142530208846FC
:102610008DF810000DF11107002D33DD20464146E5
:1026200000F028FE01460A4607F1080304200A27A5
:10263000B2FBF7F707EB870EA2EB4E02303203F83E
:10264000012C0A22B7FBF2F202EB820EA7EB4E0737
:102650003037401E03F8027DE9D1083D002D03F11B
:102660000807D9DD084600F019FE02460B46204651
:10267000414600F021FE00222F4B00F079FB04467A
:102680008846CBE70DF111003F1A0DF1110404E06B
:102690000198401E7F1E0190641C20783028F7D0DE
:1026A000BAF1660F02D10198401C04E0BAF1650F3F
:1026B0000CBF01200020336BC3189F42B8BF7B1EA4
:1026C000002B1ED4BB4204DAE05C3528A8BF3920B9
:1026D00000DA30201946621E02EB010800E05B1EA2
:1026E00018F80179491E8742F9D0392802D1605C77
:1026F000401C6054002904D50198401C14465B1C02
:102700000190019800B200901BB222464946304623
:1027100000F014F80EB0BDE8F0870000CBCCCC0C74
:102720000000244002FCFFFF0000E03FFFFF0F809D
:10273000A08601000000F03F84D797412DE9F847BB
:1027400083B005468A469146984600F027FEB8F1C8
:10275000000F406A2F6B067803DC4FF001080FF280
:10276000BC294AF02000BDF93040662808BF641C2F
:1027700013D0672840F08F8014F1040F7ADBBC423D
:1027800078DA95F83800641C010702D4B845B8BF60
:10279000474620B23F1A48BF00270FFA84FAE8687C
:1027A000A969BAF1000F23DC4A1C30234354002FDF
:1027B00003DC95F83800010702D5E8688654521CFE
:1027C00017EB0A0FB8BF7C4224B2E71960424745B5
:1027D000B8BFB846AA6168620FFA88F4EC61E8688D
:1027E000AB6922464946184400F094FB3F1B18E0B1
:1027F00022B29045084416DA4246494600F08AFB68
:10280000A8694044A861AAEB0801002F696203DCB3
:1028100095F838100A0704D5E9680E54E869401C99
:10282000E861AF6299E0494600F074FBA869002FA7
:102830005044A8EB040803DC95F838100A0702D5C9
:10284000E9680E54401CA8610FFA88F08742EB68D3
:10285000A869B8BFB8460FFA88F209EB0A01184414
:1028600000F058FBA9690FFA88F00144A961381AF1
:10287000686272E0B84504DA95F838100A0758BF64
:1028800047467F1E48BF0027BAF1670F0CBF4FF0C5
:10289000650A4FF0450AA969EB68481CA861002F3A
:1028A00019F8012B5A5403DC95F838100A0719D58A
:1028B000E968431CAB610E54002F13DDA8F101063B
:1028C00030B28742D5F80CC0B8BF3E4632B2494656
:1028D0000CEB030000F01EFBA86936B23018BF1BDA
:1028E000A8616F62E868A9690844002C80F800A01C
:1028F00003D42B224270811C03E02D2141706442DD
:10290000811C00206A460AE023460A2493FBF4F463
:1029100004EB8406A3EB460302F8013B401C24B2FF
:10292000002CF1DC012806DC4AF02002652A04BFF5
:10293000302201F8012B48B9302001F8010B07E0E3
:10294000401E1DF80030303301F8013B0028F7DC51
:10295000EA68A8691044091AE96195F8380000F09E
:10296000140010280DD16A69A969686A8A18E96992
:102970008218A86A8A188218686B8242BCBF821AC1
:102980002A6204B0BDE8F087F8B505460E46174642
:102990001C46002074B117F8011BB068A847B0604E
:1029A00030B1F06A401CF0620020641EF3D1F2BD29
:1029B0004FF0FF30F2BD0000686A6C747A4C000082
:1029C0007072696E74665F733A20256E2064697355
:1029D000616C6C6F776564007072696E74663A2022
:1029E00062616420256E20617267756D656E74008A
:1029F0007072696E74665F733A2062616420257339
:102A000020617267756D656E740000006E616E0006
:102A10004E414E00696E6600494E4600300030B4AB
:102A2000002513E050F8042BD30744BFA9F101039C
:102A30009A18091F042942F8045BFAD213468C073E
:102A400044BF15809B1CC90748BF1D7050F8041B6C
:102A50000029E7D130BC7047C9B202788A421AB166
:102A60001CBF10F8012FF9E718BF002070470000C5
:102A700080B500B906A005490B681BB122220021D0
:102A8000984701E000F08EFC222002BDFC46FF1FAB
:102A9000636F6E73747261696E742068616E646CCA
:102AA00065723A20626164206D65737361676500C9
:102AB00000F10103810704D010F8011B820781B1E6
:102AC000FAD10268A2F10131914311F0803104BFC3
:102AD00050F8042FF6E709BAB1FA81F100EBD10002
:102AE000401CC01A70470000C9B2830706D0521EAE
:102AF00022D310F8013B9942F7D11FE0083A13D3D3
:102B000002F1040241EA012141EA014150F8043B8B
:102B1000121F21BF4B40A3F1013C2CEA030C1CF017
:102B2000803FF3D0C9B2001F083210F8013B521E9B
:102B300028BF91EA030FF8D818BF0120401E704744
:102B4000BBBBE1B1B2F5803F80F07E80022A1ED986
:102B50008C46B1FBF2F102FB11C31B0443EA1043A4
:102B6000B3FBF2FC02FB1C3380B240EA0343B3FB2D
:102B7000F2F002FB103240EA0C4000237047022AB8
:102B800005D98446B0FBF2F002FB10C270474AB18F
:102B900005D100F0010249085FEA300070470022C9
:102BA0000023704700F002BC0B000200002100204F
:102BB0007047904271EB030CF6D3B3F5803F2FD2F0
:102BC000F0B5B3FA83F7B1FA81F4A7F10F0E3D1B0C
:102BD0005340CEF1200602FA0EF2F3415340B5F114
:102BE0000F0746D80F3C2C444140C4F12006A040BA
:102BF000F1414140B1FBF3F603FB1611A2FB064580
:102C0000001BA94102D2761E8018594180EA0102B8
:102C100021FA0EF362FA0EF200215A403046F0BD5E
:102C200030B4B1FBF3FC03FB1C11A2FB0C45001BF1
:102C3000A94103D2ACF1010C8018594130BC0246C5
:102C40000B46604600217047B2F1807F65D3F0B536
:102C5000B2FA82F7B1FA81F4C7F10F063D1B22FAEE
:102C600006F307F1110EF24120355A40B5F10F0776
:102C7000B8D94140C4F12006A040F1414140B1FB28
:102C8000F3FC03FB1C11A2FB0C45001BA94103D262
:102C9000BCF1010C801859410F2F12D30F3FC9030B
:102CA00041EA5041B1FBF3F603FB1611A2FB0645C6
:102CB000D4EBC030A94102D2761E8018594146EAB1
:102CC000CC3C07B34140C7F12006B840F141414038
:102CD000B1FBF3F603FB1611A2FB0645001BA9414D
:102CE00002D2761E8018594180EA010221FA0EF3C1
:102CF000C7F1200462FA0EF20CFA07F05A402CFADF
:102D000004F13043F0BD80EA010221FA0EF3002104
:102D100062FA0EF260465A40F0BD8C46B1FBF2F109
:102D200002FB11C31B0243EA1063B3FBF2FC02FB7C
:102D30001C331B024CEA002043EA1063B3FBF2FC95
:102D400002FB1C331B024CEA002043EA1063B3FB76
:102D5000F2FC02FB1C331B024CEA002043EA106326
:102D6000B3FBF2FC02FB1C324CEA0020002370474C
:102D7000B0B581EA030C0CF0004C40F2FF7515EA87
:102D800011541DBF15EA1357AC42AF4239E0E419A4
:102D900023EA455343F48013C90241F0004141EA5C
:102DA000505EC7021100A7FB020200284FF000008E
:102DB000EEFB01204FF00001E3FB072118BF42F0BA
:102DC0000102401800214941E3FB0E01A4F5806493
:102DD0000F0302D252004041494154F101046CDD1D
:102DE000470872F1004250F1000051EB0451A1F587
:102DF00080115CBF41EA0C01B0BD4CEA05510020D6
:102E0000B0BD05EA1357AC4214BFAF4241E050EAEF
:102E1000410E1CBF52EA430E02E061460020B0BDE5
:102E200024423C441BD15FEA070EF6D0090302BFDF
:102E300001460020AEF1140EB1FA81F7AEEB0704A3
:102E400001FA07FE0C37C7F1200100FA07F7C84066
:102E50004EEA000E23EA455343F48013A2E733F011
:102E60000043B3FA83F704BFB2FA82FE77440B3F04
:102E7000E41BB7F1200E2FBF02FA0EF3BB40C7F1DF
:102E8000200E22FA0EFE38BF43EA0E03BA40641C3D
:102E900082E750EA410E14BF52EA430E6FF0000180
:102EA0004FF4001717EB430F8ABF194617EB410F7A
:102EB000B5E74CEA05510020B0BDD4F10104B4F1EE
:102EC00020070FDAC4F12007520828BF42F00102A0
:102ED00010FA07F501FA07F7E1BF2A43E04038434B
:102EE000E1400FE0352C98DCC7F1200452EA4002A3
:102EF00020FA07F218BF42F0010231FA07F0A140B0
:102F00000A43002172F1004250F1000051EB0C0124
:102F1000B0BD000062B38B0708D0521E11F8013B10
:102F200000F8013B00F024808B07F6D1830740F0C6
:102F3000208000BF103A07D330B4B1E83810103AFF
:102F4000A0E83810F9D230BC530724BFB1E808100C
:102F5000A0E8081044BF51F8043B40F8043BD207F6
:102F600024BF31F8022B20F8022B44BF0B780370EA
:102F70007047121F17D35B0009D151F8043B20F8AA
:102F8000023B1B0C121F20F8023BF6D20BE051F85B
:102F9000043B00F8013B1B0A20F8023B1B0C121FEC
:102FA00000F8013BF3D238BF121D521E24BF11F8A6
:102FB000013B00F8013BF8D87047000010B51446FB
:102FC00000F002F8226010BDC1F30A5343B14A0079
:102FD00012F5001F28D2A3F2FE32A1EB0251704776
:102FE00050EA410C20D001F0004C31EA0C01B1FA5A
:102FF00081F204BFB0FA80F3D2180B3AB2F1200389
:103000002CBF00FA03F1914041EA0C013EBFC2F12E
:10301000200C20FA0CF319439040524240F2FD3349
:10302000D21A01EB0351704700227047F0B540F20D
:10303000FF7581EA030C0CF0004C15EA11541DBF1A
:1030400015EA1357AC42AF42E5E0BC41C1F31301AE
:10305000C3F31303801A994143F4801304D2641E0E
:103060004000494180185941C90241EA5051B1FB21
:10307000F3F603FB1611A2FB0675D7EBC020A9419E
:1030800002D2761E80185941C90241EA5051B1FB63
:10309000F3FE03FB1E11A2FB0E75D7EBC020A94166
:1030A00003D2AEF1010E80185941890241EA9051D4
:1030B000760546EA8E2EB1FBF3F603FB1611A2FB52
:1030C0000675D7EB8020A94102D2761E801859419F
:1030D000C90241EA50514EEA060EB1FBF3F603FB7A
:1030E0001611A2FB0675D7EBC020A94102D2761EAD
:1030F00080185941C90241EA5051B1FBF3F703FB73
:103100001711A2FB0735D3EBC020A94167F10007D7
:103110000CBF004247F0010766F3D5274FEA1E3186
:10312000B80814F5806412DDBD0775F1004250EB5C
:103130000E5051EB045111F5801F5CBF41EA0C01A8
:10314000F0BD4CF07F6141F0E0410020F0BDBD07D3
:103150006D0840EA0E5041F48011D4F10104B4F13D
:1031600020060ADAC4F120060200E04001FA06F364
:10317000E1401843B24015430EE0342C13DCC6F195
:10318000200445EA40056D0820FA06F2154321FAAD
:1031900006F0A1400D43002175F1004250F10000FE
:1031A00051EB0C01F0BD00205FEA0C01F0BDCFB97E
:1031B00092185B41B3FA83F704BFB2FA82F6BF19E3
:1031C0000B3FB7F120062FBF02FA06F3BB40C7F151
:1031D000200622FA06F638BF3343BA401CB1E41980
:1031E000641E33E77F4231F00041B1FA81F404BF3D
:1031F000B0FA80F6A4190B3CB4F120062FBF00FAF8
:1032000006F1A140C4F1200620FA06F638BF31438A
:10321000A0403C1B1AE7AC421ABF05EA1357AF4265
:1032200012E050EA41061CBF52EA4306BFE750EAEB
:103230004107304661461CBF41EA0551F0BD52EAE4
:10324000430C08BFC143F0BD00204FF4001616EB3D
:10325000410F98BF16EB430F08BF16EB410F24BF79
:10326000C14305E016EB430F0CBF61464CEA055124
:10327000F0BD0000400D491840EA81200CD2490DF4
:10328000A1F58061491C40F0004005DBD1F11F0130
:1032900054BFC840C017704700207047014648B16E
:1032A000B0FA80F18840C91CC1F58461090501EBC1
:1032B000D02140057047000070B44FF0004591EAFE
:1032C000030F40F17D806B40841A71EB030603D23B
:1032D000001BB141121973414FF4001C1CEB410F4C
:1032E00034BF7CEB430442E00C0DA4EB1356352EA7
:1032F0004FDC45EAC323DB0A45EAC121C912B6F116
:1033000020050DDD63FA05F6EB4086EA030512425F
:1033100018BF45F00105C01851F100010CD213E0AF
:1033200062FA06F5F2405540F3415A40B340F3408B
:103330005A408018594107D349085FEA30005FEAD4
:10334000350528BF45F0010501F58011420875F1EA
:10335000004250F1000041EB04514E0016F5001FF1
:1033600070BC38BF70470020090D090570471CEB81
:10337000410F10D252EA43060BD0BCEB410F05D8E7
:103380000C0DAB43661E342EB6DD02E0AB43801855
:10339000594170BC704770BC7047000000487047CE
:1033A000080CFF1F012000F0C1B8000070470000AA
:1033B00070B44FF0004591EA030F7FF585AF6B4085
:1033C000841A71EB030604D26E40001BB14112193E
:1033D00073414FF4001C1CEB410F34BF7CEB4306E0
:1033E00083E00C0DA4EB1356362E00F37C80012EE7
:1033F00045EAC32341DC43EA525312BFD202920290
:103400005B08240545EAC12141EA5051D2EBC020B6
:10341000994125D407D1B0FA80F610FA06F162D0AE
:103420000020203608E0B1FA81F6B140C6F1200252
:1034300020FA02F21143B0404FEAF474B4EB465460
:1034400034F001064FEA74040AD8D6F50016760D5A
:1034500004F00044F04061FA06F25040F140484068
:10346000C00A40EA415021F0004128BF5FEA500500
:1034700050F1000044EBD12135E0DB0A45EAC121DF
:10348000C90AB6F120050EDD42EA0242120CC5F16E
:10349000200603FA06F6EB4042EA06056D42984123
:1034A00061F100010DE062FA06F5F240554063FA61
:1034B00006FC82EA0C02F3405A406D42904161EBF7
:1034C000030111F4801F05D1641E620502D06D0056
:1034D0004041494121F48011430875F1004350F106
:1034E000000041EB045170BC70471CEB410F15D23A
:1034F00023F0004352EA43060BD04FEA4C0CBCEBDE
:10350000410F04D80C0D661E342EB7DDEBE7801A90
:10351000994150EA410608BF0021E4E708BF1CEBCF
:10352000430F28BF6FF00001DDE7000020210903F1
:1035300026311820ABBEF9E750003C0050003C009B
:10354000000000000000000000000000000000007B
:1035500000000000000000000000000000004E6FAE
:103560006E4D61736B61626C6500000000486172B2
:10357000644661756C740000000000004D656D4D7F
:10358000616E6167656D656E7400004275734661BA
:10359000756C74000000000000005573616765469B
:1035A00061756C7400000000000000000000000065
:1035B000000000000000000000000000000000000B
:1035C00000000000000000000000000000000000FB
:1035D00000000000000000000000000000000000EB
:1035E0000000000000535643616C6C0000000000B6
:1035F0000000000044656275674D6F6E69746F72FC
:1036000000000000000000000000000000000000BA
:10361000000050656E64535600000000000000007A
:10362000005379735469636B0000000000000000D0
:10363000444D413000000000000000000000004444
:103640004D41310000000000000000000000444D2A
:1036500041320000000000000000000000444D4125
:10366000330000000000000000000000444D413421
:103670000000000000000000000000444D41350043
:1036800000000000000000000000444D4136000032
:10369000000000000000000000444D413700000021
:1036A0000000000000000000444D41380000000010
:1036B00000000000000000444D41390000000000FF
:1036C000000000000000444D4131300000000000C7
:1036D0000000000000444D413131000000000000B6
:1036E00000000000444D41313200000000000000A5
:1036F000000000444D413133000000000000000094
:103700000000444D41313400000000000000000082
:1037100000444D4131350000000000000000000071
:10372000444D415F4572726F720000000000004D11
:10373000434D00000000000000000000000046545F
:10374000464C0000000000000000000000526561CF
:10375000645F436F6C6C6973696F6E004C56445FB5
:103760004C565700000000000000004C4C57000071
:1037700000000000000000000000576174636864EE
:103780006F6700000000000000524E47000000007C
:10379000000000000000000049324330000000003B
:1037A000000000000000004932433100000000002A
:1037B00000000000000053504930000000000000ED
:1037C00000000000005350493100000000000000DC
:1037D00000000000535049320000000000000000CB
:1037E00000000043414E305F4F525F4D425F6275B3
:1037F000660043414E305F4275735F4F666600005E
:103800000043414E305F4572726F7200000000004D
:1038100043414E305F54785F5761726E696E674303
:10382000414E305F52785F5761726E696E674341F7
:103830004E305F57616B655F5570000000526573D5
:10384000657276656435310000000000526573656D
:10385000727665643532000000000043414E315FEE
:103860004F525F4D425F6275660043414E315F4289
:1038700075735F4F666600000043414E315F4572CD
:10388000726F72000000000043414E315F54785F58
:103890005761726E696E6743414E315F52785F5770
:1038A00061726E696E6743414E315F57616B655F50
:1038B0005570000000526573657276656435390095
:1038C0000000000052657365727665643630000052
:1038D00000000055415254305F52585F5458000068
:1038E000000055415254305F455252000000000024
:1038F0000055415254315F52585F54580000000047
:1039000055415254315F45525200000000000055AD
:10391000415254325F52585F5458000000005541E4
:103920005254325F4552520000000000005541528F
:1039300054335F52585F54580000000055415254B0
:10394000335F45525200000000000055415254348C
:103950005F52585F54580000000055415254345F84
:1039600045525200000000000055415254355F524C
:10397000585F54580000000055415254355F45527D
:1039800052000000000000414443300000000000ED
:10399000000000000000414443310000000000002E
:1039A0000000000000434D50300000000000000007
:1039B00000000000434D50310000000000000000F6
:1039C000000000434D5032000000000000000000E5
:1039D000000046544D3000000000000000000000D0
:1039E0000046544D310000000000000000000000BF
:1039F00046544D320000000000000000000000436B
:103A00004D5400000000000000000000000052546F
:103A10004300000000000000000000000052657339
:103A200065727665643833000000000050495430F8
:103A30000000000000000000000000504954310068
:103A40000000000000000000000050495432000057
:103A50000000000000000000005049543300000046
:103A60000000000000000000504442300000000050
:103A7000000000000000005553423000000000002C
:103A80000000000000005553424443440000000081
:103A90000000000000454E45545F313538385F5412
:103AA000696D6572454E45545F5472616E736D6900
:103AB000740000454E45545F526563656976650044
:103AC0000000454E45545F4572726F720000000061
:103AD00000493253300000000000000000000000E8
:103AE0005344484300000000000000000000004470
:103AF000414330000000000000000000000044418D
:103B00004331000000000000000000000054534951
:103B10003000000000000000000000004D4347009E
:103B200000000000000000000000004C5054696DCF
:103B30006572000000000000000052657365727637
:103B4000656431303200000000504F525441000093
:103B50000000000000000000504F525442000000DE
:103B600000000000000000504F52544300000000CD
:103B7000000000000000504F5254440000000000BC
:103B80000000000000504F525445000000000000AB
:103B9000000000005265736572766564313038004C
:103BA000000000526573657276656431303900003B
:103BB0000000526573657276656431313000000033
:103BC0000052657365727665643131310000000022
:103BD00052657365727665643131320000000052BF
:103BE000657365727665643131330000000052659B
:103BF000736572766564313134000000005265737C
:103C00006572766564313135000000005265736578
:103C1000727665643131360000000052657365725A
:103C20007665643131370000000052657365727645
:103C30006564313138000000005265736572766545
:103C400064313139000000000080034000900340DF
:103C500000800B4000F00F4040F00F4080F00F401C
:103C6000C0F00F4000F10F40F0000A1D30001800B6
:103C700032001801600018186400181A6E00181F2E
:103C8000780013187D00131A8200131C8C000E128A
:103C900096000E15A0000E18AA000E1BB4000E1EF2
:103CA000C8000C1CE1000B1EFA000A1F00010908E5
:103CB0000090044000A0044000B0044000C0044054
:103CC00000D0044000A0064000B0064000C00640FE
:103CD00000D0064000A00E4000B00E4001000000E1
:103CE00002002C01030096000400500005003C0077
:103CF000060000000700000008002000000000008F
:103D000001000000020000000300000004000000A9
:103D10000500000006000000070000000800000089
:103D2000080000006A6E6B6C676D4E4F3435363795
:103D3000306500003065000030650000306500002F
:103D4000306500003065000030650000FFFFFFFFB8
:103D5000FFFFFFFF326500003065000030650000A6
:103D6000FFFFFFFFFFFF0000020401010047FF1FEC
:103D70005047FF1F0047FF1F0047FF1F00000000C4
:103D80000047FF1F00000000840CFF1F700CFF1F86
:103D90000000000000000000000000000000000023
:103DA0000000000000000000000000000000000013
:103DB0008000800001000000000000000000000002
:103DC00000000000000000000000183C3C3C1818F7
:103DD0001800181800000000006666662400000045
:103DE00000000000000000000000006C6CFE6C6C25
:103DF0006CFE6C6C0000000018187CC6C2C07C060B
:103E000086C67C181800000000000000C2C60C180E
:103E10003060C686000000000000386C6C3876DC2C
:103E2000CCCCCC76000000000030303060000000C8
:103E3000000000000000000000000C18303030309E
:103E40003030180C00000000000030180C0C0C0C76
:103E50000C0C1830000000000000000000663CFF61
:103E60003C66000000000000000000000018187E02
:103E70001818000000000000000000000000000012
:103E8000001818183000000000000000000000FEBC
:103E90000000000000000000000000000000000022
:103EA00000001818000000000000000002060C18B6
:103EB0003060C0800000000000007CC6C6CED6D6B0
:103EC000E6C6C67C000000000000183878181818F4
:103ED0001818187E0000000000007CC6060C183080
:103EE00060C0C6FE0000000000007CC606063C065E
:103EF0000606C67C0000000000000C1C3C6CCCFEDA
:103F00000C0C0C1E000000000000FEC0C0C0FC0E27
:103F10000606C67C0000000000003860C0C0FCC679
:103F2000C6C6C67C000000000000FEC606060C18CF
:103F3000303030300000000000007CC6C6C67CC6B1
:103F4000C6C6C67C0000000000007CC6C6C67E0651
:103F500006060C78000000000000000018180000A1
:103F600000181800000000000000000018180000F1
:103F70000018183000000000000000060C18306027
:103F800030180C0600000000000000000000FE00D9
:103F900000FE0000000000000000006030180C0669
:103FA0000C1830600000000000007CC6C60C181819
:103FB00018001818000000000000007CC6C6DEDEF5
:103FC000DEDCC07C00000000000010386CC6C6FEBD
:103FD000C6C6C6C6000000000000FC6666667C66B9
:103FE000666666FC0000000000003C66C2C0C0C0FF
:103FF000C0C2663C000000000000F86C66666666A1
:1040000066666CF8000000000000FE666268786872
:10401000606266FE000000000000FE66626878686C
:10402000606060F00000000000003C66C2C0C0DEBE
:10403000C6C6663A000000000000C6C6C6C6FEC678
:10404000C6C6C6C60000000000003C1818181818A4
:104050001818183C0000000000001E0C0C0C0C0C82
:10406000CCCCCC78000000000000E6666C6C787860
:104070006C6666E6000000000000F0606060606052
:10408000606266FE000000000000C6EEFEFED6C6BE
:10409000C6C6C6C6000000000000C6E6F6FEDECEBC
:1040A000C6C6C6C6000000000000386CC6C6C6C63C
:1040B000C6C66C38000000000000FC6666667C60C6
:1040C000606060F00000000000007CC6C6C6C6C686
:1040D000C6D6DE7C0C0E00000000FC6666667C6CBA
:1040E000666666E60000000000007CC6C660380C0C
:1040F00006C6C67C0000000000007E7E5A18181814
:104100001818183C000000000000C6C6C6C6C6C687
:10411000C6C6C67C000000000000C6C6C6C6C6C62D
:10412000C66C3810000000000000C6C6C6C6C6D661
:10413000D6FE6C6C000000000000C6C66C6C3838FF
:104140006C6CC6C6000000000000666666663C181F
:104150001818183C000000000000FEC6860C18303D
:1041600060C2C6FE0000000000003C30303030303D
:104170003030303C0000000000000080C0E07038AB
:104180001C0E06020000000000003C0C0C0C0C0C85
:104190000C0C0C3C0000000010386CC60000000045
:1041A000000000000000000000000000000000000F
:1041B0000000000000FF0000303018000000000088
:1041C00000000000000000000000000000780C7CEF
:1041D000CCCCCC76000000000000E06060786C661B
:1041E000666666DC0000000000000000007CC6C0BF
:1041F000C0C0C67C0000000000001C0C0C3C6CCC55
:10420000CCCCCC760000000000000000007CC6FE94
:10421000C0C0C67C000000000000386C6460F06024
:10422000606060F000000000000000000076CCCC70
:10423000CCCCCC7C0CCC78000000E060606C766666
:10424000666666E6000000000000181800381818BE
:104250001818183C0000000000000606000E0606B4
:104260000606060666663C000000E06060666C7844
:10427000786C66E60000000000003818181818185E
:104280001818183C000000000000000000ECFED6EA
:10429000D6D6D6D6000000000000000000DC66661E
:1042A000666666660000000000000000007CC6C66E
:1042B000C6C6C67C000000000000000000DC666688
:1042C0006666667C6060F000000000000076CCCC82
:1042D000CCCCCC7C0C0C1E000000000000DC766214
:1042E000606060F00000000000000000007CC6601C
:1042F000380CC67C000000000000103030FC30306C
:104300003030361C000000000000000000CCCCCC97
:10431000CCCCCC7600000000000000000066666691
:1043200066663C18000000000000000000C6C6C61B
:10433000D6D6FE6C000000000000000000C66C38FD
:1043400038386CC6000000000000000000C6C6C679
:10435000C6C6C67E060CF8000000000000FECC18A1
:104360003060C6FE0000000000000E18181870181B
:104370001818180E0000000000001818181800186F
:1043800018181818000000000000701818180E18EF
:104390001818187000000000000076DC0000000013
:1043A00000000000000000000000000010386CC693
:1043B000C6C6FE0000000000012210F01F018A4066
:1043C000DFF8BC1203005BB25B0941F823207047A1
:1043D000012210F01F018A40DFF8A81203005BB22F
:1043E0005B0941F82320704710B4020052B2002A42
:1043F0000AD50A01DFF89032040064B214F00F0409
:10440000234403F8042C05E00A01DFF8803204009D
:1044100064B21A5510BC704770B4DFF87442256856
:104420000126864035432560DFF868421D006D0493
:104430006D0C060076B276012644F5821D006D04EF
:104440006D0C060076B276012644F58305006DB248
:104450006D01615105006DB26D012C4422618E4CDD
:10446000256855F00105256070BC704710B5040043
:104470008A48046000F06EF8012010BDF8B5884C41
:1044800020780028FBD04FF49655864E8348076865
:104490002A0031003800FEF73DFD00202070F1BDFC
:1044A000F8B50324804D200040B255F82000007973
:1044B00080061AD57D4E7E4F307807EB0001032031
:1044C000FDF7F9FB3078401C30703078012804D1BA
:1044D0003878A52801D0002030703078032804D126
:1044E00000203070012073490870200040B255F858
:1044F00020000079F1BD7CB50025280080B2082895
:1045000027DAA5208DF800006846F12141706A4E37
:10451000290089B236F821100C00210089B2090A5D
:104520008170C470042269460320FDF7E2FB6149F3
:1045300008780028FBD0002008705D48417880781A
:1045400050EA0120290089B206EB810148806D1CE8
:10455000D3E773BD7FB54FF416510320FDF7B0FAD2
:104560000320FDF7D9FB5549432000F0DEF90A206E
:10457000FDF787F94F4E002030700025280080B2EB
:1045800009281EDAA5208DF80C004D4803A92A0041
:1045900092B230F822204A702A0092B200EB8200D8
:1045A00040880400200080B2000A8870CC70042289
:1045B00003A90320FDF79DFB0220FDF762F96D1CA6
:1045C000DCE730780028FCD0002030703848417893
:1045D000FF29FBD18078FF28F8D1FFF78CFF01205D
:1045E00002904FF496500190002000901B232D4A1A
:1045F0003449002000F0DEF933491B20FDF7CCF8E8
:10460000254E30684008400030602148016851F074
:10461000010101600020FFF7CFFE306850F001007B
:1046200030605720FFF7D4FE28491D20FDF7B4F86D
:1046300001215720FFF7D8FE02210020FFF7D4FE0A
:104640005720FFF7B9FE7FBD80B55FF000502049CD
:104650000968C1F8A0004FF49653124A1949002086
:10466000FFF7DAFE00201B49088001BD01200C493C
:1046700008700748016851F00101016070470000AF
:1046800000E100E080E100E018ED00E000E400E07F
:1046900024800040009000400C800040A446FF1F92
:1046A0005547FF1FE433FF1F9C0BFF1F5447FF1F9D
:1046B000A846FF1F8C0CFF1FD80BFF1FA144000052
:1046C000B40BFF1F50F00F400201010002010A006D
:1046D000880BFF1F5047FF1FF0B403000C0000259C
:1046E000B5F5965F0ADA665D1700FFB2BE4201D3E8
:1046F000FF2600E000265E556D1CF1E7F0BC704718
:104700002DE9F14FADF5006D8EB05020ADF80A00E7
:104710003C20ADF80C000DF587604FF4806100F08F
:104720003FFA0EA84FF4806100F03AFABDF80A1083
:10473000BDF80C004143022091FBF0F00A900020EC
:104740008DF80800DDF8380809900120BDF80C103C
:1047500088421CDA01210F00BDF80A108F4214DADA
:104760000DF58761099ABDF80A3003FB0073D25C2E
:10477000099BBDF80A4004FB00741B5D51F823300F
:104780005B1C41F82230BF1CE6E7801CDEE70021FD
:1047900008915FF0000ABAF5807F1CDA0EAC0DF5C7
:1047A000876050F82A0000F0FFF905000A9800F031
:1047B000FBF90100280000F009FA44F82A000898E3
:1047C00054F82A1000F080FA02D254F82A00089017
:1047D0001AF1010ADFE7002007905FF00009B9F540
:1047E000807F80F28A8000200B90049005900690D4
:1047F000060080460500040000200700B7F5807F12
:104800002ADAB94513DB0DF1380A5AF827002100DE
:1048100000F06CFA0400380000F0C6F95AF82710CE
:1048200000F0D6FA414600F061FA804612E00DF140
:10483000380A5AF82700290000F058FA0500380015
:1048400000F0B2F95AF8271000F0C2FA310000F077
:104850004DFA06007F1CD1E74046210000F0B6F972
:1048600006903000290000F0B1F905904046310073
:1048700000F03CFA04900698049900F015FB00F053
:1048800053FB82468B460598049900F00DFB00F01F
:104890004BFBCDE90C01200000F046FBCDE9000107
:1048A0005046594652465B46FEF762FADDE9002360
:1048B000FEF75EFACDE90001280000F035FB8246E4
:1048C0008B46DDE90C23DDE90C01FEF751FA524677
:1048D0005B46FEF74DFADDE90023FEF769FD00F0C7
:1048E00047FB0100079800F0EFF903D20791484613
:1048F0008DF8080019F1010971E79DF808000DF520
:10490000006D0FB0BDE8F08F10B504004FF40070DB
:1049100094FBF0F100FB1140002803D01E210B484E
:10492000FCF7DAFF0A48046010BD70B504000D0002
:10493000084E07480068B04203D030210348FCF716
:10494000CBFF200040B246F8205070BD0864000044
:1049500008ED00E00000FF1F2DE9F84304000D0002
:104960002000800910F00700C0B246012000103876
:1049700010F03F00C0B2C70017EB0608EDB218EB0D
:10498000C500B0F1010948464146C0B2C9B28842EB
:104990000ED3002200214046C0B2FCF761FE4FF466
:1049A00081714046C0B2FCF7F7FE18F10108EAE752
:1049B000BDE8F1832DE9F84F04000D0016001F003B
:1049C0009DF92880DDF82C90DDF830A0404640B2FB
:1049D000002802D15FF0010B0FE0404640B20128F1
:1049E00002D15FF0020B08E0404640B2022802D13B
:1049F0005FF0040B01E05FF0100B404640B200286E
:104A000005D15A48854202D35948A8421FD2404690
:104A100040B2012809D15548854206D35548A842DD
:104A200003D315F00300032811D1404640B20228F9
:104A300009D14E48854206D34F48A84203D315F00A
:104A40000300002803D061214C48FCF745FFB9F56D
:104A5000004F03D363214948FCF73EFF48480168F3
:104A600051F0020101604748016851F00201016004
:104A70004548210049B249014550210049B2490148
:104A800001440E610021220052B252010244918081
:104A90005946C9B2220052B25201024491824146A3
:104AA00049B2090211F4E061424652B212F0070223
:104AB0001143220052B252010244D18049464904B6
:104AC000490C220052B252010244D18249464904A3
:104AD000490C220052B252010244D1832B490A6888
:104AE00032F080020A605946C9B2220052B2520125
:104AF000024491600021220052B252010244D1606E
:104B00005FEACA7102D4D9F1000100E0002122005D
:104B100052B25201024491614CF20A01220052B297
:104B20005201104481833800C0B24009313050F046
:104B300080001749220052B2885416493800C0B28A
:104B4000FCF72AFE5946C9B22800FFF705FF1249B3
:104B500001220B6812FA04F083430B600F480168CE
:104B6000A2400A430260BDE8F18F000010F00F4040
:104B700013F10F4012F10F4010F10F4038630000A5
:104B8000408004403C800440009000400080004091
:104B900000100240000101000C8000402480004011
:104BA000002200F019BA0000C2175040801AB0FA73
:104BB00080F10AD08840D1F19D01D20742EAC1516B
:104BC000020672F1004241EB1020704710B5FF233E
:104BD00013EAD0541DBF13EAD1529C429A4239E0E5
:104BE000A41ADA0780EA0103134042EA012142EAEB
:104BF0000020421A3CBF641E01EB4202090AB2FBCC
:104C0000F1FE01FB1E221202B2FBF1F001FB1022A9
:104C10006EF30F201202B2FBF1FE4EEA00207F3449
:104C200006DDFE2C24DA53EA500050EBC45010BDD0
:104C3000D4F1020401FB1E2240F08071192C1DDC0E
:104C400021FA04F0C4F12004A140114371F10042A3
:104C5000584110BD9C421ABF03EAD1529A420FE05C
:104C600080EA010E0EF00043400004D0490016D146
:104C700043F0FF4010BD490008BFD343180010BDEA
:104C80009C4205D1D21AF7D001F00041484010BD36
:104C90004A0212BF0846484000F0004010BD4AB921
:104CA0000902B1FA81F2914044B1A418C00140F068
:104CB00000409EE7C90141F0004152420002B0FAB3
:104CC00080F4A040141B94E74FF0807C1CEB400F55
:104CD00094BF1CEB410F05E040EA010C1CEB0C0FEC
:104CE00001D28842704718BF8142704790EA010F95
:104CF00040F1E08081F00041431A4FF000423EBF96
:104D00005340C01AC91800BFD3095FEAD05C13EB47
:104D1000400F34BFB3EB410F40E07CEBD1530CD3D9
:104D200042EA012122D8D1EB402009D3400A28BF12
:104D30005FEA500140EBCC507047401A15D040025A
:104D4000B0FA80F2521C9040400A4FEA3C23B3EB89
:104D5000026384BF00EB730007E040F400001A1602
:104D6000DB07C2F10102D04018437047182BFCDC6E
:104D700031FA03F202FA03F3591A38BF42F0010282
:104D8000D2EB40203CBF4000ACF1010C5FEACC5CB0
:104D9000C20572F100414CEB5020704713EB400FFD
:104DA0000FD2C94209D0ACEBD153022B03DB49022D
:104DB000172BDDDD70479143401AC042D5D100204A
:104DC000704713EB410FD0D36FF000007047000025
:104DD000FF2212EAD05C1DBF12EAD15394459342E0
:104DE0002BE09C44D30780EA01021A4043EA0020EA
:104DF00043EA0121A1FB0030C04238BF40007CF1F2
:104E00007F010BDBFE294ADA5B0842EAC15153EA13
:104E1000006373F1004C51EB10207047D1F1080C86
:104E2000DCF120012FDB5B0810FA01F10B4320FAC3
:104E30000CF073F100415041704794451CBF02EAE9
:104E4000D153934280EA010202F000421DD040009B
:104E500019D0490017D05BB9634514D00902B1FAE3
:104E600081F39940BCEB030CC00140F00040C1E766
:104E70000002B0FA80FC10FA0CF0B3EB0C0CC90184
:104E800041F00041B6E71000704740000AD04900E9
:104E900008D010F1807F94BF11F1807F02E042F0D2
:104EA000FF407047D043704790EA010F7FF524AF71
:104EB00081F00041421A3CBF801A89184FF0004C23
:104EC000C0F3C752FF2A24D0C1F3C75313B3D21A79
:104ED000D2F1190327DD4CEA01214CFA03F321EA50
:104EE0000303D140C20D4CEA0020401834BF20EA31
:104EF0000C004CEA5000D20553EA006373EB0C0C33
:104F000052EB1020420012F1807F38BF7047C00D75
:104F1000C0057047490212BF9A4200EB5120F8E7E2
:104F2000D2F11703D9D57047C0F3C75181B1FF291A
:104F300006D0C110400721F0E04101F160517047F7
:104F400041020CBF40F4E0016FF0004100207047C7
:104F500000F0004100020AD0B0FA80FC00FA0CF028
:104F600001F16051A1EB0C5101EBD02140057047DC
:104F700001F000428B1AA3F16051B1F5801F0ADBEA
:104F8000B1F17F6F1FD242EAC102C10071F100414D
:104F900042EB507070470B15C3F10903212B10D25F
:104FA000890241EA905180020128494141F00041C3
:104FB00021FA03F0C3F12003994071F100415041FF
:104FC0007047100070476FF0000013EB103F5CBF9C
:104FD000000E42EAC050704700B500BF130096466D
:104FE0009446103928BFA0E80C50FAD85FEA417CFB
:104FF00028BF0CC048BF40F8042BC90728BF20F8C1
:10500000022B48BF00F8012B00BD00001CB5DFF8E3
:10501000EC040468FBF700FAFCF70DFBADF80000A8
:10502000FCF706FBADF802004FF47842009920002F
:1050300000F001F813BDF2B504001500009920003E
:10504000FCF729FABDF80010BDF802004143DFF873
:10505000B00401220260DFF8AC2400231360DFF803
:10506000A83400261E60DFF8A4642C273770DFF810
:10507000A0745FF0000CC7F800C05FF0010CC7F827
:1050800000C05FF0010CC3F800C05FF0000C8C455D
:105090003AD25FF0010EC0F800E05FF0010EC2F8F6
:1050A00000E05FF0000EC3F800E0AE461FFA8EFE8F
:1050B0005FEA1E2E86F800E05FF0000EC7F800E001
:1050C0005FF0010EC7F800E05FF0010EC3F800E0EA
:1050D0005FF0010EC0F800E05FF0010EC2F800E0E2
:1050E0005FF0000EC3F800E035705FF0000EC7F807
:1050F00000E05FF0010EC7F800E05FF0010EC3F8BA
:1051000000E01CF1010CC2E7F1BD2DE9F14F0C00EC
:1051100015001E00DFF8FC03D0F80090FCF78BFAB6
:105120000838BDF80010884206DBFCF781FA103819
:10513000BDF80210884200DABFE049460098FCF74B
:10514000AAF9DFF8BC0301210160DFF8B8130022DF
:105150000A60DFF8B42300231360DFF8B0335FF098
:105160002C0C83F800C0DFF8A8C35FF0000ECCF869
:1051700000E05FF0010ECCF800E05FF0010EC2F835
:1051800000E05FF0000EF2465FFA8AFABAF1100F03
:1051900080F29380DFF880A3A3465FFA8BFB5FEA7F
:1051A0000B1B5BFA8EFBDA44BAF5007A9AF800A082
:1051B00057465FF0000AD046C2465FFA8AFABAF153
:1051C000080F77DA5FEA076A38D55FF0010AC0F89E
:1051D00000A05FF0010AC1F800A05FF0000AC2F869
:1051E00000A0AA461FFA8AFA5FEA1A2A83F800A0EA
:1051F0005FF0000ACCF800A05FF0010ACCF800A034
:105200005FF0010AC2F800A05FF0010AC0F800A038
:105210005FF0010AC1F800A05FF0000AC2F800A028
:105220001D705FF0000ACCF800A05FF0010ACCF816
:1052300000A05FF0010AC2F800A037E05FF0010AA9
:10524000C0F800A05FF0010AC1F800A05FF0000AFA
:10525000C2F800A0B2461FFA8AFA5FEA1A2A83F857
:1052600000A05FF0000ACCF800A05FF0010ACCF8C3
:1052700000A05FF0010AC2F800A05FF0010AC0F8C8
:1052800000A05FF0010AC1F800A05FF0000AC2F8B8
:1052900000A01E705FF0000ACCF800A05FF0010AC9
:1052A000CCF800A05FF0010AC2F800A07F0018F15E
:1052B000010881E71EF1010E65E7BDE8F18F2DE9D8
:1052C000F14783B00D00170098460C9E2C005FF04C
:1052D000000ABDF80E00ADF80600002D1DD1330008
:1052E0009BB2424692B230210398FFF70EFFBDF801
:1052F0000C000830ADF80C001020ADF802003800AA
:10530000C0B2401E80B2C000ADF80000320092B2C0
:1053100000990398FFF78FFE50E0002C05D00A207B
:10532000B4FBF0F41AF1010AF7E750463900C0B2B5
:10533000C9B2884200D3BA46D1465FFA89F95046CD
:10534000C0B200281DD0BDF80C005146C9B289B2C8
:1053500010EBC1000838ADF80400BAF1010A0A21C7
:1053600033009BB2424692B2B5FBF1F001FB105103
:105370003031C9B20198FFF7C8FE0A20B5FBF0F53D
:10538000DDE73800C0B2814518D03800C0B2B0EBBC
:10539000090080B2C000ADF80000BDF80C005FEA63
:1053A000C90111FA80F0ADF80C001020ADF8020030
:1053B000320092B200990398FFF73DFEBDE8FF87E7
:1053C0002DE9FB4F82B01500A94603990298FCF71E
:1053D00062F8DFF82C1101200860DFF82821002096
:1053E0001060DFF8243100201860DFF820E12C2065
:1053F0008EF80000DFF818A10020CAF80000012094
:10540000CAF80000012018605FF0000B5846BDF894
:105410000EC080B260456ED2DC461FFA8CFCBDF82F
:10542000120000FB0CFCBDF80E009CFBF0F0ADF888
:105430000000BDF80000BDF810C00CFB00F00190AA
:10544000002007003800BDF80CC080B260454FD284
:10545000BC461FFA8CFCBDF8100000FB0CFCBDF82C
:105460000C009CFBF0F08046019810FA88F00600D2
:1054700019F806C05FFA8CFC5FEADC0C5FFA8CFC62
:1054800019F80600C0B28008C0B2400150EACC2032
:1054900019F806C05FFA8CFC5FEADC0C5FFA8CFC42
:1054A0005CEA000004000120086001201060002078
:1054B0001860200080B2000A8EF800000020CAF8B0
:1054C00000000120CAF800000120186001200860D7
:1054D00001201060002018608EF800400020CAF8FB
:1054E00000000120CAF80000012018607F1CA9E715
:1054F0001BF1010B8AE705B0BDE8F08F28650000BD
:105500002810FE433010FE432C10FE4380F00F4065
:105510002410FE432C650000B83D0000DFF800F0C9
:10552000050EFF1F10B4DFF89413020052B231F8D9
:105530002210020052B2012AC0F27281020052B25D
:10554000112A80F26D81DFF87823002313700B009D
:105550009BB25B2B02DA002353707DE00B009BB201
:10556000B52B02DA0123537076E00B009BB240F2B8
:105570000F14A34202DA022353706DE00B009BB2BA
:1055800040F26914A34202DA0323537064E00B0073
:105590009BB240F2C314A34202DA042353705BE0CF
:1055A0000B009BB240F21D24A34202DA0523537084
:1055B00052E00B009BB240F27724A34202DA0623AA
:1055C000537049E00B009BB240F2D124A34202DAAF
:1055D0000723537040E00B009BB240F22B34A342F0
:1055E00002DA0823537037E00B009BB240F2853497
:1055F000A34202DA092353702EE00B009BB240F263
:10560000DF34A34202DA0A23537025E00B009BB279
:1056100040F23944A34202DA0B2353701CE00B0022
:105620009BB240F29344A34202DA0C23537013E07E
:105630000B009BB240F2ED44A34202DA0D235370FB
:105640000AE00B009BB240F24754A34202DA0E2359
:10565000537001E00F2353700B009BB21A2B02DA38
:10566000002393706AE00B009BB2332B02DA012314
:10567000937063E00B009BB24C2B02DA0223937011
:105680005CE00B009BB2652B02DA0323937055E0BC
:105690000B009BB27E2B02DA042393704EE00B00CA
:1056A0009BB2972B02DA0523937047E00B009BB265
:1056B000B02B02DA0623937040E00B009BB2C92B9B
:1056C00002DA0723937039E00B009BB2E22B02DA77
:1056D0000823937032E00B009BB2FB2B02DA092304
:1056E00093702BE00B009BB2B3F58A7F02DA0A239A
:1056F000937023E00B009BB240F22D14A34202DA18
:105700000B2393701AE00B009BB2B3F5A37F02DA70
:105710000C23937012E00B009BB240F25F14A34283
:1057200002DA0D23937009E00B009BB2B3F5BC7F46
:1057300002DA0E23937001E00F2393700B009BB2EB
:105740001A2B02DA0023D3706AE00B009BB2332BD2
:1057500002DA0123D37063E00B009BB24C2B02DA18
:105760000223D3705CE00B009BB2652B02DA0323AB
:10577000D37055E00B009BB27E2B02DA0423D3706A
:105780004EE00B009BB2972B02DA0523D37047E063
:105790000B009BB2B02B02DA0623D37040E00B0063
:1057A0009BB2C92B02DA0723D37039E00B009BB2FE
:1057B000E22B02DA0823D37032E00B009BB2FB2B02
:1057C00002DA0923D3702BE00B009BB2B3F58A7F7A
:1057D00002DA0A23D37023E00B009BB240F22D14AF
:1057E000A34202DA0B23D3701AE00B009BB2B3F58D
:1057F000A37F02DA0C23D37012E00B009BB240F2BD
:105800005F14A34202DA0D23D37009E00B009BB2B0
:10581000B3F5BC7F02DA0E23D37001E00F23D370FF
:1058200010BC704770B50400200040B2FFF77AFE4C
:105830002448017811F0FD010170017851F0100148
:105840000170214DB8202870204E3078C006FBD45E
:105850003078C0F381000228FAD11948C3788278E1
:1058600041780078FFF75AFE1448210049B200EB56
:105870008101897811F01F01154A1170210049B288
:1058800000EB8101C97811F01F0151F04001114A6C
:10589000117031788906FCD531784906FCD5297814
:1058A00011F03F0129703178C1F381010329FAD148
:1058B00064B230F82400C0B270BD0000400BFF1F7E
:1058C000840BFF1F01400640004006400640064092
:1058D000044006400540064038B504000D00200095
:1058E00040B2002803D0022864D048D37DE0DFF81E
:1058F0006C03016851F080710160280040B20028FB
:105900000BD0022815D00ED304281ED017D306289A
:1059100027D020D307282AD02FE04FF480614120E0
:10592000FBF73AFF2AE04FF440710420FBF734FF05
:1059300024E04FF440710520FBF72EFF1EE04FF4EA
:1059400040710620FBF728FF18E04FF44071072054
:10595000FBF722FF12E04FF480616520FBF71CFF8C
:105960000CE04FF480616620FBF716FF06E04FF471
:1059700080616720FBF710FF00E036E035E0DFF8DC
:10598000DC02016851F000710160280040B200287B
:1059900002D0012806D00BE04FF440710C20FBF739
:1059A000FBFE06E04FF440710D20FBF7F5FE00E032
:1059B0001BE01AE0DFF8A802016851F08071016075
:1059C000280040B2002802D0012806D00BE04FF496
:1059D00040710A20FBF7E0FE06E04FF440710B2017
:1059E000FBF7DAFE00E000E0FFE731BD2DE9F84FFC
:1059F00004000D0016001F00200040B2002811D046
:105A0000200040B2012803D0200040B2022803D178
:105A1000280040B2022805DB40F28511DFF844027D
:105A2000FBF75AFF290049B2200040B2FFF754FFAC
:105A3000DFF83402D0F800904FF47A7000FB09F9D7
:105A40004846000CB0FBF6FA5FF0000B504680B2FF
:105A500050FA0BF0012802DB1BF1010BF6E7584668
:105A6000C0B2082805DB4FF4D071DFF8F801FBF76E
:105A700033FF484630FA0BF0B0FBF6F0010089B274
:105A8000DFF8E82123005BB242F82310210049B27D
:105A9000002903D0022916D00AD31EE0010089B2E2
:105AA000491C01FB07F16422B1FBF2F1884614E0C6
:105AB000010089B2491C01FB07F142F21072B1FBEF
:105AC000F2F1884609E0010089B2491C01FB07F1A7
:105AD0006422B1FBF2F18846FFE7DFF8941122005F
:105AE00052B251F822202B005BB202EBC30223001A
:105AF0005BB251F82330AC464FFA8CFC03EBCC037D
:105B0000DB6833F00403D360220052B251F8222044
:105B10002B005BB202EBC3022823D3605A46D2B2F9
:105B200012F0070252F0080223005BB251F8233052
:105B30001A60020092B223005BB251F823309A60DF
:105B4000002223005BB251F82330DA64220052B203
:105B500051F822202B005BB202EBC30243469BB2FA
:105B60001361002223005BB251F823104A60BDE8A4
:105B7000F18F2DE9F04180460C00150000274046CA
:105B800040B2002811D0404640B2012803D0404620
:105B900040B2022803D1200040B2022805DB4FF4B6
:105BA000F371DFF8C000FBF797FE404640B20028D3
:105BB00003D0022815D009D31CE0652D05D34FF47E
:105BC000F671DFF8A000FBF787FE13E042F21170D8
:105BD000854205D34FF4F871DFF88800FBF77CFEAF
:105BE00008E0652D05D34FF4FA71DFF87800FBF774
:105BF00073FEFFE7DFF87400414649B250F8210018
:105C0000414649B2002903D0022912D008D318E036
:105C1000411C01FB05F16422B1FBF2F10E0010E022
:105C2000411C01FB05F142F21072B1FBF2F10E00D2
:105C300007E0411C01FB05F16422B1FBF2F10E000B
:105C4000FFE7DFF82C10424652B251F82210220032
:105C500052B201EBC2010E61BDE8F0813C8004400C
:105C6000308004406C630000F846FF1FD833FF1FEC
:105C7000200BFF1FDFF800F0D9180000DFF800F05C
:105C8000831800004C48F021017001780906FCD50A
:105C9000007810F0710F01D0002000E00120704763
:105CA00080B54648016851F400210160444801680C
:105CB00051F400210160404801780906FBD5F0212C
:105CC00001700A20FFF7DAFF01BD1CB504002100B6
:105CD00089B24FF4006041430091092039490870AE
:105CE0009DF80200384908709DF801003749087096
:105CF0009DF8000036490870FFF7C4FF002801D165
:105D000000200DE0200080B2002808D17FF00102C1
:105D100040F20C41200080B200F003F800E00120C6
:105D200016BD7CB506000C001500310089B24FF499
:105D30000060414311FA84F00190200080B20421F8
:105D400090FBF1F201FB1200002803D0EA21214868
:105D5000FFF790FF200080B240F60101884203DB8C
:105D6000EC211C48FFF786FF9DF8060016490870D5
:105D70009DF80500154908709DF804001449087045
:105D800000959DF80300144908709DF8020013491E
:105D900008709DF80100124908709DF80000114933
:105DA0000870062007490870FFF76CFF002801D132
:105DB000002000E0012076BD0000024004F0014018
:105DC00008F00140070002400600024005000240C2
:105DD00004000240C86200000B0002400A000240BA
:105DE0000900024008000240F0B40F4E34683568E4
:105DF00055F47F0535600D0615F0706555EA0075A0
:105E0000170517F470073D431F0417F470273D432F
:105E1000064F3D6000252F00FFB29F4201D26D1C4E
:105E2000F9E73460F0BC704700F001404480044062
:105E300080B500F089F800F028F800F00AF8FBF7C8
:105E400068FD012201210420FBF70AFC00F09CF808
:105E5000FEE710B52E4C0D20FFF7E4FC20602D4925
:105E600022684FF47A7042430A6008682A49096838
:105E7000C1F30361491CB0FBF1F0284908605FF4ED
:105E8000E1310420FBF71CFE10BD2DE9F04124494F
