:10000000F8FF002011040000AF190000AF19000034
:10001000AF190000AF190000AF190000AF190000C0
:10002000AF190000AF190000AF190000AF190000B0
:10003000AF190000AF190000AF190000AF190000A0
:10004000AF190000AF190000AF190000AF19000090
:10040000FFFFFFFFFFFFFFFFFFFFFFFFFEFFFFFFFD
:1004100062B607F0D1FFFEE72DE9F8430024200083
:10042000C0B2082808DA0022012114F14000C0B24D
:1004300001F016F9641CF2E700220121492001F0C5
:100440000FF9012201214A2001F00AF901220121BC
:100450004B2001F005F9002201214C2001F000F9A8
:10046000002201214D2001F0FBF84FF4A07149203A
:1004700001F092F94FF4A0714A2001F08DF94FF488
:10048000A0714B2001F088F94FF4A0714C2001F0CD
:1004900083F9DFF8000A00210160012101604FF4B7
:1004A000FA7001F0EEF9DFF8D85901202860DFF882
:1004B000D46900203060DFF8D07900203860DFF8A0
:1004C000CC89112088F80000DFF8C4990020C9F811
:1004D00000000120C9F8000001203860782001F0F8
:1004E000D0F9012028600020306000203860B12061
:1004F00088F800000020C9F800000120C9F80000B9
:100500000120386001202860012030600020386020
:10051000052088F800000020C9F800000120C9F873
:100520000000012038600120286001203060002098
:1005300038603A2088F800000020C9F80000012047
:10054000C9F80000012038600120286001203060D7
:10055000002038603A2088F800000020C9F8000028
:100560000120C9F800000120386001202860002027
:10057000306000203860B22088F800000020C9F800
:1005800000000120C9F80000012038600120286027
:100590000120306000203860052088F8000000202D
:1005A000C9F800000120C9F80000012038600120CE
:1005B000286001203060002038603A2088F8000070
:1005C0000020C9F800000120C9F8000001203860AF
:1005D0000120286001203060002038603A2088F82F
:1005E00000000020C9F800000120C9F80000012027
:1005F0003860012028600020306000203860B3207F
:1006000088F800000020C9F800000120C9F80000A7
:10061000012038600120286001203060002038600F
:10062000052088F800000020C9F800000120C9F862
:100630000000012038600120286001203060002087
:1006400038603A2088F800000020C9F80000012036
:10065000C9F80000012038600120286001203060C6
:10066000002038603A2088F800000020C9F8000017
:100670000120C9F800000120386001202860012015
:10068000306000203860052088F800000020C9F89C
:1006900000000120C9F80000012038600120286016
:1006A00001203060002038603A2088F800000020E7
:1006B000C9F800000120C9F80000012038600120BD
:1006C000286001203060002038603A2088F800005F
:1006D0000020C9F800000120C9F80000012038609E
:1006E000012028600020306000203860B42088F8A5
:1006F00000000020C9F800000120C9F80000012016
:100700003860012028600120306000203860072018
:1007100088F800000020C9F800000120C9F8000096
:1007200001203860012028600020306000203860FF
:10073000C02088F800000020C9F800000120C9F896
:100740000000012038600120286001203060002076
:100750003860282088F800000020C9F80000012037
:10076000C9F80000012038600120286001203060B5
:1007700000203860082088F800000020C9F8000038
:100780000120C9F800000120386001202860012004
:10079000306000203860842088F800000020C9F80C
:1007A00000000120C9F80000012038600120286005
:1007B0000020306000203860C12088F80000002050
:1007C000C9F800000120C9F80000012038600120AC
:1007D00028600120306000203860C02088F80000C8
:1007E0000020C9F800000120C9F80000012038608D
:1007F000012028600020306000203860C22088F886
:1008000000000020C9F800000120C9F80000012004
:1008100038600120286001203060002038600C2002
:1008200088F800000020C9F800000120C9F8000085
:1008300001203860012028600120306000203860ED
:10084000002088F800000020C9F800000120C9F845
:100850000000012038600120286000203060002066
:100860003860C32088F800000020C9F8000001208B
:10087000C9F80000012038600120286001203060A4
:10088000002038608C2088F800000020C9F80000A3
:100890000120C9F8000001203860012028600120F3
:1008A0003060002038602A2088F800000020C9F855
:1008B00000000120C9F800000120386001202860F4
:1008C0000020306000203860C42088F8000000203C
:1008D000C9F800000120C9F800000120386001209B
:1008E000286001203060002038608A2088F80000ED
:1008F0000020C9F800000120C9F80000012038607C
:10090000012028600120306000203860EE2088F847
:1009100000000020C9F800000120C9F800000120F3
:100920003860012028600020306000203860C52039
:1009300088F800000020C9F800000120C9F8000074
:1009400001203860012028600120306000203860DC
:100950000C2088F800000020C9F800000120C9F828
:100960000000012038600120286000203060002055
:100970003860E02088F800000020C9F8000001205D
:10098000C9F8000001203860012028600120306093
:1009900000203860052088F800000020C9F8000019
:1009A0000120C9F8000001203860012028600120E2
:1009B0003060002038601A2088F800000020C9F854
:1009C00000000120C9F800000120386001202860E3
:1009D00001203060002038600C2088F800000020E2
:1009E000C9F800000120C9F800000120386001208A
:1009F000286001203060002038600E2088F8000058
:100A00000020C9F800000120C9F80000012038606A
:100A10000120286001203060002038603A2088F8EA
:100A200000000020C9F800000120C9F800000120E2
:100A300038600120286001203060002038603420B8
:100A400088F800000020C9F800000120C9F8000063
:100A500001203860012028600120306000203860CB
:100A60002D2088F800000020C9F800000120C9F8F6
:100A70000000012038600120286001203060002043
:100A800038602F2088F800000020C9F800000120FD
:100A9000C9F8000001203860012028600120306082
:100AA000002038602D2088F800000020C9F80000E0
:100AB0000120C9F8000001203860012028600120D1
:100AC0003060002038602A2088F800000020C9F833
:100AD00000000120C9F800000120386001202860D2
:100AE00001203060002038602F2088F800000020AE
:100AF000C9F800000120C9F8000001203860012079
:100B0000286001203060002038603C2088F8000018
:100B10000020C9F800000120C9F800000120386059
:100B2000012028600120306000203860002088F813
:100B300000000020C9F800000120C9F800000120D1
:100B400038600120286001203060002038600120DA
:100B500088F800000020C9F800000120C9F8000052
:100B600001203860012028600120306000203860BA
:100B7000022088F800000020C9F800000120C9F810
:100B80000000012038600120286001203060002032
:100B90003860102088F800000020C9F8000001200B
:100BA000C9F8000001203860012028600020306072
:100BB00000203860E12088F800000020C9F800001B
:100BC0000120C9F8000001203860012028600120C0
:100BD000306000203860042088F800000020C9F848
:100BE00000000120C9F800000120386001202860C1
:100BF00001203060002038601B2088F800000020B1
:100C0000C9F800000120C9F8000001203860012067
:100C1000286001203060002038600D2088F8000036
:100C20000020C9F800000120C9F800000120386048
:100C30000120286001203060002038600E2088F8F4
:100C400000000020C9F800000120C9F800000120C0
:100C500038600120286001203060002038602D209D
:100C600088F800000020C9F800000120C9F8000041
:100C700001203860012028600120306000203860A9
:100C8000292088F800000020C9F800000120C9F8D8
:100C90000000012038600120286001203060002021
:100CA0003860242088F800000020C9F800000120E6
:100CB000C9F8000001203860012028600120306060
:100CC00000203860292088F800000020C9F80000C2
:100CD0000120C9F8000001203860012028600120AF
:100CE000306000203860282088F800000020C9F813
:100CF00000000120C9F800000120386001202860B0
:100D00000120306000203860262088F80000002094
:100D1000C9F800000120C9F8000001203860012056
:100D200028600120306000203860312088F8000001
:100D30000020C9F800000120C9F800000120386037
:100D40000120286001203060002038603B2088F8B6
:100D500000000020C9F800000120C9F800000120AF
:100D600038600120286001203060002038600020B9
:100D700088F800000020C9F800000120C9F8000030
:100D80000120386001202860012030600020386098
:100D9000002088F800000020C9F800000120C9F8F0
:100DA0000000012038600120286001203060002010
:100DB0003860032088F800000020C9F800000120F6
:100DC000C9F800000120386001202860012030604F
:100DD00000203860122088F800000020C9F80000C8
:100DE0000120C9F80000012038600120286000209F
:100DF0003060002038603A2088F800000020C9F8F0
:100E000000000120C9F8000001203860012028609E
:100E10000120306000203860052088F800000020A4
:100E2000C9F800000120C9F8000001203860012045
:100E300028600020306000203860292088F80000F9
:100E40000020C9F800000120C9F800000120386026
:100E50000120286000203060002038602C2088F8B5
:100E600000000020C9F800000120C9F8000001209E
:100E70003860DFF8C807007800F00EF8BDE8F183AD
:100E80002810FE433010FE432C10FE4380F00F402C
:100E90002410FE433410FE4370B504002000C0B29D
:100EA000042804DBC821DFF8980700F015FDDFF8FF
:100EB0008C0704702000C0B2002808D0022800F07F
:100EC0007C81C0F0BF80032800F03082E2E2DFF8CE
:100ED000740701210160DFF8701700220A60DFF853
:100EE0006C2700231360DFF8683736251D70DFF8A4
:100EF000645700262E6001262E600126166001260A
:100F0000066001260E6000261660C8261E700026A8
:100F10002E6001262E60012616600126066000263E
:100F20000E60002616602A261E7000262E600126FE
:100F30002E60012616600126066001260E6000263E
:100F4000166000261E7000262E6001262E600126E7
:100F500016600126066001260E6000261660022635
:100F60001E7000262E6001262E60012616600126C6
:100F7000066001260E600026166000261E70002600
:100F80002E6001262E6001261660012606600126CD
:100F90000E600026166081261E7000262E60012637
:100FA0002E60012616600126066000260E600026CF
:100FB00016602B261E7000262E6001262E6001264C
:100FC00016600126066001260E60002616600026C7
:100FD0001E7000262E6001262E6001261660012656
:100FE000066001260E600026166003261E7000268D
:100FF0002E6001262E60012616600126066001265D
:101000000E600026166000261E7000262E60012647
:101010002E6001261660012606600120086000206F
:1010200010608220187000202860012028600120B4
:1010300010608020DFF8201608808020DFF81C1662
:10104000088027E2DFF8FC0501210160DFF8F815D0
:1010500000220A60DFF8F42500231360DFF8F03582
:1010600036251D70DFF8EC5500262E6001262E6017
:10107000012616600126066001260E600026166015
:10108000A8261E7000262E6001262E6001261660FE
:101090000126066000260E60002616602A261E70B5
:1010A00000262E6001262E600126166001260660AD
:1010B00001260E600026166000261E7000262E6097
:1010C00001262E60012616600126066001260E60AC
:1010D0000026166003261E7000262E6001262E6054
:1010E000012616600126066001260E6000261660A5
:1010F00000261E7000262E6001262E600126166036
:101100000126066001260E600026166082261E70EB
:1011100000262E6001262E6001261660012606603C
:1011200000260E60002616602B261E7000262E60FC
:1011300001262E60012616600126066001260E603B
:101140000026166000261E7000262E6001262E60E6
:10115000012616600126066001260E600026166034
:1011600002261E7000262E6001262E6001261660C3
:101170000126066001260E600026166000261E70FD
:1011800000262E6001262E600126166001260660CC
:101190000120086000201060812018700020286065
:1011A00001202860012010608020DFF8AC14088046
:1011B0008020DFF8A81408806CE1DFF888040121A2
:1011C0000160DFF8841400220A60DFF88024002325
:1011D0001360DFF87C3436251D70DFF87854002664
:1011E0002E6001262E60012616600126066001266B
:1011F0000E600026166008261E7000262E6001264E
:101200002E60012616600126066000260E6000266C
:1012100016602A261E7000262E6001262E600126EA
:1012200016600126066001260E6000261660002664
:101230001E7000262E6001262E60012616600126F3
:10124000066001260E600026166002261E7000262B
:101250002E6001262E6001261660012606600126FA
:101260000E600026166000261E7000262E600126E5
:101270002E60012616600126066001260E600026FB
:10128000166081261E7000262E6001262E60012623
:1012900016600126066000260E60002616602B26CA
:1012A0001E7000262E6001262E6001261660012683
:1012B000066001260E600026166000261E700026BD
:1012C0002E6001262E60012616600126066001268A
:1012D0000E600026166003261E7000262E60012672
:1012E0002E60012616600126066001260E6000268B
:1012F000166000261E7000262E6001262E60012634
:10130000166001260660012008600020106082201F
:1013100018700020286001202860012010608020C3
:10132000CD4908808020CD490880B3E0C54801211F
:101330000160C54900220A60C44A00231360C44BFF
:1013400036251D70C34D00262E6001262E60012615
:1013500016600126066001260E60002616606826CB
:101360001E7000262E6001262E60012616600126C2
:10137000066000260E60002616602A261E700026D3
:101380002E6001262E6001261660012606600126C9
:101390000E600026166000261E7000262E600126B4
:1013A0002E60012616600126066001260E600026CA
:1013B000166003261E7000262E6001262E60012670
:1013C00016600126066001260E60002616600026C3
:1013D0001E7000262E6001262E6001261660012652
:1013E000066001260E600026166082261E7000260A
:1013F0002E6001262E60012616600126066000265A
:101400000E60002616602B261E7000262E60012618
:101410002E60012616600126066001260E60002659
:10142000166000261E7000262E6001262E60012602
:1014300016600126066001260E6000261660022650
:101440001E7000262E6001262E60012616600126E1
:10145000066001260E600026166000261E7000261B
:101460002E6001262E6001261660012606600120EE
:101470000860002010608120187000202860012082
:101480002860012010608020734908808020734903
:101490000880FFE770BD73B468480078C0070AD5BC
:1014A000BDF80000C01CADF80000BDF80200801CB3
:1014B000ADF8020009E0BDF80000801CADF80000A6
:1014C000BDF80200C01CADF802005E4901200860B2
:1014D0005D4A002010605D4B002018605C4C2A20A3
:1014E00020705C4D002028600120286001201860D9
:1014F000012008600120106000201860BDF8000085
:1015000080B2000A2070002028600120286001209D
:101510001860012008600120106000201860BDF8EC
:101520000000207000202860012028600120186041
:10153000012008600120106000201860BDF8000044
:10154000BDF8046016FA80F0401E001220700020E2
:101550002860012028600120186001200860012017
:10156000106000201860BDF80060BDF80400861906
:10157000701E207000202860012028600120186063
:101580000120086000201060002018602B202070CF
:1015900000202860012028600120186001200860D8
:1015A0000120106000201860BDF8020080B2000A1F
:1015B0002070002028600120286001201860012090
:1015C00008600120106000201860BDF80200207043
:1015D0000020286001202860012018600120086098
:1015E0000120106000201860BDF80200BDF8066000
:1015F00016FA80F0401E00122070002028600120A2
:10160000286001201860012008600120106000207F
:101610001860BDF80210BDF806004118481E207081
:1016200000202860012028600120186073BC7047EA
:10163000094800887047094800887047DE4CFF1F42
:10164000F08500002810FE433010FE432C10FE43AE
:1016500080F00F402410FE43900DFF1F920DFF1FDE
:10166000F8B504000D0016004FF480712000C0B2E0
:1016700000F092F8280040B2002812D1444821001E
:10168000C9B2491150F821102200D2B2521150F8BB
:1016900022004269012314F01F0083409A434A61EB
:1016A00038E001213A4A2000C0B2401152F820002F
:1016B0002300DBB25B1152F823305B6914F01F0783
:1016C00011FA07F73B4343613000C0B2002811D143
:1016D0002000C0B2401152F82000036814F01F002F
:1016E000814033EA01012000C0B2401152F82000CD
:1016F00001600FE02000C0B2401152F820000368E2
:1017000014F01F00814019432000C0B2401152F86C
:1017100020000160F1BD38B504001D4D2000C0B2AD
:10172000401155F82000406914F01F01C840C0075F
:1017300003D47B21174800F0CFF82000C0B240113D
:1017400055F82010012214F01F008240CA6031BDFC
:1017500038B504000E4D2000C0B2401155F82000ED
:10176000406914F01F01C840C00703D58C21094807
:1017700000F0B2F82000C0B2401155F82000006916
:1017800014F01F04E04010F0010032BD0000000022
:10179000300BFF1F0487000030B42B4B1C684FF444
:1017A00000750200D2B2520995402C431C60274BB1
:1017B0000200D2B2521153F82240012510F01F024C
:1017C0009540C4F8A0500200D2B2521153F8222022
:1017D0000300DBB213F01F0342F8231030BC704744
:1017E00030B4194B1C684FF400750200D2B2520994
:1017F00095402C431C60154B0200D2B2521153F895
:101800002240012510F01F029540C4F8A05031F489
:10181000E0610200D2B2521153F822200400E4B277
:1018200014F01F0452F8242012F4E0621143020065
:10183000D2B2521153F822200300DBB213F01F037F
:1018400042F8231030BC7047388004408C0BFF1FD7
:1018500010B50400002C13D0B4F1807F03D32921EC
:101860000E4800F039F80E48002101600D490C6067
:1018700000210D4A1160052101600168C903FCD5F2
:1018800010BD10B504002000441E002804D00748F5
:101890000068FFF7DDFFF6E710BD0000648600007A
:1018A00010E000E014E000E018E000E0304BFF1F23
:1018B000DFF800F0C50DFF1FDFF800F0EF0DFF1F90
:1018C000BFF34F8F46490A6812F4E062454802436D
:1018D0000A60BFF34F8FFEE738B504000D0000200B
:1018E00000F08EF82A0021003F4800F0C9F80020DF
:1018F00000F0A6F84FF47A70FFF7C3FFF2E738B5AF
:1019000004000D00210049B2042000F0E4F9200099
:1019100032BD10B50024042000F024FA042000F0A9
:101920005BFA002842D1002000F06AF8042000F0A1
:1019300053FA012801D101200400002000F080F8B2
:101940002A4800F09DF84FF4FA70FFF79AFF200044
:10195000C0B20128EAD1042000F03EFA0028E5D107
:10196000042000F039FA002806D1002000F068F8C1
:101970006420FFF786FFF3E7042000F02DFA01282A
:1019800006D1002000F05CF83220FFF77AFFF3E781
:10199000174800F075F8FFF78BFF6420FFF771FF21
:1019A0000020FFF789FFFFF78BFFBFE710BD10B5E1
:1019B00010480468012000F023F8012000F040F8EE
:1019C0000D492200D2B20F2042430A442100C9B27D
:1019D0000A4800F055F84FF47A70FFF752FFECE731
:1019E0000CED00E00400FA05C48700006C880000DC
:1019F000F887000004ED00E01C04FF1FB485000020
:101A000010B50400200040B2042808DA01220121A8
:101A10001A4823005BB2C05CFFF722FE0FE00420EF
:101A200004002000441E40B2002808D001220121F9
:101A3000124823005BB2C05CFFF712FEF1E710BD55
:101A400010B50400200040B2042806DA0B4821003B
:101A500049B2405CFFF75FFE0DE004200400200067
:101A6000441E40B2002806D00448210049B2405C20
:101A7000FFF751FEF3E710BD000000000C0DFF1F43
:101A80000EB4C0B5024603A800210190009101AB3D
:101A90000121044878440C3000F0B6F906BC5DF82A
:101AA00010FB00BFA76D0000012210F01F018A404B
:101AB000DFF8941203005BB25B0941F82320704702
:101AC0002DE9F84304000D00200040B2002808D0A2
:101AD000022828D016D3042847D035D3052855D05E
:101AE00065E0DFF86802016851F4806101604FF43D
:101AF00040716620FFF750FE4FF440716720FFF7FA
:101B00004BFE54E0DFF84402016851F400610160CB
:101B10004FF440714320FFF73FFE4FF440714420E3
:101B2000FFF73AFE43E0DFF82402016851F48051E8
:101B300001604FF440716320FFF72EFE4FF44071B7
:101B40006220FFF729FE32E0DFF80002016851F45D
:101B5000005101604FF440715020FFF71DFE4FF41B
:101B600040715120FFF718FE21E0DFF8E401016821
:101B700051F4806101604FF440714E20FFF70CFE7C
:101B80004FF440714F20FFF707FE10E0DFF8C0016F
:101B9000016851F4006101604FF440718920FFF742
:101BA000FBFD4FF440718820FFF7F6FDFFE7DFF8FB
:101BB000A461200040B256F82000C07810F0F30075
:101BC000210049B256F82110C870200040B256F8E2
:101BD00020008078210049B256F82110887020003A
:101BE00040B2002803D0200040B2012806D1DFF81F
:101BF000680107684FF47A70474305E0DFF85C013D
:101C000007684FF47A7047432801B7FBF0F8404665
:101C100080B2B0F5005F02DB41F6FF708046B7FB93
:101C2000F5F9404680B2B9EB0019484680B2202849
:101C300003DBDC214A48FFF74FFE200040B256F894
:101C40002000007810F0E000C8F3042101432200D6
:101C500052B256F822201170210049B256F82110D4
:101C600081F80180210049B256F82110897A11F0DB
:101C7000E00119F01F020A4323005BB256F823303B
:101C80009A72220052B256F82220127C52F0880238
:101C900023005BB256F823301A74220052B256F871
:101CA0002220D27852F00C0223005BB256F8233087
:101CB000DA70BDE8F183274A03005BB252F82330A3
:101CC0001B799B06F7D503005BB252F8232092F9EB
:101CD00007200A7070471F4A03005BB252F8233096
:101CE0001B791B06F7D503005BB252F82320D17194
:101CF000704770B504000D0016003000461E002825
:101D000009D095F90000010049B2200040B2FFF768
:101D1000E2FF6D1CF1E770BD10B504000D48210015
:101D200049B250F82110C97851F02001220052B276
:101D300050F82200C170200040B240002D3040B267
:101D4000FFF7B2FE10BD000000E100E03480044067
:101D500028800440A00BFF1F304BFF1F384BFF1F94
:101D60003887000038B50400200040B208280EDA99
:101D7000244D00220021200040B2285CFFF770FCB7
:101D80000321200040B2285CFFF72AFD15E008205F
:101D900004002000441E40B200280ED0194D00223D
:101DA0000021200040B2285CFFF75AFC03212000EC
:101DB00040B2285CFFF714FDEBE731BD10B504001D
:101DC0001048210049B2405CFFF7C2FC002801D155
:101DD000002000E0012010BD10B50400200040B23A
:101DE000FFF7ECFF00280AD10A20FFF74AFD200088
:101DF00040B2FFF7E3FF002801D1002000E00120FE
:101E000010BD0000040DFF1F2DE9F0439FB00FF639
:101E1000A836269CDFF804898DF83B400291002407
:101E20000B944FF0FF37044691461D460AE019F81F
:101E3000011B0298A0470028029000F0A1800B9897
:101E4000401C0B9099F8000050B12528EFD10021DB
:101E50000022059106920791089209910A9203E0E7
:101E60000B98A0E041F0010119F8010F2028F9D0EA
:101E700023280CD02B2804D02D2805D0302809D0B9
:101E800080E041F00201EFE741F00401ECE741F0AE
:101E90000801E9E741F01001E6E70D920AE00D982C
:101EA000404505DA00EB800002EB4002303A0D922B
:101EB00009F1010999F80020A2F130000A28EED3B7
:101EC00099F800002E2818BF0C9726D119F8010F99
:101ED0002A2808D12868286009F1010950F8042B44
:101EE00028600C9219E02D280CBF09F1010900208F
:101EF00000220C920BE040B90C9A424505DA02EB45
:101F0000820203EB4203303B0C9309F1010999F87B
:101F10000030A3F130020A2AEDD3ADF83810304674
:101F200099F8001000F098FD08B119F8010B8DF830
:101F30003A009DF83A00682805D199F80000682811
:101F40000CD1622106E06C2804BF99F800006C28CF
:101F500004D171218DF83A1009F1010910A80490FB
:101F60002A4619F8013B6946204600F05CF838B96A
:101F700010AA6946204600F086F900287FF562AF76
:101F8000384610E02A2888D12A682A6052F8040BC3
:101F90002A6000280D9003D540420D9041F00401C5
:101FA00009F101098CE71FB0BDE8F083622820D059
:101FB000682811D06A2803D06C2827D0712825D131
:101FC0000868C01D20F007000860D0E90023083031
:101FD0000860194610467047002A0A680A601068AF
:101FE00003D0121D0A6000B217E0121D0A6080B211
:101FF00017E0002A0A680A60106803D0121D0A6000
:1020000040B20AE0121D0A60C0B20AE0002A0A6863
:102010000A60106803D0121D0A60C1177047121DB4
:102020000A600021704770B51C460D46B4F12500CA
:102030002E69114600F015812038022863D9133823
:1020400040D00B3816D0401E1ED0401E02285AD950
:10205000001F19D0401F00F08180401E32D0401E6A
:1020600000F0CB80C01E00F0DA80801E2AD0C01E97
:1020700028D0FCE06869421C6A610A680A6052F86C
:10208000043B0A603354FCE095F83A000122FFF764
:102090008DFFC5E90001002904D56869411C69610B
:1020A0002D220DE0288F810704D56869411C6961E4
:1020B0002B2205E0C00721D56869411C69612022F7
:1020C00032541BE095F83A000022FFF76FFFC5E994
:1020D000000195F83800010710D5D5E90023002B41
:1020E00008BF002A0AD044F02000782806D1686989
:1020F00030213154401C421C6A61345421466869C5
:102100003044E86087E00868C01D20F007000860E0
:10211000D0E9002308300860C5E90023D5E90001B3
:10212000C80F04D06869411C69612D220DE0288F19
:10213000810704D56869411C69612B2205E0C0074D
:1021400004D56869411C69612022325468693044B1
:10215000E8602146284600F0C4F992E005F13A0211
:10216000507820B14FF0FF340FF6540062E0107841
:10217000622808D0682824D06A2812D06C282ED073
:1021800071280ED02BE00A680A6052F8040B0A602E
:1021900020B94FF0FF340FF640004BE0E96A0170C0
:1021A0006FE00A680A6052F8040B0A6020B94FF029
:1021B000FF340FF624003DE0EA6AD317C0E900239C
:1021C0005FE00A680A6052F8040B0A6020B94FF019
:1021D000FF340FF604002DE0E96A018051E00A683F
:1021E0000A6052F8040B0A6020B94FF0FF340FF276
:1021F000E8701FE0E96A016043E00A680A6052F88B
:10220000040B0A60002120F0000221F0FF33C5E931
:102210000023EE607821284600F0BBF831E0086822
:10222000086050F8044B0860EC603CB94FF0FF3494
:102230000FF2BC7000F01CFC201A70BD2E6B002E3B
:1022400004D5204600F034FC044608E03246002164
:10225000204600F049FC002814BF041B3446AC6142
:102260000FE06869411C69612522325409E06969FF
:10227000481C686125227254210002D0431C6B6106
:102280003454002070BD2DE9FC410F4606469046AF
:102290007A6B7869396ABC6A121AB869521A796A13
:1022A000121AF869521A121A97F83800141B4107CB
:1022B0000FD42020002C8DF800000ADD25460123D4
:1022C0006A463946304600F05FFB00285DD16D1E3E
:1022D000F5D17B6942463946304600F055FB00286F
:1022E00053D130208DF800003D6A002D09DD012317
:1022F0006A463946304600F047FB002845D16D1E3E
:10230000F5D1BB69FA683946304600F03DFB00283C
:102310003BD130208DF800007D6A002D08DD0123BF
:102320006A463946304600F02FFB70BB6D1EF6D171
:10233000F868B969FB6942183946304600F024FB59
:1023400018BB30208DF80000BD6A002D08DD012388
:102350006A463946304600F017FBB0B96D1EF6D11B
:1023600097F8380041070DD52020002C8DF800008B
:1023700008DD01236A463946304600F005FB20B9E6
:10238000641EF6D10020BDE8F6814FF0FF30BDE8B5
:10239000F6812DE9FC4307466F293E6908BF0824F2
:1023A00005D041F02000782814BF0A2410243C25D1
:1023B000D7E90023642918BF69299046994605D1B9
:1023C000002B03D5D8F1000869EB4909B9F1000FDA
:1023D00008BFB8F1000F1FD1386BE8B9082C4CD1F9
:1023E00097F83800010748D530203B2586F83B0098
:1023F00043E000280ED597F8380000F014001028AC
:1024000008D17B6B7969386A5B1A1B1A9A1A002A01
:10241000C8BF3A62BDE8F3838DF8001040464946D4
:102420002246E31700F08CFB3032D0B26D1E3A2802
:10243000019504DB9DF80000A0F151018A18725546
:10244000404649462246E31700F07AFB80465FEAA1
:10245000010908BFB8F1000F03D0F868711988426C
:10246000DCD3082C09D197F83800010705D5705D39
:10247000302802D06D1E30207055C5F13C02BA6183
:102480007119F960386B8242B3DA821A3A624FF6F8
:10249000EF70398F01403987BDE8F3832DE9D043D0
:1024A00006460F4614464FF00008DFF8749212E01B
:1024B000E00707D542464B463046394600F058FC07
:1024C00006460F464046494642464B4600F050FC01
:1024D000641080468946002CEAD130463946BDE872
:1024E000D0832DE9F047064689468EB0D6E9000133
:1024F000CDE9020104AC306B002802D50620306320
:1025000005E001BF49F02000672801213163D6E9C9
:10251000002358004015401C0DD119030BD0A9F120
:10252000610103201A29B06102D20FF2E04110E0EC
:102530000FF2DC410DE059004915491C0ED118037A
:102540000CD1A9F1610103201A29B06116D30FF251
:10255000C841F068032200F0DDFCDBE023F0004717
:10256000B7F5801F1046194622F000050DD2002253
:10257000002F08BF002D019203D116E00FF2944105
:10258000E7E701AA00F01AFD08E06648664900EB9B
:10259000175001906548034010461943019B644D54
:1025A00047F29752534393FBF5F2C6E9000120F03E
:1025B000000331F0004104BF002B002300F0A28093
:1025C000DDE90240019220F00045D2F1070204DD6E
:1025D00020462946FFF762FF0AE052420020554993
:1025E000FFF75CFF02460B462046294600F01EFD21
:1025F000044649F0200ABAF1660F306B06BF019D10
:102600000A3506252D18142DC8BF142530208846FC
:102610008DF810000DF11107002D33DD20464146E5
:1026200000F028FE01460A4607F1080304200A27A5
:10263000B2FBF7F707EB870EA2EB4E02303203F83E
:10264000012C0A22B7FBF2F202EB820EA7EB4E0737
:102650003037401E03F8027DE9D1083D002D03F11B
:102660000807D9DD084600F019FE02460B46204651
:10267000414600F021FE00222F4B00F079FB04467A
:102680008846CBE70DF111003F1A0DF1110404E06B
:102690000198401E7F1E0190641C20783028F7D0DE
:1026A000BAF1660F02D10198401C04E0BAF1650F3F
:1026B0000CBF01200020336BC3189F42B8BF7B1EA4
:1026C000002B1ED4BB4204DAE05C3528A8BF3920B9
:1026D00000DA30201946621E02EB010800E05B1EA2
:1026E00018F80179491E8742F9D0392802D1605C77
:1026F000401C6054002904D50198401C14465B1C02
:102700000190019800B200901BB222464946304623
:1027100000F014F80EB0BDE8F0870000CBCCCC0C74
:102720000000244002FCFFFF0000E03FFFFF0F809D
:10273000A08601000000F03F84D797412DE9F847BB
:1027400083B005468A469146984600F027FEB8F1C8
:10275000000F406A2F6B067803DC4FF001080FF280
:10276000BC294AF02000BDF93040662808BF641C2F
:1027700013D0672840F08F8014F1040F7ADBBC423D
:1027800078DA95F83800641C010702D4B845B8BF60
:10279000474620B23F1A48BF00270FFA84FAE8687C
:1027A000A969BAF1000F23DC4A1C30234354002FDF
:1027B00003DC95F83800010702D5E8688654521CFE
:1027C00017EB0A0FB8BF7C4224B2E71960424745B5
:1027D000B8BFB846AA6168620FFA88F4EC61E8688D
:1027E000AB6922464946184400F094FB3F1B18E0B1
:1027F00022B29045084416DA4246494600F08AFB68
:10280000A8694044A861AAEB0801002F696203DCB3
:1028100095F838100A0704D5E9680E54E869401C99
:10282000E861AF6299E0494600F074FBA869002FA7
:102830005044A8EB040803DC95F838100A0702D5C9
:10284000E9680E54401CA8610FFA88F08742EB68D3
:10285000A869B8BFB8460FFA88F209EB0A01184414
:1028600000F058FBA9690FFA88F00144A961381AF1
:10287000686272E0B84504DA95F838100A0758BF64
:1028800047467F1E48BF0027BAF1670F0CBF4FF0C5
:10289000650A4FF0450AA969EB68481CA861002F3A
:1028A00019F8012B5A5403DC95F838100A0719D58A
:1028B000E968431CAB610E54002F13DDA8F101063B
:1028C00030B28742D5F80CC0B8BF3E4632B2494656
:1028D0000CEB030000F01EFBA86936B23018BF1BDA
:1028E000A8616F62E868A9690844002C80F800A01C
:1028F00003D42B224270811C03E02D2141706442DD
:10290000811C00206A460AE023460A2493FBF4F463
:1029100004EB8406A3EB460302F8013B401C24B2FF
:10292000002CF1DC012806DC4AF02002652A04BFF5
:10293000302201F8012B48B9302001F8010B07E0E3
:10294000401E1DF80030303301F8013B0028F7DC51
:10295000EA68A8691044091AE96195F8380000F09E
:10296000140010280DD16A69A969686A8A18E96992
:102970008218A86A8A188218686B8242BCBF821AC1
:102980002A6204B0BDE8F087F8B505460E46174642
:102990001C46002074B117F8011BB068A847B0604E
:1029A00030B1F06A401CF0620020641EF3D1F2BD29
:1029B0004FF0FF30F2BD0000686A6C747A4C000082
:1029C0007072696E74665F733A20256E2064697355
:1029D000616C6C6F776564007072696E74663A2022
:1029E00062616420256E20617267756D656E74008A
:1029F0007072696E74665F733A2062616420257339
:102A000020617267756D656E740000006E616E0006
:102A10004E414E00696E6600494E4600300030B4AB
:102A2000002513E050F8042BD30744BFA9F101039C
:102A30009A18091F042942F8045BFAD213468C073E
:102A400044BF15809B1CC90748BF1D7050F8041B6C
:102A50000029E7D130BC7047C9B202788A421AB166
:102A60001CBF10F8012FF9E718BF002070470000C5
:102A700080B500B906A005490B681BB122220021D0
:102A8000984701E000F08EFC222002BD7C4CFF1F25
:102A9000636F6E73747261696E742068616E646CCA
:102AA00065723A20626164206D65737361676500C9
:102AB00000F10103810704D010F8011B820781B1E6
:102AC000FAD10268A2F10131914311F0803104BFC3
:102AD00050F8042FF6E709BAB1FA81F100EBD10002
:102AE000401CC01A70470000C9B2830706D0521EAE
:102AF00022D310F8013B9942F7D11FE0083A13D3D3
:102B000002F1040241EA012141EA014150F8043B8B
:102B1000121F21BF4B40A3F1013C2CEA030C1CF017
:102B2000803FF3D0C9B2001F083210F8013B521E9B
:102B300028BF91EA030FF8D818BF0120401E704744
:102B4000BBBBE1B1B2F5803F80F07E80022A1ED986
:102B50008C46B1FBF2F102FB11C31B0443EA1043A4
:102B6000B3FBF2FC02FB1C3380B240EA0343B3FB2D
:102B7000F2F002FB103240EA0C4000237047022AB8
:102B800005D98446B0FBF2F002FB10C270474AB18F
:102B900005D100F0010249085FEA300070470022C9
:102BA0000023704700F002BC0B000200002100204F
:102BB0007047904271EB030CF6D3B3F5803F2FD2F0
:102BC000F0B5B3FA83F7B1FA81F4A7F10F0E3D1B0C
:102BD0005340CEF1200602FA0EF2F3415340B5F114
:102BE0000F0746D80F3C2C444140C4F12006A040BA
:102BF000F1414140B1FBF3F603FB1611A2FB064580
:102C0000001BA94102D2761E8018594180EA0102B8
:102C100021FA0EF362FA0EF200215A403046F0BD5E
:102C200030B4B1FBF3FC03FB1C11A2FB0C45001BF1
:102C3000A94103D2ACF1010C8018594130BC0246C5
:102C40000B46604600217047B2F1807F65D3F0B536
:102C5000B2FA82F7B1FA81F4C7F10F063D1B22FAEE
:102C600006F307F1110EF24120355A40B5F10F0776
:102C7000B8D94140C4F12006A040F1414140B1FB28
:102C8000F3FC03FB1C11A2FB0C45001BA94103D262
:102C9000BCF1010C801859410F2F12D30F3FC9030B
:102CA00041EA5041B1FBF3F603FB1611A2FB0645C6
:102CB000D4EBC030A94102D2761E8018594146EAB1
:102CC000CC3C07B34140C7F12006B840F141414038
:102CD000B1FBF3F603FB1611A2FB0645001BA9414D
:102CE00002D2761E8018594180EA010221FA0EF3C1
:102CF000C7F1200462FA0EF20CFA07F05A402CFADF
:102D000004F13043F0BD80EA010221FA0EF3002104
:102D100062FA0EF260465A40F0BD8C46B1FBF2F109
:102D200002FB11C31B0243EA1063B3FBF2FC02FB7C
:102D30001C331B024CEA002043EA1063B3FBF2FC95
:102D400002FB1C331B024CEA002043EA1063B3FB76
:102D5000F2FC02FB1C331B024CEA002043EA106326
:102D6000B3FBF2FC02FB1C324CEA0020002370474C
:102D7000B0B581EA030C0CF0004C40F2FF7515EA87
:102D800011541DBF15EA1357AC42AF4239E0E419A4
:102D900023EA455343F48013C90241F0004141EA5C
:102DA000505EC7021100A7FB020200284FF000008E
:102DB000EEFB01204FF00001E3FB072118BF42F0BA
:102DC0000102401800214941E3FB0E01A4F5806493
:102DD0000F0302D252004041494154F101046CDD1D
:102DE000470872F1004250F1000051EB0451A1F587
:102DF00080115CBF41EA0C01B0BD4CEA05510020D6
:102E0000B0BD05EA1357AC4214BFAF4241E050EAEF
:102E1000410E1CBF52EA430E02E061460020B0BDE5
:102E200024423C441BD15FEA070EF6D0090302BFDF
:102E300001460020AEF1140EB1FA81F7AEEB0704A3
:102E400001FA07FE0C37C7F1200100FA07F7C84066
:102E50004EEA000E23EA455343F48013A2E733F011
:102E60000043B3FA83F704BFB2FA82FE77440B3F04
:102E7000E41BB7F1200E2FBF02FA0EF3BB40C7F1DF
:102E8000200E22FA0EFE38BF43EA0E03BA40641C3D
:102E900082E750EA410E14BF52EA430E6FF0000180
:102EA0004FF4001717EB430F8ABF194617EB410F7A
:102EB000B5E74CEA05510020B0BDD4F10104B4F1EE
:102EC00020070FDAC4F12007520828BF42F00102A0
:102ED00010FA07F501FA07F7E1BF2A43E04038434B
:102EE000E1400FE0352C98DCC7F1200452EA4002A3
:102EF00020FA07F218BF42F0010231FA07F0A140B0
:102F00000A43002172F1004250F1000051EB0C0124
:102F1000B0BD000062B38B0708D0521E11F8013B10
:102F200000F8013B00F024808B07F6D1830740F0C6
:102F3000208000BF103A07D330B4B1E83810103AFF
:102F4000A0E83810F9D230BC530724BFB1E808100C
:102F5000A0E8081044BF51F8043B40F8043BD207F6
:102F600024BF31F8022B20F8022B44BF0B780370EA
:102F70007047121F17D35B0009D151F8043B20F8AA
:102F8000023B1B0C121F20F8023BF6D20BE051F85B
:102F9000043B00F8013B1B0A20F8023B1B0C121FEC
:102FA00000F8013BF3D238BF121D521E24BF11F8A6
:102FB000013B00F8013BF8D87047000010B51446FB
:102FC00000F002F8226010BDC1F30A5343B14A0079
:102FD00012F5001F28D2A3F2FE32A1EB0251704776
:102FE00050EA410C20D001F0004C31EA0C01B1FA5A
:102FF00081F204BFB0FA80F3D2180B3AB2F1200389
:103000002CBF00FA03F1914041EA0C013EBFC2F12E
:10301000200C20FA0CF319439040524240F2FD3349
:10302000D21A01EB0351704700227047F0B540F20D
:10303000FF7581EA030C0CF0004C15EA11541DBF1A
:1030400015EA1357AC42AF42E5E0BC41C1F31301AE
:10305000C3F31303801A994143F4801304D2641E0E
:103060004000494180185941C90241EA5051B1FB21
:10307000F3F603FB1611A2FB0675D7EBC020A9419E
:1030800002D2761E80185941C90241EA5051B1FB63
:10309000F3FE03FB1E11A2FB0E75D7EBC020A94166
:1030A00003D2AEF1010E80185941890241EA9051D4
:1030B000760546EA8E2EB1FBF3F603FB1611A2FB52
:1030C0000675D7EB8020A94102D2761E801859419F
:1030D000C90241EA50514EEA060EB1FBF3F603FB7A
:1030E0001611A2FB0675D7EBC020A94102D2761EAD
:1030F00080185941C90241EA5051B1FBF3F703FB73
:103100001711A2FB0735D3EBC020A94167F10007D7
:103110000CBF004247F0010766F3D5274FEA1E3186
:10312000B80814F5806412DDBD0775F1004250EB5C
:103130000E5051EB045111F5801F5CBF41EA0C01A8
:10314000F0BD4CF07F6141F0E0410020F0BDBD07D3
:103150006D0840EA0E5041F48011D4F10104B4F13D
:1031600020060ADAC4F120060200E04001FA06F364
:10317000E1401843B24015430EE0342C13DCC6F195
:10318000200445EA40056D0820FA06F2154321FAAD
:1031900006F0A1400D43002175F1004250F10000FE
:1031A00051EB0C01F0BD00205FEA0C01F0BDCFB97E
:1031B00092185B41B3FA83F704BFB2FA82F6BF19E3
:1031C0000B3FB7F120062FBF02FA06F3BB40C7F151
:1031D000200622FA06F638BF3343BA401CB1E41980
:1031E000641E33E77F4231F00041B1FA81F404BF3D
:1031F000B0FA80F6A4190B3CB4F120062FBF00FAF8
:1032000006F1A140C4F1200620FA06F638BF31438A
:10321000A0403C1B1AE7AC421ABF05EA1357AF4265
:1032200012E050EA41061CBF52EA4306BFE750EAEB
:103230004107304661461CBF41EA0551F0BD52EAE4
:10324000430C08BFC143F0BD00204FF4001616EB3D
:10325000410F98BF16EB430F08BF16EB410F24BF79
:10326000C14305E016EB430F0CBF61464CEA055124
:10327000F0BD0000400D491840EA81200CD2490DF4
:10328000A1F58061491C40F0004005DBD1F11F0130
:1032900054BFC840C017704700207047014648B16E
:1032A000B0FA80F18840C91CC1F58461090501EBC1
:1032B000D02140057047000070B44FF0004591EAFE
:1032C000030F40F175806B40841A71EB030603D243
:1032D000001BB141121973414FF4001C1CEB410F4C
:1032E00034BF7CEB430442E00C0DA4EB1356352EA7
:1032F0004FDC45EAC323DB0A45EAC121C912B6F116
:1033000020050DDD63FA05F6EB4086EA030512425F
:1033100018BF45F00105C01851F100010CD213E0AF
:1033200062FA06F5F2405540F3415A40B340F3408B
:103330005A408018594107D349085FEA30005FEAD4
:10334000350528BF45F0010501F58011420875F1EA
:10335000004250F1000041EB04514E0016F5001FF1
:1033600070BC38BF70470020090D090570471CEB81
:10337000410F10D252EA43060BD0BCEB410F05D8E7
:103380000C0DAB43661E342EB6DD02E0AB43801855
:10339000594170BC704770BC7047000000487047CE
:1033A000100DFF1F012000F0B9B8000070470000A9
:1033B000841A71EB030604D26E40001BB14112194E
:1033C00073414FF4001C1CEB410F34BF7CEB4306F0
:1033D00083E00C0DA4EB1356362E00F37C80012EF7
:1033E00045EAC32341DC43EA525312BFD2029202A0
:1033F0005B08240545EAC12141EA5051D2EBC020C7
:10340000994125D407D1B0FA80F610FA06F162D0BE
:103410000020203608E0B1FA81F6B140C6F1200262
:1034200020FA02F21143B0404FEAF474B4EB465470
:1034300034F001064FEA74040AD8D6F50016760D6A
:1034400004F00044F04061FA06F25040F140484078
:10345000C00A40EA415021F0004128BF5FEA500510
:1034600050F1000044EBD12135E0DB0A45EAC121EF
:10347000C90AB6F120050EDD42EA0242120CC5F17E
:10348000200603FA06F6EB4042EA06056D42984133
:1034900061F100010DE062FA06F5F240554063FA71
:1034A00006FC82EA0C02F3405A406D42904161EB07
:1034B000030111F4801F05D1641E620502D06D0066
:1034C0004041494121F48011430875F1004350F116
:1034D000000041EB045170BC70471CEB410F15D24A
:1034E00023F0004352EA43060BD04FEA4C0CBCEBEE
:1034F000410F04D80C0D661E342EB7DDEBE7801AA1
:10350000994150EA410608BF0021E4E708BF1CEBDF
:10351000430F28BF6FF00001DDE700002021090301
:1035200026311820ABBEF9E738B51E4908680028D7
:10353000FBD00D685FF0FF3008601D242800E040DC
:10354000C00701D501F02EFA31BD80B501F03CFA7B
:1035500001BD10B5012001F081FA01F03DF9012013
:1035600001F0B8FA104C21684FF47A7291FBF2F135
:10357000B0FBF1F00D4908600D4840210170027860
:103580000C490D4801F056FA012001F0A3FA216818
:103590004FF47A7291FBF2F1B0FBF1F00749086049
:1035A00010BD0000A0900440384BFF1F540FFF1FB8
:1035B000D44CFF1F3C25FF1F7C12FF1F580FFF1F1D
:1035C0002DE9F84F00200024002500270021DFF816
:1035D000A42C1160DFF8A01C00220A60DFF89C2CEC
:1035E000002313600026DFF8983C5FF0280C83F876
:1035F0003CC0DFF82CCD5FF0000ECCF8F0E0DFF837
:1036000024ED5FF05008CEF8F080DFF81C9D5FF0ED
:103610003C08C9F8F0805FF03B08404600B2322811
:10362000C0F25E81404600B23B2803D1DFF8FC0CBB
:10363000076803E0404600B218444778380000B2FB
:10364000032801DA02200700380000B202282BDB31
:10365000DFF8DC4C5FF0500A18FB0AF02044BB4650
:103660000FFA8BFB10F80B00FF281BD118FB0AF098
:103670002044BB460FFA8BFB584410F8010C00287D
:1036800010D118FB0AF020443C0024B2204410F86A
:10369000020C002806D1380000B2444624B24CF88F
:1036A000240001E07F1ECFE7404600B23B2803D153
:1036B000DFF8780C046803E0404600B21844447810
:1036C000200000B24E2801DB4E200400200000B292
:1036D0004F2829DADFF8587C5FF0500A18FB0AF00F
:1036E0003844A3460FFA8BFB10F80B00FF2819D1C2
:1036F00018FB0AF03844A3460FFA8BFB5844407875
:1037000000280FD118FB0AF0384427003FB2384494
:103710008078002806D1200000B247463FB24EF81C
:10372000270001E0641CD1E7404600B25CF82000AD
:10373000002815D0404600B25EF8200050280FD077
:10374000404600B25CF82070404600B25EF82000AF
:10375000C719022097FBF0F047463FB2D855A5E0C5
:10376000404600B25CF8200000283DD0404600B240
:103770005EF82000502837D10868401C0860404699
:1037800000B25EF82070404600B25CF820003F1A9C
:10379000404600B20EEB8000D0F804A0404600B2D4
:1037A0000CEB80004068BAEB000A1AF1050A574595
:1037B00008DB404600B218444078801C47463FB2C0
:1037C000D85573E0404600B25CF82070404600B225
:1037D00059F820005FF0020A90FBFAF0C7197F1D2C
:1037E000404600B21F5461E0404600B25CF8200041
:1037F00000283AD1404600B25EF82000502834D06C
:10380000404600B25EF82070404600B25CF82000EE
:103810003F1A404600B20EEB8000D0F804A04046AC
:1038200000B20CEB80004068BAEB000A1AF1010A02
:10383000574508DB404600B218444078401E4746D2
:103840003FB2D85532E0404600B25EF820704046A4
:1038500000B259F820005FF0020A90FBFAF03F1A1C
:10386000781F47463FB2D85520E0404600B25CF88A
:10387000200000281AD1404600B25EF820005028EF
:1038800014D11068401C1060404600B23B2806D19D
:10389000DFF8980A006847463FB2D85506E0404630
:1038A00000B21844407847463FB2D85593F83B00E1
:1038B000462804DB4620DFF8747A38600DE093F880
:1038C0003B000B2804DA0A20DFF8607A386004E055
:1038D00093F83B00DFF8547A3860B8F101089CE6B1
:1038E0003127380000B20128C0F21885380000B234
:1038F0000CEB80004068002800F0B580380000B272
:103900000EEB80004068502800F0AD80380000B217
:103910000CEB800040680A304E2801DB4E2405E0A5
:10392000380000B20CEB800044680A34380000B262
:103930000CEB80004068401F022801DA012505E0F9
:10394000380000B20CEB80004068451F2000A846FC
:103950005FFA88F800B20FFA88F840452DDBDFF8EF
:10396000D0895FF0500A17FB0AF04044A3460FFAD3
:103970008BFB10F80B00FF281DD117FB0AF0404409
:10398000A3460FFA8BFB584410F8010C002812D103
:1039900017FB0AF04044A0460FFA88F8404410F89C
:1039A000020C002807D1200000B2B8460FFA88F8B0
:1039B0004CF8280001E0641EC8E7380000B20EEBA6
:1039C000800040680A38022801DA012406E0380045
:1039D00000B20EEB80004068B0F10A04380000B27B
:1039E0000EEB80004068401D4E2801DB4E2505E0AF
:1039F000380000B20EEB800045686D1D2800C0B293
:103A0000A04600B20FFA88F84045C0F2DE81DFF828
:103A100020895FF0500A17FB0AF04044A3460FFAD2
:103A20008BFB10F80B00FF281BD117FB0AF040445A
:103A3000A3460FFA8BFB58444078002811D117FB9E
:103A40000AF04044A0460FFA88F8404480780028E5
:103A500007D1200000B2B8460FFA88F84EF82800C7
:103A6000B3E1641CCAE7380000B20CEB8000406888
:103A7000002800F09A80380000B20EEB8000406809
:103A8000502840F09280380000B20CEB8000406873
:103A90000A304E2802DB5FF04E0807E0380000B223
:103AA0000CEB8000D0F8048018F10A08380000B24E
:103AB0000CEB80004068401F022801DA012505E078
:103AC000380000B20CEB80004068451F40462C00D7
:103AD000E4B200B224B2A0422CDBDFF854485FF01D
:103AE000500A17FB0AF02044C3460FFA8BFB10F86C
:103AF0000B00FF281BD117FB0AF02044C3460FFA26
:103B00008BFB584410F8010C002810D117FB0AF069
:103B10002044444624B2204410F8020C002806D168
:103B2000404600B23C0024B24CF8240002E0B8F158
:103B30000108CBE7380000B218444478200000B2F6
:103B40004E2801DB4E200400200000B24F2880F2F6
:103B50003C81DFF8DC875FF0500A17FB0AF0404435
:103B6000A3460FFA8BFB10F80B00FF281BD117FBA5
:103B70000AF04044A3460FFA8BFB584440780028D3
:103B800011D117FB0AF04044A0460FFA88F84044D0
:103B90008078002807D1200000B2B8460FFA88F8D4
:103BA0004EF8280011E1641CCEE7380000B20CEB9F
:103BB00080004068002840F09980380000B20EEB89
:103BC00080004068502800F09180380000B20EEB71
:103BD000800040680A38022802DA5FF0010806E037
:103BE000380000B20EEB80004068B0F10A083800DF
:103BF00000B20EEB80004068401D4E2801DB4E25D0
:103C000005E0380000B20EEB800045686D1D28000D
:103C1000C0B2444600B224B2A0422ADBDFF810470B
:103C20005FF0500A17FB0AF02044C3460FFA8BFBE3
:103C300010F80B00FF2819D117FB0AF02044C346E7
:103C40000FFA8BFB5844407800280FD117FB0AF07D
:103C50002044444624B220448078002806D14046BF
:103C600000B23C0024B24EF8240002E018F1010832
:103C7000CDE7380000B218444478200000B2022892
:103C800001DA02200400200000B20128C0F29D8069
:103C9000DFF89C865FF0500A17FB0AF04044A34609
:103CA0000FFA8BFB10F80B00FF281DD117FB0AF051
:103CB0004044A3460FFA8BFB584410F8010C00282F
:103CC00012D117FB0AF04044A0460FFA88F840448E
:103CD00010F8020C002807D1200000B2B8460FFAF5
:103CE00088F84CF8280070E0641ECCE7380000B279
:103CF0000CEB80004068002867D1380000B20EEB62
:103D000080004068502860D1380000B2184490F814
:103D10000180404600B201282CDBDFF814465FF03A
:103D2000500A17FB0AF02044C3460FFA8BFB10F829
:103D30000B00FF281BD117FB0AF02044C3460FFAE3
:103D40008BFB584410F8010C002810D117FB0AF027
:103D50002044444624B2204410F8020C002806D126
:103D6000404600B23C0024B24CF8240002E0B8F116
:103D70000108CEE7380000B218444478200000B2B1
:103D80004F2822DADFF8A8055FF0500817FB08FA81
:103D90008244A3460FFA8BFB1AF80BA0BAF1FF0F6F
:103DA00011D117FB08F84044A0460FFA88F84044A8
:103DB0004078002807D1200000B2B8460FFA88F8F2
:103DC0004EF8280001E0641CD8E7380000B25EF825
:103DD0002080380000B25CF82000B8EB0008380002
:103DE00000B20EEB8000D0F804A0380000B20CEB5B
:103DF00080004068BAEB000A1AF1030AD04509DBDB
:103E0000380000B218444078B8460FFA88F803F832
:103E1000080020E2380000B25CF82000002800F022
:103E20006981380000B25EF82000502800F06281FD
:103E3000380000B25CF82080380000B25EF8200044
:103E400010EB0808022098FBF0F0401DB8460FFA6E
:103E500088F803F80800380000B213F80080380032
:103E600000B218444078B8EB0008B8F1090FC0F26E
:103E70009880380000B25CF82080380000B20CEB6B
:103E800080004068B8EB0008B8F1040F01DB0120A6
:103E900000E00020C0B2002811D0380000B25CF869
:103EA0002080380000B20CEB80004068B8EB0008BE
:103EB000B8F1040F01DB012014E0002012E038000B
:103EC00000B25CF82080380000B20CEB8000406843
:103ED000B8EB0008B8F1040F01DB012000E000207E
:103EE000C0B2404200283AD1380000B25EF82080CB
:103EF000380000B20EEB80004068B8EB0008B8F163
:103F0000040F01DB012000E00020C0B2002811D026
:103F1000380000B25EF82080380000B20EEB80005E
:103F20004068B8EB0008B8F1040F01DB012014E091
:103F3000002012E0380000B25EF82080380000B2A5
:103F40000EEB80004068B8EB0008B8F1040F01DB0D
:103F5000012000E00020C0B24042002821D03800FB
:103F600000B21E281DDBB8464046C0B2185C401E99
:103F7000C2465FFA8AFA9A448AF8010018F10108E9
:103F80004046C0B232280CDA4046C0B213F800A056
:103F90004046C0B218444078BAEB000ABAF1020FAA
:103FA000E2DA380000B2184490F80180380000B21C
:103FB000185CB8EB0008B8F1090FC0F24C8138006A
:103FC00000B25CF82080380000B20CEB8000406842
:103FD000B8EB0008B8F1040F01DB012000E000207D
:103FE000C0B2002811D0380000B25CF82080380040
:103FF00000B20CEB80004068B8EB0008B8F1040F89
:1040000001DB012014E0002012E0380000B25CF86F
:104010002080380000B20CEB80004068B8EB00084C
:10402000B8F1040F01DB012000E00020C0B24042E3
:1040300000283BD1380000B25EF82080380000B282
:104040000EEB80004068B8EB0008B8F1040F01DB0C
:10405000012000E00020C0B2002811D0380000B2DA
:104060005EF82080380000B20EEB80004068B8EBAC
:104070000008B8F1040F01DB012014E0002012E079
:10408000380000B25EF82080380000B20EEB8000ED
:104090004068B8EB0008B8F1040F01DB012000E034
:1040A0000020C0B24042002800F0D580380000B2A5
:1040B0001E28C0F2D080B8464046C0B2185C401CF2
:1040C000C2465FFA8AFA9A448AF8010018F1010898
:1040D0004046C0B232280CDA4046C0B2184490F8CC
:1040E00001A04046C0B2185CBAEB000ABAF1020F58
:1040F000E2DAB0E0380000B25CF8200000283DD0E1
:10410000380000B25EF82000502837D10868401C03
:104110000860380000B20CEB80004068002818D01E
:10412000380000B2184490F80180380000B25CF802
:10413000200010EB0808380000B20CEB800040684B
:10414000B8EB000818F10508380000B203F8008049
:1041500081E0380000B25CF82080380000B259F8E5
:1041600020005FF0020A90FBFAF010EB080818F14B
:104170000508380000B203F800806CE0380000B297
:104180005CF82000002843D1380000B25EF820001F
:1041900050283DD03748D0F8008018F10108C0F809
:1041A0000080380000B20EEB80004068502819D023
:1041B000380000B2184490F80180380000B25EF870
:1041C000200010EB0808380000B20EEB80004068B9
:1041D000B8EB0008B8F10500B8460FFA88F803F804
:1041E000080038E0380000B25EF82080380000B2E5
:1041F00059F820005FF0020A90FBFAF0B8EB0008D3
:10420000B8F10500B8460FFA88F803F8080022E074
:10421000380000B25CF8200000281CD1380000B241
:104220005EF82000502816D1761C1068401C1060E3
:104230003000C0B2012805D1380000B2DFF8988400
:10424000C8F80000380000B218444078B8460FFAA9
:1042500088F803F80800380000B2002812D1DFF80F
:104260007C04DFF87C1408600020DFF87814086014
:1042700054E000BF4012FF1F4412FF1F4812FF1FEF
:10428000D04AFF1F380000B213F80080404680B2C9
:10429000052801DA05208046404680B24C2801DB23
:1042A0004B208046380000B25CF82000002805D082
:1042B000380000B25CF8200041281DDA380000B256
:1042C0005EF82000502805D0380000B25EF82000CB
:1042D0000F2811DB380000B201281CDB14485FF006
:1042E000500A17FB0AFA5044C2461FFA8AFA504491
:1042F00010F8500C00280ED1380000B2DFF8E4139B
:104300000860380000B2D0F13C0000F01DFCDFF87E
:10431000D013086002E07F1EFFF7E3BABDE8F18F1B
:104320005010FF1F5C0FFF1F4411FF1F1004FF1FE1
:104330007C12FF1F2DE9F84F00208DF803000020AC
:104340008DF8020000208DF8010000208DF800009B
:104350000020002100225FF00009DFF88C330024E8
:104360001C60DFF8884300252560DFF884530026B1
:104370002E60DFF8806300273760DFF87C735FF022
:10438000000CC7F800C0DFF874C35FF0000ECCF873
:1043900000E0DFF86CE35FF00008CEF800805FF02B
:1043A0003B08B8F1030FC0F234815FF05009DFF829
:1043B00054A309FB08FBD3449BF828B0BBF1FF0FC3
:1043C0000BD19DF802B0BBF1000F06D1DCF800B0B4
:1043D0001BF1010BCCF800B016E0B8F1020F13DBB3
:1043E00009FB08FBD3441BF828BCBBF1000F0BD121
:1043F00009FB08FBD3441BF878BCBBF1000F03D1C9
:104400005FF0010B8DF802B009FB08FBD3449BF869
:1044100014B0BBF1FF0F0BD19DF803B0BBF1000F3F
:1044200006D1D7F800B01BF1010BC7F800B016E0B9
:10443000B8F1020F13DB09FB08FBD3441BF83CBCAB
:10444000BBF1000F0BD109FB08FBD3441BF88CBC5C
:10445000BBF1000F03D15FF0010B8DF803B009FB36
:1044600008FBD3449BF83CB0BBF1FF0F0BD19DF888
:1044700001B0BBF1000F06D1DEF800B01BF1010B5B
:10448000CEF800B016E0B8F1020F13DB09FB08FB11
:10449000D3441BF814BCBBF1000F0BD109FB08FB84
:1044A000D3441BF864BCBBF1000F03D15FF0010BD8
:1044B0008DF801B009FB08FBD3449BF81EB0BBF19B
:1044C000FF0F0CD183465FFA8BFBBBF1000F06D1C7
:1044D000D4F800B01BF1010BC4F800B015E0B8F13E
:1044E000020F12DB09FB08FBD3441BF832BCBBF103
:1044F000000F0AD109FB08FBD3441BF882BCBBF1B7
:10450000000F02D15FF0010B584609FB08FBD344B2
:104510009BF832B0BBF1FF0F0BD19DF800B0BBF19F
:10452000000F06D1D3F800B01BF1010BC3F800B0A7
:1045300016E0B8F1020F13DB09FB08FBD3441BF8AC
:104540001EBCBBF1000F0BD109FB08FBD3441BF8C9
:104550006EBCBBF1000F03D15FF0010B8DF800B012
:1045600009FB08FBD3449BF80AB0BBF1FF0F0CD149
:104570008B465FFA8BFBBBF1000F06D1D5F800B07C
:104580001BF1010BC5F800B015E0B8F1020F12DB0A
:1045900009FB08FBD3441BF846BCBBF1000F0AD152
:1045A00009FB08FBD3441BF896BCBBF1000F02D1FA
:1045B0005FF0010B594609FB08FBD3449BF846B05A
:1045C000BBF1FF0F0CD193465FFA8BFBBBF1000FE1
:1045D00006D1D6F8009019F10109C6F8009015E04F
:1045E000B8F1020F12DB09FB08FBD3441BF80ABC2D
:1045F000BBF1000F0AD109FB08F9D14419F85A9C04
:10460000B9F1000F02D15FF001094A46B8F1010883
:10461000C7E6DCF80090D7F800A0D14505DA3F687E
:10462000DFF8E4C0CCF8007005E0DCF80070DFF8DB
:10463000D8C0CCF80070344FDEF800C0D7F8009036
:10464000CC4504DAD7F800C0C7F800C003E0DEF8B4
:1046500000C0C7F800C0D3F800C0D7F800E0F445A8
:1046600005DA3B68DFF8A4C0CCF8003004E01B6832
:10467000DFF898C0CCF800302368D7F800C0634555
:1046800003DA3B68214C236002E023681F4C23605F
:104690002B683C68A34203DA3B681C4C236002E0B1
:1046A0002B681A4C236033683C68A34203DA3B68EA
:1046B000164C236002E03368144C2360134B1C68D3
:1046C0003C2C01DB3A241C601B68D3F13C03104CEA
:1046D0002360BDE8F18F00004C12FF1F0000704204
:1046E0003C12FF1F3812FF1F5012FF1F5412FF1FF2
:1046F0005812FF1F5C12FF1F6012FF1F6412FF1F82
:104700006812FF1F7C12FF1F7012FF1F6C12FF1F29
:104710007412FF1F012210F01F018A40DFF8BC1243
:1047200003005BB25B0941F823207047012210F0BF
:104730001F018A40DFF8A81203005BB25B0941F851
:104740002320704710B4020052B2002A0AD50A0191
:10475000DFF89032040064B214F00F04234403F82D
:10476000042C05E00A01DFF88032040064B21A5517
:1047700010BC704770B4DFF874422568012686408B
:1047800035432560DFF868421D006D046D0C06009E
:1047900076B276012644F5821D006D046D0C06008C
:1047A00076B276012644F58305006DB26D01615144
:1047B00005006DB26D012C4422618E4C256855F0C8
:1047C0000105256070BC704710B504008A4804607C
:1047D00000F06EF8012010BDF8B5884C2078002854
:1047E000FBD04FF49655864E834807682A00310067
:1047F0003800FEF78FFB00202070F1BDF8B50324D0
:10480000804D200040B255F82000007980061AD56E
:104810007D4E7E4F307807EB00010320FDF74BFA09
:104820003078401C30703078012804D13878A528C1
:1048300001D0002030703078032804D1002030707F
:10484000012073490870200040B255F8200000791B
:10485000F1BD7CB50025280080B2082827DAA52004
:104860008DF800006846F12141706A4E290089B236
:1048700036F821100C00210089B2090A8170C47039
:10488000042269460320FDF734FA614908780028BC
:10489000FBD0002008705D484178807850EA012004
:1048A000290089B206EB810148806D1CD3E773BDF6
:1048B0007FB54FF416510320FDF702F90320FDF7F1
:1048C0002BFA5549432000F062F90A20FCF7D9FF82
:1048D0004F4E002030700025280080B209281EDAD3
:1048E000A5208DF80C004D4803A92A0092B230F89B
:1048F00022204A702A0092B200EB82004088040015
:10490000200080B2000A8870CC70042203A9032022
:10491000FDF7EFF90220FCF7B4FF6D1CDCE73078FF
:104920000028FCD00020307038484178FF29FBD1A6
:104930008078FF28F8D1FFF78CFF012002904FF418
:1049400096500190002000901B232D4A34490020EE
:1049500000F062F933491B20FCF71EFF254E30683A
:104960004008400030602148016851F001010160B9
:104970000020FFF7CFFE306850F001003060572074
:10498000FFF7D4FE28491D20FCF706FF0121572020
:10499000FFF7D8FE02210020FFF7D4FE5720FFF7D3
:1049A000B9FE7FBD80B55FF0005020490968C1F8AD
:1049B000A0004FF49653124A19490020FFF7DAFE7F
:1049C00000201B49088001BD01200C4908700748E0
:1049D000016851F0010101607047000000E100E052
:1049E00080E100E018ED00E000E400E024800040F9
:1049F000009000400C800040C84AFF1FD74CFF1FAA
:104A00000838FF1FA00BFF1FD64CFF1FCC4AFF1F0B
:104A1000940DFF1FDC0BFF1FFD470000B80BFF1FAD
:104A200050F00F400201010002010A008C0BFF1F31
:104A3000D04CFF1FF0B403000C000025B5F5965FC5
:104A40000ADA665D1700FFB2BE4201D3FF2600E01E
:104A500000265E556D1CF1E7F0BC704737490A68C7
:104A600052F400020A6036490A68920892000A600D
:104A70003449020052B212010A44926852085200AC
:104A800003005BB21B010B449A605FF0FF3203002E
:104A90005BB21B01CA50020052B212010A44D26832
:104AA00052F0010203005BB21B010B44DA6002000A
:104AB00052B212010A4492685208520003005BB2DB
:104AC0001B010B449A60012203005BB21B011944D5
:104AD0008A60704710B401001A485FF0FF330A0083
:104AE00052B21201024452689A1A0B005BB21B01C7
:104AF0000344DB68DB071AD50B005BB21B010344E0
:104B0000DB6853F001030C0064B224010444E36049
:104B10000B005BB21B0103449B685B085B000C004D
:104B200064B22401204483605FF0FF3004E012F19E
:104B3000010F00D1521E100010BC70473C80044091
:104B40000070034000710340C2175040801AB0FA51
:104B500080F10AD08840D1F19D01D20742EAC151CB
:104B6000020672F1004241EB1020704710B50400BC
:104B70004FF4007094FBF0F100FB1140002803D0CB
:104B80001E210B48FCF7A8FE0A48046010BD70B552
:104B900004000D00084E07480068B04203D03021E1
:104BA0000348FCF799FE200040B246F8205070BD43
:104BB0006C87000008ED00E00000FF1F2DE9F843BE
:104BC00004000D002000800910F00700C0B246016B
:104BD0002000103810F03F00C0B2C70017EB0608E5
:104BE000EDB218EBC500B0F1010948464146C0B22C
:104BF000C9B288420ED3002200214046C0B2FCF761
:104C00002FFD4FF481714046C0B2FCF7C5FD18F18D
:104C10000108EAE7BDE8F1832DE9F84F04000D0033
:104C200016001F009DF92880DDF82C90DDF830A0DB
:104C3000404640B2002802D15FF0010B0FE0404631
:104C400040B2012802D15FF0020B08E0404640B2BA
:104C5000022802D15FF0040B01E05FF0100B404628
:104C600040B2002805D15A48854202D35948A8428B
:104C70001FD2404640B2012809D15548854206D38B
:104C80005548A84203D315F00300032811D140462C
:104C900040B2022809D14E48854206D34F48A84267
:104CA00003D315F00300002803D061214C48FCF722
:104CB00013FEB9F5004F03D363214948FCF70CFEFE
:104CC0004848016851F0020101604748016851F00D
:104CD000020101604548210049B2490145502100C7
:104CE00049B2490101440E610021220052B2520131
:104CF000024491805946C9B2220052B25201024484
:104D00009182414649B2090211F4E061424652B231
:104D100012F007021143220052B252010244D18024
:104D200049464904490C220052B252010244D18240
:104D300049464904490C220052B252010244D1832F
:104D40002B490A6832F080020A605946C9B2220033
:104D500052B25201024491600021220052B252012B
:104D60000244D1605FEACA7102D4D9F1000100E0C7
:104D70000021220052B25201024491614CF20A0118
:104D8000220052B25201104481833800C0B240095F
:104D9000313050F080001749220052B28854164931
:104DA0003800C0B2FCF7F8FC5946C9B22800FFF73A
:104DB00005FF124901220B6812FA04F083430B60CD
:104DC0000F480168A2400A430260BDE8F18F00006D
:104DD00010F00F4013F10F4012F10F4010F10F408F
:104DE0009C860000408004403C80044000900040CD
:104DF0000080004000100240000101000C800040D3
:104E00002480004070B4C17002710023037000233D
:104E1000437000238370C47803799C42C0F28A8077
:104E2000DFF8505955F82430502B46D005EB840359
:104E300053F8043C502B40D005EB84035B68502BA7
:104E40003BD005EB840353F8083C502B35D055F884
:104E500024300B2B31DB05EB840353F8043C0B2B84
:104E60002BDB05EB84035B680B2B26DB05EB840354
:104E700053F8083C0B2B20DB55F8246005EB84032A
:104E80005B68F61A012E53DA05EB840353F8046CC1
:104E900055F82430F61A012E4ADB05EB840353F84B
:104EA000086C55F82430F61A022E41DB047055F8D0
:104EB00024304370012383703CE055F82430502B9C
:104EC00036D105EB840353F8043C502B30D005EB6E
:104ED00084035B68502B2BD005EB840353F8083C0C
:104EE000502B25D005EB84039B68502B20D055F820
:104EF00024300B2B1CDB05EB840353F8043C0B2BF9
:104F000016DB05EB84035B680B2B11DB05EB8403DD
:104F100053F8083C0B2B0BDB05EB84039B680B2B36
:104F200006DB047055F8243043700123837001E0E0
:104F3000641E71E770BC704770B40300D9701A71B9
:104F4000002018700020587000209870DC781879C4
:104F5000A04280F28B80DFF8285B55F824000028FF
:104F600047D005EB840050F8040C002841D005EB35
:104F70008400406800283CD005EB840050F8080C01
:104F8000002836D055F82400462832DA05EB840094
:104F900050F8040C46282CDA05EB840040684628BB
:104FA00027DA05EB840050F8080C462821DA55F87A
:104FB000246005EB84004068361A002E54D405EBBB
:104FC000840050F8046C55F82400361A002E4BD596
:104FD00005EB840050F8086C55F82400361A16F1D9
:104FE000010F41DA1C7055F82400587001209870A8
:104FF0003CE055F82400002836D105EB840050F839
:10500000040C002830D005EB8400406800282BD029
:1050100005EB840050F8080C002825D005EB84002F
:105020008068002820D055F8240046281CDA05EBBB
:10503000840050F8040C462816DA05EB840040681A
:10504000462811DA05EB840050F8080C46280BDAE4
:1050500005EB84008068462806DA1C7055F82400A9
:1050600058700120987001E0641E70E770BC7047B2
:105070002DE9F8430400002020700020A0700020DB
:1050800060700020E070DFF8FC8919223921404669
:10509000FFF7B8FEDFF8F099192239214846FFF7EB
:1050A0004BFFDFF8E819C878002840F05C814878A9
:1050B000002840F05881DFF8D8090068072807DB8E
:1050C000DFF8D0090068192802DA012020704AE1CF
:1050D00098F80200002800F0A18099F8020000284A
:1050E00040F09C8098F80000352880F29780DFF827
:1050F000A809DFF8A8190A6803689A4206DADFF8F7
:10510000A029126803689A42C0F288800022160023
:10511000502E05DA0022DFF88C399A55761CF7E715
:10512000DFF87C290368D2F800C0634507DB036819
:10513000D1F800C0634502DB2820050016E00368B3
:10514000D2F800C0634507DA0B68D2F800C06345A7
:1051500002DA1E20050009E000680B68984205DAB3
:1051600010680968884201DA1420050098F80110D7
:105170008D422BDA98F800000600DFF82C09006851
:10518000B04221DADFF82429502303FB06F0104453
:10519000405CFF2816D103FB06F01044084410F8C9
:1051A000500C00280ED103FB06F302EB0300084469
:1051B00010F8A00C002805D13000401EDFF8E428CC
:1051C000505401E0761ED8E7491ED1E798F80170E7
:1051D000BD4280F2C880DFF8CC18C85D00281BD023
:1051E00001EB070010F8010C002815D001EB0700B7
:1051F0004078002810D0CA5D01EB07004078121AF1
:10520000002A09D4CA5D01EB070010F8010C121A3C
:10521000002A01D50120A0707F1ED9E798F802006E
:10522000002840F0A08099F80200002800F09B8040
:1052300099F80000352880F29680DFF87408DFF8CE
:10524000581802680B689A4206DADFF86828126874
:105250000B689A42C0F2878000221600502E05DAB1
:105260000022DFF854389A55761CF7E7DFF8442817
:105270000B68D2F800C0634507DB0B68D0F800C0AC
:10528000634502DB2820050016E00B68D2F800C059
:10529000634507DA0368D2F800C0634502DA3220BA
:1052A000050009E009680368994205DA1168006899
:1052B000814201DA3C20050099F80110A9422BDA5D
:1052C00099F800000600DFF8E0070068B04221DA34
:1052D000DFF8D827502303FB06F01044405CFF287A
:1052E00016D103FB06F01044084410F8500C0028B7
:1052F0000ED103FB06F302EB0300084410F8A00CE8
:10530000002805D13000401EDFF8AC27505401E0E2
:10531000761ED8E7491CD1E799F80170AF4222DA2E
:10532000DFF89417C85D00281BD001EB070010F8C8
:10533000010C002815D001EB07004078002810D0A0
:10534000CA5D01EB07004078121A012A09DACA5D2A
:1053500001EB070010F8010C121A012A01DB0120F1
:1053600060707F1CDAE7BDE8F18370B4DFF81C4899
:1053700000202070DFF8183800201870DFF814289B
:10538000002010700020DFF810582870DFF80C584B
:10539000287800286ED0DFF8E866D6F8E800002804
:1053A0000BD0D6F8E400002807D0D6F8E00000289B
:1053B00003D0D6F8DC00002811D1DFF8B803D0F80C
:1053C000E860502E54D0D0F8E460502E50D0D0F881
:1053D000E060502E4CD0D0F8DC00502848D0DFF8E8
:1053E000A856A878002807D0DFF89806807800280B
:1053F00002D1012020703DE0A878002807D1DFF815
:1054000084068078002802D00120187032E0A87845
:10541000002807D0DFF86C068078002802D0012031
:10542000107027E039200100DFF868060068884224
:1054300020DADFF86C27535C02EB010010F8010C56
:105440001B1A012B06DB535C02EB010010F8010C68
:10545000181A05E002EB010010F8013C505C181A24
:10546000032803DB02EB010040785054491EDBE7C0
:105470000120E87070BC7047F0B40100DFF8083616
:105480009878002873D0DFF8FC45A07800286ED00B
:10549000DFF8FC050068042869DADFF808070078FF
:1054A000002864D11D7820782D1A012D03DB1D788A
:1054B0002078281A02E025781878281A082851DA66
:1054C000DFF8E456DFF8B865187806EB800050F88E
:1054D000047C207805EB800050F8040C3F1A012F63
:1054E0000BDB187806EB800050F8040C277805EBEE
:1054F000870757F8047CC71B0AE0207805EB80007B
:1055000050F8040C1F7806EB870757F8047CC71B7C
:10551000187856F820C0207855F82000BCEB000C15
:10552000BCF1010F07DB187856F82030207855F8C9
:105530002000181A06E0207855F82040187856F810
:105540002000201A87420DDBDFF8600603785B1C21
:1055500003700378022BC0F20B8101230B70002330
:10556000037005E10020DFF84436187000E19878F8
:1055700000287DD0DFF80C058078002878D1DFF88E
:1055800010050068022873DADFF824060068032893
:105590006EDADFF820060068052869DBDFF8080608
:1055A000D0F8E040502C63D0D0F8DC40502C5FD0D5
:1055B000D0F8D840502C5BD0D0F8D400502857D029
:1055C0001878C01E0200DFF8CC040068904280F218
:1055D000CF80DFF8AC4454F82200002846D004EB1A
:1055E000820050F8040C002840D004EB8200406890
:1055F00000283BD004EB820050F8080C002835D07E
:1056000054F822005D78A84230DA04EB820050F8AA
:10561000040C5D78A84229DA04EB820040685D78CA
:10562000A84223DA04EB820050F8080C5D78A84207
:105630001CDA54F8225004EB820040682D1A012D28
:1056400014DA04EB820050F8045C54F822002D1A9E
:10565000012D0BDB04EB820050F8085C54F82200AB
:105660002D1A022D02DB0120487081E0521EAAE7AC
:10567000987800287CD1DFF80C349878002877D00F
:10568000DFF80C040068022872DADFF828050068E9
:1056900003286DDADFF818050068052868DBDFF8F5
:1056A000E043D4F8E000002862D0D4F8DC00002801
:1056B0005ED0D4F8D80000285AD0D4F8D4000028FE
:1056C00056D01878C01E0200DFF8C8030068904268
:1056D0004EDADFF8D44454F82200502846D004EBC8
:1056E000820050F8040C502840D004EB820040683F
:1056F00050283BD004EB820050F8080C502835D0DD
:10570000587854F82250A84230DA587804EB8205D1
:1057100055F8045CA84229DA587804EB820555F85C
:10572000085CA84222DA587804EB82056D68A8422A
:105730001CDA54F8225004EB820040682D1A002D28
:1057400014D404EB820050F8045C54F822002D1AA3
:10575000002D0BD504EB820050F8085C54F82200B1
:105760002D1A012D02DA0120887001E0521EABE7EC
:10577000F0BC70475C0FFF1F2DE9F04100240025AD
:10578000DFF820743878002800F06881DFF82824DA
:105790005078002840F06281D078002840F05E8187
:1057A00000203C2805DA5026DFF810743E54401CD7
:1057B000F7E7DFF8E0723E680D2E41DB386886427D
:1057C00009D1DFF8E403D7F800C000EB8C00806853
:1057D000C01E010016E0DFF8E40300EB060C9CF8A5
:1057E00001C0BCF1500F04D030444078C01E01000D
:1057F00008E0DFF8B403D7F800C000EB8C00806845
:10580000C01E01000B004E2B18DADFF8A0025FF07B
:10581000500C0CFB06FE86441EF803E0BEF1FF0FA1
:105820000AD10CFB06FC604418444078002803D1E0
:10583000DFF88803835501E05B1CE4E7761EBBE7D5
:1058400000203C2806DA0026DFF874C30CF800605C
:10585000401CF6E7D7F800C0BCF10D0F3DDB3868FF
:10586000844507D186483E6800EB86008068C01CEE
:10587000010013E0DFF8486306EB0C0040780028D5
:1058800005D006EB0C004078C01C010006E07C4807
:105890003E6800EB86008068C01C01000B00022BF4
:1058A00018DB8248502606FB0CFE86441EF803E0F7
:1058B000BEF1FF0F0CD106FB0CF63044184410F873
:1058C000010C002804D1DFF8F80200F80C3001E0E8
:1058D0005B1EE4E7BCF1010CBEE73E680D2E0DDB5C
:1058E000DFF8DC02805D002800D0641CDFF8CC0209
:1058F000805D502800D06D1C761EEFE7DFF888C170
:105900009CF80200002871D0DFF878E19EF80200D0
:1059100000286BD0DFF8AC025FF0000880F801804F
:105920009CF801C09EF801E01EEB0C0C5FF0020E2B
:105930009CFBFEFC80F801C090F801C0BCF1250F73
:1059400032DB90F801C0BCF12A0F2DDAD7F800C085
:10595000BCF10C0C2800C0B2BCEB000CBCF1040F75
:105960000DDAD7F800C0BCF10C0C2000C0B2BCEBC3
:10597000000CBCF1040F02DB012090704EE0D7F860
:1059800000C0BCF10C0C2800C0B2BCEB000CBCF198
:10599000040F43DB3F680C3F2000C0B23F1A042FC6
:1059A0003CDA0120107039E090F801C0BCF12A0FF8
:1059B0000CDB3F680C3F2000C0B23F1A032F02DB14
:1059C000012090702AE00120107027E040782528FF
:1059D00024DA3F680C3F2800C0B23F1A032F02DBD5
:1059E000012010701AE00120907017E09CF802006E
:1059F000002806D123488078002802D001201070AA
:105A00000CE09CF80200002806D11E48807800288F
:105A100002D00120907001E0012090709078002861
:105A20000CD05078002809D1D078002806D1012068
:105A3000D07000209070002010701EE010780028B8
:105A40001BD05078002818D1D078002815D101201B
:105A5000507000209070002010700EE0B878002880
:105A600004D00120DFF85021507006E0787800283B
:105A700003D00120DFF84021D070BDE8F0810000A4
:105A80005010FF1F444BFF1F3C4BFF1F584BFF1F85
:105A90004812FF1F3812FF1F6412FF1F5812FF1F0A
:105AA0005412FF1F2C4CFF1F7412FF1F7C12FF1F8C
:105AB0005C12FF1F5012FF1FDC4BFF1F10B5444A42
:105AC00000201070002050703F4B987800282AD199
:105AD0003E488078002826D13E4C2068002100F006
:105AE00083F801D2206802E0206890F000403A4933
:105AF00000F08CF817D239480068132813DA012017
:105B00001070107801283FD1907800283CD134489B
:105B10000178491C01700178282935DB0121917039
:105B20000021017030E000202D490870987800288D
:105B300012D12648807800280ED0264C20680021FB
:105B400000F052F801D2206802E0206890F0004096
:105B5000244900F05BF815D39878002814D01B482E
:105B60008078002810D11B4B1868002100F03CF809
:105B700001D2186802E0186890F00040194900F05E
:105B800045F801D20120507010BD0000D84CFF1F15
:105B9000D94CFF1FDA4CFF1FDB4CFF1F4C4BFF1F84
:105BA000D04AFF1F544BFF1F5C0FFF1FDC4CFF1F31
:105BB0004012FF1F4412FF1F584BFF1F604BFF1F77
:105BC0009C4BFF1FD24CFF1F3C4BFF1F444BFF1F42
:105BD000D84BFF1F144BFF1F0100C0403812FF1F9E
:105BE000DD4CFF1F000070414FF0807C1CEB400F2C
:105BF00094BF1CEB410F05E040EA010C1CEB0C0FBD
:105C000001D28142704718BF884270474FF0807CB4
:105C10001CEB400F94BF1CEB410F05E040EA010C68
:105C20001CEB0C0F01D28842704718BF81427047AD
:105C30002800000050003C0050003C000000000024
:105C40000000000000000000000000000000000054
:105C5000000000000000000000004E6F6E4D6173F8
:105C60006B61626C6500000000486172644661759A
:105C70006C740000000000004D656D4D616E616741
:105C8000656D656E7400004275734661756C7400D5
:105C900000000000000055736167654661756C7413
:105CA00000000000000000000000000000000000F4
:105CB00000000000000000000000000000000000E4
:105CC00000000000000000000000000000000000D4
:105CD00000000000000000000000000000000000C4
:105CE00000535643616C6C0000000000000000008F
:105CF00044656275674D6F6E69746F7200000000D5
:105D000000000000000000000000000000005065DE
:105D10006E645356000000000000000000537973C9
:105D20005469636B0000000000000000444D4130E6
:105D30000000000000000000000000444D41310060
:105D400000000000000000000000444D413200004F
:105D5000000000000000000000444D41330000003E
:105D60000000000000000000444D4134000000002D
:105D700000000000000000444D413500000000001C
:105D8000000000000000444D41360000000000000B
:105D90000000000000444D413700000000000000FA
:105DA00000000000444D41380000000000000000E9
:105DB000000000444D4139000000000000000000D8
:105DC0000000444D413130000000000000000000A0
:105DD00000444D413131000000000000000000008F
:105DE000444D41313200000000000000000000443A
:105DF0004D41313300000000000000000000444D20
:105E000041313400000000000000000000444D411A
:105E1000313500000000000000000000444D415FEB
:105E20004572726F720000000000004D434D00008B
:105E3000000000000000000000004654464C000036
:105E4000000000000000000000526561645F436FC5
:105E50006C6C6973696F6E004C56445F4C5657000A
:105E6000000000000000004C4C5700000000000043
:105E70000000000000005761746368646F670000F1
:105E80000000000000524E4700000000000000002B
